:020000040800F2
:10000000005000202DD40008D9D40008F5A4000821
:10001000D9D40008D9D40008D9D4000800000000C1
:10002000000000000000000000000000D9D400081B
:10003000D9D4000800000000D9D40008D1A40008D9
:10004000D9D40008D9D40008D9D40008D9D40008DC
:10005000D9D40008D9D40008D9D4000855A500087F
:10006000D9D40008D9D40008D9D40008D9D40008BC
:1000700065A40008D9D4000895A40008D9D40008C4
:10008000D9D40008D9D40008D9D40008D9D400089C
:10009000D9D40008D9D40008D9D4000851A5000843
:1000A000D9D40008D9D40008D9D4000843A5000841
:1000B00039A500082DA5000821A50008F1A4000815
:1000C000E9A40008EDA40008E5A40008D9D40008BC
:1000D000D9D4000821A40008ADA3000875A3000826
:1000E00059A50008D9D40008D9D4000800000000A0
:1000F0000000000000000000000000000000000000
:0C01000000000000000000005FF808F1A3
:100110002DE9F04F854D97B0AB68854C13F0080181
:1001200000F0868095F82F21042A00F28380DFE812
:1001300002F003030550750023787CE060787C4A68
:10014000002877D000209E05507002D5137E180736
:1001500070D4E0780023A27800F00706A383754BE3
:1001600042EA06221A60227902F03F06760146EA48
:10017000D00058606079800040EA9210A27902F0C5
:10018000010640EA86209860E07900F00F06F6014B
:1001900046EA5202DA60227A02F07F06360146EA27
:1001A00010101861607A400040EAD212A07A00F084
:1001B000030642EA46225A61E27A02F01F06B601BD
:1001C00046EA90009861207BC00040EA5212DA6152
:1001D0002CE0A27F564B6AB393F82000002201283E
:1001E0009A7727D19A8393F83420082A84BF08226B
:1001F00083F8342094F834004F4A0023DEB286425C
:1002000002F1020212D212F8016C12F8027C46EAE4
:1002100007274A4E46F823700133EFE794F8583029
:10022000434A00203BB1908382F85800012302E04A
:100230000B4600E00023E26D206E101A002802DA5F
:10024000002B00F09B8302F59C4220322266DFF8EF
:1002500004A13B4E00293CD13A4F89468846DAF842
:1002600000305FFA88F09847A0F2EE2292B240F296
:10027000DC539A42D4F8A420334B88BFB5F834013C
:100280001340002B03DA013B63F0030301332849D9
:1002900003EB880301EB4303A3F8640039887B88F0
:1002A00008F101080B44B988B8F1080F0B44F9882C
:1002B00007F108070B441BB24FF0040193FBF1F365
:1002C00026F8093009F10209C9D10132C4F8A42085
:1002D00009E00027F8B2DAF80030984726F817004E
:1002E0000137082FF6D1AB68590404D594F8A8302B
:1002F0000BB908F0B2FB95F83E210C4B62B3033208
:1003000036F91200A0F57A70B0F57A7FA8BF4FF4E5
:100310007A7020EAE0700AF005FE0C490AF00AFF44
:100320000B490AF053FE0BF03DF82AE0A818002014
:100330000001002064070020220100203801002075
:1003400038070020640100200300008000007A4488
:1003500000C07F445C07002093F83F0190B1A84A99
:10036000D179A84A32F81100B3F8422180B2801A3C
:10037000B3F84031C0EB802090FBF3F000B280F383
:100380000A0080B2AB68A4F8BE009A053FD59E4B28
:100390009E4AB3F81C9092F8B8300FFA89F703EB35
:1003A00083018F4290461EDDDFF868A29AF8012093
:1003B000CAB1974AB2F8342132807280B280B8F85C
:1003C000BA20F28098F8B920134403EB83039F42CC
:1003D00004DD08F042FB00238AF80030B4F8C03096
:1003E0000133A4F8C03098F8B83003EB83039F4280
:1003F00009DD884F97F80180B8F1000F03D108F0AC
:100400002CFB87F8008009F10109A4F81C90002258
:10041000B5F83611B5F838711346B05E9B088842BE
:10042000C4BF63F07F03DBB20232B842B8BF43F00F
:100430004003082AF1D194F8C200734A984205D1CA
:1004400092F8C300F92804D8013000E0002082F8B7
:10045000C30084F8C230AB686D4A13F480436B4F1D
:100460000CD0B2F83411B2F8F420B6F90630881A7C
:10047000834208DD0A44934207DB04E0B6F9062014
:100480008A4202DB16E0002314E00023C4F8D033D4
:10049000C4F8D433C4F8D833C4F8D030C4F8D43056
:1004A000B7F846302BB1584B93F8A830002B42F0E8
:1004B0006B800123B7F846206AB194F8A82052B99E
:1004C000544A52783AB195F83B2112B108F0C5FA76
:1004D00001E0002BFAD194F8C3204B4B142A40F0D2
:1004E000B1804C4A50789046D0B1B7F846202AB92E
:1004F00093F8C2305F2B01D108F0AFFA95F83A318A
:10050000002B00F09F80B7F84630002B40F09A8017
:1005100094F8C2307D2B40F0958008F09EFA91E06F
:1005200093F8C220572A15D13B4B4FF47A721A80A8
:10053000AB68DB0501D508F075FD384B1B68580723
:1005400002D5374A0A21118013F0080326D1A4F8F6
:10055000C43023E0A968490717D55A2A15D193F862
:10056000C6202AB1012283F8C60083F8C72015E00F
:1005700093F8C82082F0010283F8C820294B0AB101
:10058000022200E003221A7008E05D2A02F00580D2
:100590005B2A02F004805E2A02F00380B7F846303E
:1005A00033B994F8C2206F2A02D107F05BFB15E043
:1005B00095F83A2122B11BB994F8C2307E2BF4D0C1
:1005C00094F8C230972B04D1174B4FF4C8721A809D
:1005D00004E0A72B04BF012388F80E3094F8C23042
:1005E000BB2B02D1BB8D023303E0B72B03D1BB8DF4
:1005F000023BBB851FE0BE2B18D17B8D023319E077
:10060000F4040020FC04002000010020901C0020C5
:10061000A8180020A80600205C0C00202C05002053
:100620005E0C0020611D00206C1D0020BD2B09D137
:100630007B8D023B7B850120014604F059FA0023A3
:1006400084F8C330D5F808E01EF0040F31D094F8D8
:10065000C820A14B8AB1A14A527872B1A04AB6F91A
:100660000610B2F83621914207DD93F8A82022B98E
:100670003221A3F8CA1083F8C82094F8B920964B09
:1006800062B193F8CC202AB993F8C62012B932226D
:10069000A3F8CA20012384F8CC300AE093F8C620DE
:1006A0003AB18E4A527822B983F8C620012283F8E3
:1006B000C7208C480123002130F8022F03F1FF3CB2
:1006C000A2F21556B6F5C77F8CBF002601269E40C4
:1006D00012B2314340F21356B242CCBF002601267B
:1006E00006FA0CF6314340F2A466B242D4BF0022AF
:1006F00001225E1CB240033311430D2B89B2DBD1C2
:10070000002307EB4306B6F84660734A31420CBF3C
:100710000026012602F1A8001E540133152BF0D14A
:1007200092F8A9306D4E704943B9704BB2F91C2054
:1007300093F8B83003EB83039A420CDD0B689A07F9
:1007400009D5F3784BB9C4F8D030C4F8D430634B32
:100750000122DA7001E00023F37094F8AA305E4AB7
:100760005BB10023F370337943B9C2F8D030C2F8DB
:10077000D4305A4B01221A7100E0337194F8A8303A
:100780000BB901233370F278594B12B9534A1279DD
:1007900012B110225A6101E010221A610A6853074F
:1007A00025D594F8AB104C4B99B1B17991B94B4820
:1007B0004FF0010C80F806C0D3F8DC00C3F8EC1051
:1007C000C3F8D800B3F8E800C3F8F010A3F8E000CD
:1007D00000E0B1711EF4005F09D094F8AC302BB189
:1007E000F37B23B93D4B0121D97300E0F37312F081
:1007F0000A0F20D094F8AD3037494BB1737943B923
:10080000364B01205871B1F8C430A1F8F43000E043
:10081000737194F8AE302BB1737A23B92F4B012149
:10082000597200E0737294F8AF102B4B19B1B3F802
:10083000C410A3F8F610900640F19180F27A274B8D
:10084000002A00F0878094F8F820DFF88C80042AD2
:1008500040F2808098F8B2208AB1DA79002A7ED1FD
:100860000121D9711A72234B08F1FC0008F580713F
:100870001A7007F0E1FC022388F804316FE0DA71A6
:1008800098F8B320002A37D0B8F9E210B7F8CC2096
:100890000029B8BF494291422EDAB8F9E410002984
:1008A000B8BF4942914227DA1A7A002A57D1012764
:1008B0001F72104B08F584701A70D8F8103108F5C3
:1008C0008671C8F80831D8F81431C8F80C3107F02F
:1008D000B3FC88F8047142E000010020A806002063
:1008E000A81800203E0700202C050020901C0020A6
:1008F000000C014000000020934A0023337213785B
:100900006BBB012111701A46904F0020391D5052C7
:1009100007F1080107F10C0E5052002143F80E10A8
:100920009E44D053CEF80400CEF80810023207F1EE
:10093000340E5C3743F80E10D9519E441F44042AEC
:10094000CEF80400CEF808107860B96003F1140303
:10095000DAD104E00023F371337284F8043194F89F
:10096000B43003B10123B3726B79082B02D00E2B84
:1009700040F064840023737200F060BC744BD3F8C1
:100980009C31042B00F25A84DFE813F005008B0041
:10099000F8004B033C040123C4F89C316D4B6C4EB2
:1009A0001B6819077DD5D6F8A031D31A002B78DB48
:1009B000694B02F5C332A0325B6806F5D270C6F807
:1009C000A0219847654B06F5D2779A7B184692B1DD
:1009D000D6F8A0210023C6F8AC21E9180022A1F81E
:1009E000182116465E49FA5A5A5206315A520233B3
:1009F000062BF2D186735B4B1B78A3B1B4F8A4210C
:100A0000B5F81831D31AA4F8A431B4F8A621B5F872
:100A10001A31D31AA4F8A631B4F8A821B5F81C31BC
:100A2000D31AA4F8A831D4F8AC31494A002B00F00D
:100A30000584D2F8A0114C48CB1A834202F5DB7131
:100A400002F5D87019D8494BDA6882F00802DA60EA
:100A50000023FA5A30F903E016B2B645C4BFDFF8F6
:100A600000E123F80E2031F903E0B645BCBF404E4B
:100A70009A530233062BECD1E0E30023C2F8AC31E9
:100A8000C75ECE5EEA183E4402273B4496FBF7F66B
:100A9000062BA2F81861F3D10120014604F028F8D2
:100AA000CCE3D4F89C312A4E0133C4F89C31294B55
:100AB0001B685B0762D5D6F8BC31D31A002B5DDB0F
:100AC000D6F8C031C6F8BC212A4F9BB13B69984784
:100AD0007B689847D6F8BC313A8806F5E270134433
:100AE000C6F8BC3106F5E4717B6998470023C6F867
:100AF000C031A3E3BB689847FB6898471E4AD6F805
:100B0000CC1192F831204B1C934208BF0023D4F83B
:100B1000C42104EB8101C1F8D021D4F89012C4F8AB
:100B2000CC310A4404EB8301D1F8D0010123121A1D
:100B3000C4F89022C4F8C0317A88D4F8BC31134488
:100B4000C4F8BC317AE300BF000000201802002086
:100B5000000100202C050020A4050020A80600208C
:100B6000B0020020CC0500207FC3C901000C014069
:100B7000B60200207C050020901C0020D4F89C3197
:100B8000B04E0133C4F89C31AF4B1B685F0740F196
:100B9000488207F0DDFED6F8987246F2A713C71B0D
:100BA0009F42B6F896A2B6F894B240F23A82DFF8C5
:100BB000C492C6F89802B9F80030DFF8B4827BB36B
:100BC00098F83100D6F89032D6F89C220138B3FB61
:100BD000F0F0082392FBF3F1521A1044C6F89C027D
:100BE00090FBF3F00AF09EF998490AF0A3FA9849AD
:100BF0000CF012FF01464FF07E500AF0DDF89549E7
:100C00000AF0E4F90AF0A8FB0023C6F8A432C6F8FB
:100C1000A832B9F80030C6F8A002013BA9F80030AC
:100C200098F831000FFA8BFB0FFA8AFAD4F8903259
:100C3000BBF1000FB8BFCBF1000BBAF1000FB8BF8A
:100C4000CAF1000AD345A8BFDA460138B3FBF0F079
:100C50001FFA8AFACDF814A00AF060F97B490AF06D
:100C600069FA7B490CF0D8FE01464FF07E500AF03D
:100C7000A3F878490AF0AAF90CF000FED8F834601D
:100C80008146D4F8AC020AF04DF931460AF09EF9DB
:100C90008046D4F8A002C0EB09000AF043F93146BF
:100CA00081464FF07E500AF087F8014648460AF028
:100CB0008DF9014640460AF081F80CF0DFFD0FFA8D
:100CC0008AF8B8F1FA0F8346634E03DD4FF0FF3325
:100CD000336014E030680AF025F9814640460AF096
:100CE00021F901465D480AF067F8014648460AF0D6
:100CF0006DF95A490AF01EFA0AF02EFB3060366888
:100D000006F1FF39B9F1C60F06D8C6EB0B03C4F8DC
:100D1000B032C4F8AC622FE0D4F8B032002EC3EB8E
:100D20000B0BDFF820A1C4F8ACB225DDC6F5967038
:100D30000AF0F8F84A490AF0FDF98046CAF8B40208
:100D400030460AF0EFF841460AF040F906465846A8
:100D50000AF0E8F8414683464FF07E500AF02CF83E
:100D6000014658460AF032F9014630460AF026F8A4
:100D70000AF0F2FACAF8AC023A4B186802930AF089
:100D8000CDF8394906460AF021F98346D4F8C00265
:100D90000AF0C8F88046D4F8C4020AF0C3F8014645
:100DA00040460AF0C7F9314A079011680AF00EF977
:100DB00031460AF00BF92E4A4FF07C51D2F83CA094
:100DC000D4F8A482D4F8AC62069003920AF0FEF83C
:100DD00059460AF0FBF8594684464046CDF810C003
:100DE0000AF0F4F8DDF810C00146604609F0E6FFAD
:100DF000D4F8A81209F0E2FF51460AF0E7F883465A
:100E000030460AF08FF8514684464FF07E50CDF8B8
:100E100010C009F0D1FFDDF810C0014660460AF0AD
:100E2000D5F80146584609F0C9FF039A029BB9F16B
:100E3000C60FC4F8A80291469A461DD8014AC2F8C6
:100E4000DC601EE0000100202C05002080E6C54784
:100E5000B1DC423ED048874A400000200000614497
:100E60000000C842641D0020BD378635C005002043
:100E7000901C00205E0C00200AF06EFAB04BC3F804
:100E8000DC000699404609F099FF0346D4F8C802F1
:100E90004FF00008CAF80080C4F8B882C4F8BC82D9
:100EA000C4F8C082C4F8C482301A02930AF03AF837
:100EB000A4490AF08BF8824638460AF02FF801461A
:100EC00050460AF037F90AF047FA40F2DC529E49E0
:100ED0009042A8BF10468842B8BF08460A21C4F80D
:100EE000C86207F025FF029BD9F838608246314678
:100EF00018460AF06BF8074650460AF013F83146D8
:100F000082464FF07E5009F057FF014650460AF0E6
:100F10005DF80146384609F051FFC4F8A4020CF010
:100F2000ADFC0521064607F003FF059FDFF810B270
:100F30003BB2B3F5487FC4F8CC026BDA9BF8D032F1
:100F40000BBBDBF8D820DBF8DC308048D31AB3F5D4
:100F5000FA7FA8BF4FF4FA738342A8BF18460A214C
:100F600007F0E6FE7A4B80221B79584390FBF2F3A0
:100F7000B3F5967FA8BF4FF49673A2F5D67293424D
:100F8000B8BF134601E0DBF8D43299F80A209B1B66
:100F90005A43202192FBF1F299F81400D4F8EC1096
:100FA00042F2040603FB00106A4BB2F5967FA8BF1D
:100FB0004FF496729842A8BF1846674B9842B8BF44
:100FC0001846C4F8EC0090FBF6F0644EB242ACBF99
:100FD0008618861999F81E0009F0A4FFD4F8D812D3
:100FE0000746079809F0EAFE0146384609F0EEFF89
:100FF0004FF06C5109F0EAFF0AF0AEF96FF095037B
:101000009628A8BF96209842B8BF1846301AC4F850
:10101000F00001E0CBF8F080DDF81CA0C4F8D8A205
:101020000CE1D4F89C310133C4F89C31AB68DE0587
:1010300040F1E8804A4EB36863B94A4F3B78013BC0
:10104000042B00F2FB80DFE813F011001100110007
:10105000CC00B500B06806F0B8FC0028EDD0404BDD
:10106000986806F0ADFC03F04BFEF3E795F8449169
:10107000B9F1000F03D0B9F1010F09D097E07A78E8
:10108000394BB06803EB0213596806F094FC8BE00F
:10109000B068DFF8CC8003681B699847002800F02F
:1010A00086803B782F4E022B2CD0032B35D0012B82
:1010B0007DD12E4BD3F80090736AC3EB0903632BE9
:1010C00075D9F369042B1BDCDFF89CA0D8F8080065
:1010D0000AEB0313596806F06EFC7378D8F80880A1
:1010E0000AEB03139E6816F8011B19B1404606F07F
:1010F00071FCF8E7FB69C7F824900133FB6156E007
:10110000022052E07278184BD8F8080003EB021363
:10111000596806F050FC032047E03369012B29D0C1
:10112000022B41D0002B42D1326A114BC6F81090ED
:1011300053F8321003EBC2035B687161B36136E0B0
:10114000000100200024744924FAFFFF0CFEFFFF79
:10115000901C002020031900E0FCE6FFD4FEFFFFF6
:10116000D005002084070020C0FB0008A418002040
:10117000ACFC0008F369B269934209DA7269D8F8E5
:101180000800D15C06F026FCF3690133F3610EE040
:10119000326A7C490132326251F832200023F36115
:1011A00002B90223336102E0042003F0CDF90023E9
:1011B0007B6043E07B68052201337B607B78012004
:1011C0000133DBB2B3FBF2F202EB82029B1A7B70BB
:1011D0006D4B6E4A1B68BB60002384F8F830D372F5
:1011E0000DE0694B1A68BB68D21A40F6C4139A42E4
:1011F00024D9674B05201A6822F020021A6003F0F8
:10120000A3F91BE00023C4F89C31614B1B68D8068E
:1012100014D55D4B1A685F4B19683C318A420DD377
:101220001A605D4F5D4A5E4B5E4EC3F8DC223B8820
:101230000B20336107F0A6FB3B88736107F088FB46
:10124000AB89E06533B1564AD2F8E022821A002A0F
:10125000C1F2B981544E1844C4F8E002736853488F
:101260009847534B1A889946002A00F0C2804F498C
:101270004FF0000801F108064746B9F800B04D4BA1
:10128000BBF57A7F08D1A3F13C010A2000FB0711CE
:10129000002243F808200A61444AD05F53F808202E
:1012A000024443F8082009F03DFE33690133012B65
:1012B000336104D1002370603060B3602AE0D6F857
:1012C00000C002936146CDF810C0039009F074FD90
:1012D000029B8246184609F025FE0146504609F059
:1012E00029FFDDF810C00146604609F067FD039A4A
:1012F0000346194670601046029309F05DFD0146F1
:10130000504609F063FEB16809F058FD029BF06099
:101310003360B060DFF894A000232AF80730BBF1F7
:10132000010F0AF1500A27F80A3055D13069012817
:1013300007DD013809F0F6FD0146F06809F0FAFE14
:1013400000E000200CF0F0FC834695F80E0198B305
:1013500009F0E8FD0146584609F0F4FF60B34FF488
:101360007A73A9F800300023C4F8FC32C4F81033B3
:10137000C4F82433C4F83033C4F82C33C4F8283309
:101380002AE000BFACFC0008A4180020A80600203A
:101390002C050020B8070020AC07002040000020EA
:1013A00000010020000C014030050020E403002073
:1013B0005C0C002028040020B44B4FF47A7258F8DB
:1013C00003300A2003F5FA7393FBF2F32AF807308F
:1013D0000F21012206F020FC0237062F08F1040835
:1013E00006F114067FF449AFB9F80030013BA9F8C3
:1013F00000300023A64E06F5397006F54D72C15A2D
:101400009A5A8A1AC2520233062BF3D1A14B1B6897
:1014100013F0020300F098839F4BA04F06F23A307E
:101420005B689847388806F23A36002844D0002393
:101430001A46DFF884C2B0F5C87F04BF00214CF81B
:10144000021036F903805CF80210DFF844E24144F0
:101450004CF80210002105EB0308F1520233062B71
:10146000DFF844C2A8F8121102F10402E1D1012808
:101470001FD1DEF840334FF4C872C83393FBF2F348
:10148000ACF81231DEF84433C83393FBF2F3ACF816
:101490001431DEF84833C83393FBF2F2804B1B88DB
:1014A000D21A804BACF8162159859985014603F074
:1014B0001FFB3B88013B3B80AB687B4A59077CD5CF
:1014C000B4F8CA10724B322913D1B2F81201A3F842
:1014D0004C03B2F81401B2F81621A3F84E03A3F896
:1014E0005023704A508D928DA3F85203A3F85423D1
:1014F00001E000293DD000221746DFF8C0E1322983
:1015000004BF00234EF807305EF8070036F902C02A
:1015100005EB020860444EF807004FF0000E26F875
:1015200002E00232062A5A4B5F48A8F812E107F19E
:101530000407E2D1012919D15C4A02261670B3F8DA
:101540004C2383F8CCE0A0F81221B3F84E2383F8A3
:10155000C610A0F81421B3F85023A0F81621514A60
:10156000B3F85203B3F85433508593850139A4F886
:10157000CA1094F8C720464BFAB1D3F85803322169
:10158000002290FBF1F083F8C720A5F81201D3F8F0
:101590005C03D3F8603390FBF1F093FBF1F1404B27
:1015A000A5F814011B880120C91A3E4BA5F8161195
:1015B00001465A859A8503F09BFAB4F83A23B5F8A8
:1015C00012310027D31AA4F83A33B4F83C23B5F803
:1015D0001431BB46D31AA4F83C33B4F83E23B5F813
:1015E0001631D31AA4F83E3307F0B2F9D4F86433B5
:1015F0000646C31A1846059309F090FC2C4A07903A
:10160000D16809F0E3FC274BC4F8646393F82EA07B
:1016100006903E469846274B985F09F083FC069952
:1016200009F0D4FC0AA9C851BAF1000F4AD05046BB
:1016300009F078FC01464FF07E5009F07BFDDFF8A1
:101640008090034619464FF07E50029309F0B4FB98
:1016500057F8091009F0BAFCA9F12E010246885F7B
:10166000039209F05FFC029B194609F0AFFC039A54
:101670000146104609F0A2FB49F8070009F06CFE8C
:1016800009F10C0929F8060021E000BF2804002018
:10169000000100202C050020440500206C1D0020C6
:1016A0002C000020901C0020A8180020611D0020A4
:1016B00030050020E40300204004002058040020EE
:1016C00068040020C04BA3F13A02B25AF252BE4B5A
:1016D0000437F25E0236062E02FB02BB99469AD10F
:1016E000642303FB0BFBB94B09F108001B880AA913
:1016F0005B439BFBF3FBABF1490B1FFA8BFB07F042
:10170000E5F9BBF13B0F6BD9B14BD4F88463B3F966
:10171000000009F007FC014630464FF0010709F0D0
:1017200011FE00B90746AB4B3146D4F880035F7316
:101730000CF070F90746C4F88803D4F87C03D4F899
:1017400084A300F10046D4F88003014609F03EFC72
:1017500051468146504609F039FC0146484609F099
:101760002DFB0CF0E1FA014630460CF053F9064629
:10177000C4F88C03384609F065F88FA3D3E9002339
:1017800009F0B4F809F0C4FA0CF078F8A4F894025F
:10179000304609F057F888A3D3E9002309F0A6F8EA
:1017A00009F0B6FA0CF06AF88B4BA4F896021B68A5
:1017B0001A076DD50AA9894807F088F9B5F80C0110
:1017C00009F0ACFB4FF07E51834609F0F7FA014671
:1017D0004FF07E5009F0AEFC4FF0000A06902DE06D
:1017E000B5F80A0109F09AFB4FF07E51074609F05F
:1017F000E5FA01464FF07E5009F09CFC4FF0000ADC
:101800000646DFF8ECB138465BF81A1009F0DEFB4B
:10181000034639F90A00029309F084FB029B014652
:10182000184609F0CBFA314609F0D0FB4BF81A0004
:101830000AF1020ABAF1060FE3D165E7DFF8AC91CD
:10184000584609F5647252F81A10039209F0BEFB6B
:1018500009F5D271844631F90A00CDF810C009F0BB
:1018600061FBDDF810C00146604609F0A7FA069951
:1018700009F0ACFB039A42F81A000AF1020ABAF125
:10188000060FDBD1104607F0D9F9A9F8C40044E0EF
:10189000DFF860A10AA90AF1040007F017F9DAF8E5
:1018A0000400DAF808300146DAF80CB0029309F0C7
:1018B0008DFB029B81461946184609F087FB0146BD
:1018C000484609F07BFA59468146584609F07EFBA6
:1018D0000146484609F072FA0CF026FA00218146CA
:1018E00009F008FDA0B9DAF80400494609F022FC25
:1018F0004946CAF80400DAF8080009F01BFC49461A
:10190000CAF80800DAF80C0009F014FCCAF80C0058
:10191000334807F093F9A4F8C4003249079809F056
:1019200055FB06F10046814607F10047B4F9C400B3
:101930000E960D9709F0F6FA00F1004008F082FFCC
:101940001FA3D3E9002308F0D1FF09F0E1F90F90BC
:10195000B4F9740309F0E6FA1090B4F9760309F0CB
:10196000E1FA1190B4F9780309F0DCFA0DA91290AC
:1019700010A807F0ABF81C4B1C4E93F84430012B19
:101980003AD1144B5B7873B9D6F89C33402093FB63
:10199000F0F0181A09F0C6FA129909F00FFA09F0D6
:1019A000DBFCC6F89C03D4F89C33402093FBF0F09A
:1019B00024E000BFAFF300803B597E90A9E781404F
:1019C000399D52A246DF913F740400202C00002074
:1019D000BC050020A80600202C0500209004002053
:1019E00004000020BD378635901C00200001002037
:1019F0007C04002000000020B94B188809F092FAFE
:101A00000146129809F0D8F9B64B12901968484669
:101A100009F0D4F90146484609F08CFBD4F8A073CC
:101A200081463946129809F0C7F90146484609F03F
:101A3000CDFA0146384609F0C1F90746C4F8A003BB
:101A40001098D4F8B8920BF019FF98F8301007F0FE
:101A50006FF94844C4F8B8021198D4F8BC920BF05E
:101A60000DFF98F8301007F063F94844C4F8BC0241
:101A70003846D4F8C0920BF001FF98F82F1007F009
:101A800057F9994B059F1A6848443A441A60D4F8AC
:101A9000C432964E0133C4F8C43298F87630C4F894
:101AA000C002002B56D0D6F87C03D6F880930146AE
:101AB00009F08CFA49468046484609F087FA014603
:101AC000404609F07BF9D6F884738046394638469B
:101AD00009F07CFA0146404609F070F90CF024F94F
:101AE0000146384609F026FB8149074609F016FCF5
:101AF00018B10023A6F8A4332CE038460BF03AFFC7
:101B00007C4B196809F062FA0BF0B8FEB0F5617F02
:101B1000A8BF4FF4617008F083FE6FA3D3E90023E0
:101B200009F00EF809F0F4F80BF0E6FE724B0746E8
:101B300093F8760009F0F6F9394609F047FA0BF008
:101B40009DFEA6F8A40305E0A6F83A33A6F83C33B8
:101B5000A6F83E336B79012B0ED1B4F9A623B4F964
:101B6000E83203EB4203032293FBF2F39BB2A4F8A7
:101B7000AC33A4F8A63303E0B4F8E832A4F8AC33ED
:101B8000B4F8E432594FA4F8A833B4F8E6325A4E08
:101B9000A4F8AA3306F0DCFE584BE0651A6818601A
:101BA000821AA4F8AE2300F023FD554B196811F0FA
:101BB000080F34D0B7F8E62002F145039BB28A2B18
:101BC00029D8504B58799E4628B3B7F8F430B7F867
:101BD000C400C01A80B283B21FB2B337BCBF00F5D5
:101BE000B4739BB218B2B3289EF80D70C4BFA3F5AE
:101BF000B4739BB295F804018FB140B240424343A5
:101C0000707A1BB243436FF01D0093FBF0F31A444C
:101C1000A4F8E62003E0B4F8C430A4F8F4304B078D
:101C200040F19780374B9A79002A00F092801F7C10
:101C3000002F40F0848096F8730096F872202B4BAA
:101C400080B3B4F8E8C0B4F9E0000FFA8CFEC0EB42
:101C50000E08B8F1000FB8BFC8F1000890450FDDBD
:101C60008645C8BF52421FFA8CFCC8BF92B2C3F867
:101C7000EC706244012783F8B073A4F8E82068E0B0
:101C800093F8B0232AB1D3F8DC2083F8B073C3F8FB
:101C9000D820D4F8F030B5F8EA201844B5F8E83088
:101CA000984244E0B4F9E070B4F9E8E0C7EB0E0EF6
:101CB0008EEAEE7CACEBEE7C944525DD02229EFBA9
:101CC000F2F2C3F8D422012283F8D02283F8B023A1
:101CD00025E000BFAFF30080A2EB0FE5DD169640D4
:101CE0002C000020C8050020641D002000010020F9
:101CF0008FC2753CC4050020901C0020580C0020A9
:101D00002C050020A806002093F8B0233AB1D3F8A0
:101D1000DC2083F8D002C3F8D82083F8B003D4F8CD
:101D2000F020B5F8E8303A44B5F8EA009A4203DB0F
:101D30008242B4BF13460346A4F8E83009E0B4F881
:101D4000E42095F93D01D4F8F03000FB0323A4F81A
:101D5000E43096F876305BB1A94BDA780AB91B7992
:101D600033B1B4F8E830B4F8A4231344A4F8E8304D
:101D70008F0640F1B180A24BDA791AB91A7A002A9B
:101D800000F0AA801B7B002B00F0A680B4F9C400F1
:101D900009F0C8F89B4909F019F980460BF0ACFD31
:101DA000814640460BF034FD96F8C5A08046964F1C
:101DB000B4F92201BAF1000F5CD0B7F81E31CAF1B4
:101DC00000071FFA83FB1BB2C01A07F04FF9B84295
:101DD00003DB5045A8BF504600E03846B4F81C313C
:101DE0008344B4F920019AB21BB21FFA8BFBC01ACC
:101DF000A4F81EB1039207F039F9B842039A03DB45
:101E00005045B4BF074657461744BFB2A4F81C71EB
:101E10000FFA8BF009F086F8824638B209F082F8A2
:101E200041460746504609F0D1F8494683463846B0
:101E300009F0CCF80146584608F0BEFF734909F096
:101E400079F909F089FA4946A4F81801504609F0D1
:101E5000BDF841468146384609F0B8F80146484683
:101E600008F0ACFF694909F065F909F075FAA4F8C2
:101E70001A0131E009F056F88346B7F9200109F05C
:101E800051F841468246584609F0A0F849460346B3
:101E90005046029309F09AF8029B0146184608F052
:101EA0008BFF5A4909F046F909F056FA4946A7F856
:101EB0001801584609F08AF841468146504609F013
:101EC00085F80146484608F079FF504909F032F993
:101ED00009F042FAA7F81A014D4B1B6998474D4B80
:101EE0001A78032A13D9B4F9E600B4F9B613002816
:101EF000B8BF40426FF063031B1A994204DB00F144
:101F000064038B42A8BF0B46A4F8B6331DE0012A38
:101F10001BD86B79013B142B00F2E181DFE813F051
:101F2000C200DF01DF018000D500DF01DF01F10029
:101F3000DF01DF01DF01DF01DF01F100DF01DF0190
:101F4000DF01DF01DF017F01AD0196F9BEB0B4F919
:101F5000B613CBF1000B01FB0BFBB4F8E830B4F87F
:101F6000B493B4F8B2A32C4F4FF00008904507F19A
:101F70001007CED218B20392029308F0D3FF57F89D
:101F8000101C09F023F884460FFA89F0CDF810C030
:101F900008F0C8FF57F8081C09F018F8DDF810C061
:101FA0000146604608F00AFF84460FFA8AF0CDF831
:101FB00010C008F0B7FF57F80C1C09F007F8DDF85F
:101FC00010C00146604608F0F9FE84465846CDF838
:101FD00010C008F0A7FF57F8041C08F0F7FFDDF861
:101FE00010C00146604608F0E9FE09F0B5F90B495A
:101FF000029B21F81800039A08F10108B6E700BF18
:10200000A806002035FA8E3C000100200000204187
:1020100000000020741C0020E8050020761C002031
:1020200096F89E30042013F0020F0CBF4FF0010B06
:102030004FF0FF3B13F0010F0CBF4FF0010A4FF0C0
:10204000FF3A06F02FFDB4F8B693B4F8B4830BFB57
:1020500009FB0AFB08FA96F8A6301FFA8BFB13F06F
:10206000020F0CBF01224FF0FF32C94F584413F04A
:10207000010F1FFA8AFA82440CBF01234FF0FF338D
:10208000052002FB09F903FB08F8A7F808A006F0F1
:1020900009FD1FFA89F91FFA88F848448044A7F817
:1020A0000A801CE196F8A630052013F0010FB4F861
:1020B000B6330CBF01274FF0FF375F4306F0F2FC49
:1020C000BFB2B34B3844588109E1002006F0EAFC66
:1020D000B4F9962296F97E304FF032085343AC4F54
:1020E00093FBF8F318443880012006F0DBFC96F9E6
:1020F0008630B4F99422534393FBF8F84044788037
:10210000EDE0A44B5A781846A34B12B9B5F8EC2071
:102110000BE0B4F9E810B5F8E820B5F8EA709142A0
:1021200003DB8F42B4BF3A460A461A80827A52B124
:10213000B4F8E220ADF84020B4F8E420ADF8422035
:10214000B4F8E62009E0B4F8B223ADF84020B4F8C2
:10215000B423ADF84220B4F8B6231B88ADF8442070
:10216000ADF846308D4B00271A89ADF848205A89C2
:10217000ADF84A209A89ADF84C201A88ADF84E2067
:102180005A88ADF850209A88DB88ADF85220ADF817
:102190005430384606F086FC7D4A22F81700013795
:1021A000082FF6D17E4B7F4F93F80080B88800232C
:1021B0001946BE4641451EDA7B4F0DF1580A03EB26
:1021C000070C9CF801909CF902C00AEB490939F907
:1021D000189CDF5D0CFB09FC4FF064099CFBF9FCCB
:1021E00032F81790002908BF3846CC4422F817C0AF
:1021F00001310333DEE7D388AEF80400AEF80230D5
:10220000002306EB8301D05E91F97E1041436420E8
:1022100091FBF0F1D1520233102BF2D15FE096F82E
:102220009E20B4F8B43312F0010F0CBF4FF0010838
:102230004FF0FF3808FB03F8554F1FFA88F80420C9
:10224000A7F8088006F02EFC96F8A620B4F8B23362
:1022500012F0010F40440CBF4FF001084FF0FF385F
:1022600008FB03F838811FFA88F80520A7F80A80D0
:1022700006F018FC4044788131E0B4F8B6A3032797
:1022800006EBC70393F87E30C7F1060113F0020F87
:102290000CBF01224FF0FF3202FB0AF221F00101D4
:1022A000214413F0010FB1F8B2130CBF4FF0010934
:1022B0004FF0FF3909FB0129DFF8D4801FFA89F9B3
:1022C00028F81790384606F0EDFB484428F8170028
:1022D0000137072FD4D1B4F8E8202F4B1A80AB6810
:1022E000980631D5002006F0DDFB294F8046388066
:1022F000012006F0D7FB94F8B0307880DFF8B4E026
:1023000013B396F8C030BEF9941213F0020F96F989
:1023100086204FF0320396F97E40BEF996E218D03F
:102320004A4364420EFB04FE92FBF3F26FF031016C
:1023300092B29EFBF1F111449EFBF3FE884472447D
:10234000A7F8008010447880184B194A03F1100454
:1023500011E00EFB04F44A4394FBF3F4A04492FB17
:10236000F3F3A7F800801844EDE723F8021FA34217
:1023700002F1080220D0B3F90200B2F97810B2F8E5
:102380007A708842F1DB39B28142A8BF0146ECE79E
:102390007E000020A8060020761C002038070020C0
:1023A000C2060020BA060020C30600207C000020E0
:1023B000901C00200001002096F8C030590706D478
:1023C000824B834A93F800C0118801230FE0814BB0
:1023D0000024DE7D043E804BA01903EB4403C0B211
:1023E0001989013406F02CFF042CF4D1E8E7634589
:1023F00008D232F9130009B28842A8BF014689B257
:102400000133F4E7B5F8EA00B5F8E860431A1FFABB
:1024100083F9AB68B5F8EC4003F4804209926E4A48
:1024200003F0100B6D4BB2F90620B5F8EE705B7837
:10243000B5F834A1B5F8F0E0B5F836510192B2B272
:1024400008930597079506921FFA84F84FEA4C0CFB
:102450000023634539D00AB282425D4D02DDEA5A5B
:102460004A44EA52099F5A4AA7B1019D5545D55E93
:1024700007DD754503DB8542A8BF05461CE07546B0
:102480001AE0A54204DB059FBD42A8BF3D4613E00C
:10249000254611E0ED5EB54203DB8542A8BF054647
:1024A00000E03546D552079F019DBD4205DA069DE5
:1024B000BBF1000F18BF4546D552089A1AB9484AD1
:1024C0009D5A434A9D520233C3E7424B9B7D002BEA
:1024D00057D0444D6B79013B162B46D8DFE803F00B
:1024E0000C45451A48454522454545454522454543
:1024F0004545451A224522003B4B93F8BF301BB19E
:102500003A4B002059893AE0344B58780028F7D1EB
:10251000014634E0354C0020218906F091FE01206F
:1025200061892CE0314C0020E18806F089FE012011
:10253000218906F085FE0220618906F081FE0320D4
:10254000A18906F07DFEAB68DA071AD50420218840
:1025500006F076FE0520618806F072FE0620A1884E
:1025600006F06EFE0720E18909E0AB689B0608D5FE
:102570001E4C0020218806F063FE6188012006F0D1
:102580005FFE06F073FA1EE0144B1B78002B3DF43F
:1025900090AF05F067FBFDF78CBF012202E002223D
:1025A00000E003225FFA82F9002009F1FF330146BF
:1025B00085F8C83302F09CFA022028214A4605F02B
:1025C0002BFBFDF7EBBF17B0BDE8F08F741C0020AC
:1025D000761C0020D005002038070020A806002027
:1025E000B8040020A8180020901C00207E000020C5
:1025F000634B2DE9F04FB3F90600624B8DB0DA8CD6
:1026000090420FDBB0F5FA6F93F8254007DA811A94
:102610004C43A2F5FA6294FBF2F4643403E0C4F193
:10262000640400E06424584A93F82360B2F834113B
:1026300092F9042193F8705093F87170524293F814
:10264000243092B2049100210692059607930A461F
:102650004B4BDDF810C031F9038040F2E636CCEB8D
:10266000080303F2F31EB64503D8002BB8BF5B4244
:1026700001E04FF4FA73022ADFF814C12CD025B11F
:10268000AB42CCBFC5EB030300236426DFF804A1F3
:1026900093FBF6FE6FF0630B3AF81E900BFB0E3BBC
:1026A0000EF1010E3AF91EA00FFA89FECEEB0A0ECA
:1026B0000EFB0BFE9EFBF6FECE442CF801E0DDF88F
:1026C00014C003FB0CFE314B9EFBF3F333449BB26F
:1026D000634393FBF6F314E027B1BB42CCBFC7EBD7
:1026E00003030023DDF818E003FB0EF6ACF80460EA
:1026F000079E002BB8BF5B427343244E93FBF6F357
:102700006433DFF88090DFF890C002EB090696F89A
:1027100001A096F80BB0767D03FB0AFA03FB0BFBD6
:1027200073434FF0640E9AFBFEFA02F80CA093FB81
:10273000FEF30CF1030A0CF1060C02F80C30DDF884
:1027400010C09BFBFEFBE04502F80AB0104B05DA17
:1027500033F801E0CEF1000E23F801E00132032A44
:1027600001F102017FF474AF074DB5F836219042B4
:1027700014DBB0F5FA6FA8BF4FF4FA600FE000BFAA
:1027800038070020901C0020A81800200CFEFFFF36
:10279000E2010020600C00206E0C00201046801A20
:1027A0004FF47A714843C2F5FA62B0FBF2F24FF08F
:1027B000640CB34C92FBFCF104EB4100B0F818E060
:1027C0006FF0630000FB012204EB4101B1F91A0034
:1027D0000FFA8EF1411A4A4392FBFCFCE644A3F83F
:1027E00006E0A84BA84F5B7A002B44D0A74BB3F967
:1027F0000000A74BB3F90030C01A08F011F89EA3EF
:10280000D3E9002308F072F80022A24B08F098F9EF
:1028100008F07EFA80460AF0FBFF814640460BF046
:102820006BF88046B7F9020008F07CFB8246B7F9E6
:10283000000008F077FB4946834608F0C7FB414695
:102840000646504608F0C2FB0146304608F0B4FA8E
:1028500008F082FD49463880504608F0B7FB4146F3
:102860008146584608F0B2FB0146484608F0A6FAF1
:1028700008F072FD7880D5F80880DFF848A218F0DB
:10288000020F00F08380844B06211A88236B7C4F53
:102890001A4494F8343022630133DBB2B3FBF1F90C
:1028A00001FB193919F0FF0684F8343004965CD125
:1028B0007A4E7B4B7078B96B33F810E04FF0080B11
:1028C00091FBFBF01FFA8EFE081A7044B86390FB70
:1028D000FBF080B20392019308F024FB714908F0E9
:1028E00075FB714908F026FC81469AF8230108F02F
:1028F00019FB0146484608F069FB08F053FD9AF8B9
:102900002611B887039A019B79B37079396C33F833
:10291000100091FBFBF380B2CB1A03443B6493FBA2
:10292000FBF39BB240F6E441594340F6FF70B1FB24
:10293000F0F1BAF820014FF47A73091A5943BAF842
:102940001E0191FBF0F14A4392FBF3F37964D7E95E
:102950001201C01841EBE371C7E91201534A002389
:1029600008F040FD049E38653E63514AA38F1288EB
:102970009A4203D395F825219A4203D9002384F87B
:10298000543003E03E4B042283F8542049483C4B2A
:10299000417B94F8542001B1012118F4007F83F8A1
:1029A000551022D0444E454B96F8B8101B8801EBC9
:1029B000810618B2B04215DD324E76787EB101261E
:1029C00084F856603C4E96F8B960314401EB8101C1
:1029D000884207DD2A49022081F8560002E00221E0
:1029E00084F856100BB984F85630354E33689B0680
:1029F0000CD530498B7A0BB9CB7A23B1214BDB7ADA
:102A00000BB9012300E0002384F8573094F85610E6
:102A10001B4B022902D14C204E211DE0012904D17B
:102A20004D2153204C220B4607E093F85710012903
:102A300006D1532001464E224D2304F0F5FA4EE014
:102A400093F85510012903D1532001460246F3E7BC
:102A5000042A03D153204D210A460AE0022A03D159
:102A6000532001464D2204E0012A2DD153204D214F
:102A70004E224423E1E700BF182D4454FB210940B6
:102A8000600C0020A8060020E2010020C401002004
:102A9000F601002000806640AE040020F40400200F
:102AA000FC0400203333534000F07F45407E050096
:102AB00004050020A8010020901C00201C0100201B
:102AC0002C050020A8180020B04A107818B1322038
:102AD00001F00AFD03E083F8580005F032FFAC4B2B
:102AE0001A8812B133689F0702D4AA4B1B882BB1F6
:102AF000A94BDA6882F00802DA600FE0A74B9A78F7
:102B000012B1A54A082111615B7813B1A24B0822CA
:102B10005A61A34B1B780BB106F0DCFEAB681806BC
:102B200062D5A04AA04F1368E26D9A1A002A5BDBB7
:102B300003F543435033FB6597F860309BB97A2324
:102B40008DF82430994B0222B3F900306D20C3F187
:102B5000B40393FBF2F38DF82530FF2109AB03F0AA
:102B6000B9FF012325E0012B26D191497923B1F941
:102B700000208DF824300A2392FBF3F25A32B42A53
:102B8000A8BFB42222EAE2728DF82520B1F9022012
:102B90006D2092FBF3F35A33B42BA8BFB42323EA7E
:102BA000E3738DF82630FF2109AB032203F092FF77
:102BB000022387F8603017E0022B15D164238DF8CB
:102BC000243001238DF82530744B6D205B78FF2174
:102BD000002B18BF01238DF82630032209AB03F028
:102BE00079FF002384F860306E4B1A68636ED31A45
:102BF000002B11DB694B597B61B99970664BD96821
:102C000081F00801D96002F5F423674A03F5907357
:102C1000536601E001229A700027D4F86821624BC4
:102C20009742DFF8A4A180F2358703F168014C20B8
:102C300000FB07115F4A11609AF80010914619B124
:102C400002F058FE00F026BF93F8003113B15A4A43
:102C50005A4BDA60D9F80030DFF858A1186804F050
:102C6000B4FE002800F01387DAF80030186804F08A
:102C7000A7FEDAF8003093F84920C2B9B0F1240178
:102C80004A424A4183F84920002AE3D1434B5B780A
:102C9000002BDFD1232802D102F02CFEDAE795F8D1
:102CA000C9338342D6D1464A464B1A60CFE7012A40
:102CB00005D14D2814BF0022022200F0E4BE022AF2
:102CC00005D13C2814BF0022032200F0DCBE032AF9
:102CD0000DD140284FF0000200F2D58683F847203E
:102CE0005A7183F848001871042200F0CCBE042AFF
:102CF00007D11A7983F8460050401871052200F078
:102D0000C2BE052AA6D193F8481093F847209142F5
:102D1000197907D941401971511C83F847101344A0
:102D2000987197E7814240F0AB8693F84630752B57
:102D300000F02A8400F21181692B00F0738300F205
:102D4000C280452B00F07D8640D8422B00F03686AD
:102D50000CD8402B00F05886412B40F0888600208C
:102D600004F06AFE4FF0000A00F05FBE432B00F053
:102D7000F985442B40F07B86002004F05DFE0A4B71
:102D8000012283F8002100F076BE00BF611D002003
:102D90006C1D00205C0C0020000C0140A8060020E7
:102DA000540C00205C010020600C0020C4010020B5
:102DB00094030020440000200400FA0500ED00E028
:102DC000EFBEADDEF04F0020741D0020662B00F03A
:102DD00096826CD8642B00F06382652B40F04786A6
:102DE0000B2004F029FED84BDFF888A3B3F90000CC
:102DF00004F025FEBAF81E0100B204F020FE33688C
:102E0000C3F3C000C3F38002800040EA4200C3F372
:102E100040021043C3F3401240EAC20003F0100323
:102E2000184304F00CFEC94A002092F804E0D3785D
:102E30004FEA8E0E4EEA430E53784EEA030E937914
:102E40004EEAC30E53794EEA431E537A4EEA831E6E
:102E5000BF4BD9794EEAC11E197A4EEA012E597A32
:102E60004EEA412ED1794EEA812E117A927A4EEABB
:102E7000C12E4EEA023E5A7B9AF81C114EEA423E9F
:102E80009A7B4EEA823E1A7C4EEA024E1A794EEA4C
:102E9000021E5A7C4EEA424E9A7C4EEA824EDA7C00
:102EA0001B7D4EEAC24E4EEA035E034610E2672BDC
:102EB00000F06582682B40F0DA85102004F0BCFD3C
:102EC0004FF0000AA3E26F2B00F0268324D86C2B6E
:102ED00000F0D68218D86A2B00F0B4826B2B40F039
:102EE000C685DFF890A2052004F0A6FDBAF92201FC
:102EF00004F0A5FDBAF9240104F0A1FD9AF8060139
:102F000000F0010000F060BC6D2B00F0C8826E2B59
:102F100000F0D08200F0ABBD722B00F0D68311D848
:102F2000702B00F01983712B40F0A185DFF844B2BB
:102F30004FF0000A9BF81C01400000F0FE0004F076
:102F40007BFD5FE3732B00F00684742B40F08F85CC
:102F50004FF0000A4FF0010B78E3CE2B00F086848F
:102F600044D8C82B00F094802BD8782B00F017821F
:102F70000FD8762B00F0FE83772B40F07885DFF8B2
:102F8000F4A14FF0000B9AF81C0104F055FD5346D4
:102F900093E3A02B00F09584A42B40F06885DFF824
:102FA000D4A14FF0000B9AF8260180000130C0B286
:102FB00004F042FD9AF8260104F011FD534600F09A
:102FC0008EBCCB2B61D009D8C92B75D0CA2B40F051
:102FD0004E85DFF8A8A10AF10A0B90E0CC2B00F097
:102FE000D180CD2B00F0388400F041BDD42B00F00F
:102FF000F28116D8D12B00F0EA8307D8CF2B00F04E
:10300000E480D02B00F01F8400F031BDD22B00F003
:103010003281D32B40F02B8505F00CFD4D4B1880F1
:10302000CEE0F02B00F0418410D8D62B00F01681B2
:10303000EF2B40F01C8505F0FDFCDFF83CA1AAF861
:103040002C0005F0F7FCAAF82A00B9E0FA2B00F0F2
:103050001584FE2B40F00B85082004F0EDFC3E4B60
:103060003E491B683E4AB3FBF1F3C3EB431003EB4D
:1030700080033C484FF0000A00689346B0FBF1F132
:1030800001EBC303D38000F006BC4FF0000A47E019
:103090004FF0000A05F0CEFC334B23F80A000AF18A
:1030A000020ABAF1100FF5D1002004F0C5FC2F4B35
:1030B00001221A7000F0DFBC05F0B2FC234BDFF8F0
:1030C000C0A0D87205F0ACFC294B187005F0BCFC10
:1030D000CAF8000005F0B8FCCAF8040005F0AAFC24
:1030E000DFF890A0AAF8020105F0A4FC9AF80631D6
:1030F000AAF8040143F002038AF8063160E005F003
:103100008FFC0AF1010A8AF8010005F089FC8AF8AF
:103110000B0005F085FCDA458AF81500EFD14FE089
:10312000144B93F81C2192454AD203F207131AF864
:1031300003B005F07FFC104B0AF1010A03EB4B03CF
:10314000A3F84600ECE700BFAE040020A80600206C
:10315000A8010020F40100201400002040420F00CC
:10316000BA060020900000203807002058010020F7
:10317000F8010020600C0020901C00208F1C002013
:103180001002002005F04CFCDFF854A48AF81F0060
:1031900005F046FC8AF8200005F042FC8AF823007E
:1031A00005F03EFC8AF8240005F03AFC8AF8250078
:1031B00005F036FC8AF8210005F032FC8AF822007E
:1031C000002004F039FC00F056BC05F033FC6FF42D
:1031D000AF628318DFF8D4A3C62B98BFAAF83401D6
:1031E00005F028FCAAF8E80005F024FCAAF8EA009B
:1031F00005F020FCAAF8EC0005F01CFCDFF8E0B3B9
:10320000ABF8BA0005F00CFC8AF8440105F008FCA4
:103210008AF8450105F004FC8AF8460105F000FC37
:103220008AF8220105F0FCFB8AF83E0105F0F8FB64
:1032300005F000FC00EB80004000ABF8280005F032
:10324000EFFB8AF8230105F0EBFB8AF8250105F076
:10325000E7FB8AF8240105F0E3FBB1E74FF0000A31
:1032600005F0E8FBCF4B23F80A000AF1020ABAF195
:10327000100FF5D1A4E7CC4B5B78002BA0D105F063
:10328000CFFBCA4B022883F8C8034FF0000088BF69
:103290000022014688BF83F8C82301F029FC8FE78C
:1032A0000720DFF808A304F0C7FBE72004F097FB32
:1032B0009AF8050004F093FB002004F090FB9AF8C4
:1032C0003C01BB4BBB4A00280CBF10461846CBE361
:1032D0008B420ED2B84A13F802C0012202FA0CFC4B
:1032E0001CEA0E0F18BF9A4003F1010318BF1043E8
:1032F000EEE704F0AEFBAD4B93F8C80364E2122096
:1033000004F09AFBAD4BDFF8DCA21B88B3F5806FAD
:1033100028D94FF0000B3AF90B00082390FBF3F08B
:103320000BF1020B04F08BFBBBF1060FF3D1DFF8BE
:10333000B8A2BAF9000004F082FBBAF9020004F066
:103340007EFBBAF90400DFF8A4A204F078FBBAF916
:10335000000004F074FBBAF9020004F070FBBAF943
:1033600004004EE3BAF9000004F069FBBAF9020068
:1033700004F065FBBAF9040004F061FBD7E7102004
:1033800004F05AFB4FF0000A8D4B13F80A000AF1C3
:10339000010A04F024FBBAF1100FF5D16BE33820D9
:1033A00004F04AFBDFF838A20AF1400BBAF97800C2
:1033B00004F045FBBAF97A0004F041FBBAF97C004D
:1033C00004F03DFB0AF1080A9AF8760004F007FBC6
:1033D000DA45EBD14FE3002004F02EFBDFF800A22A
:1033E0000AF1400B05F026FBAAF8780005F022FB55
:1033F000AAF87A0005F01EFBAAF87C0005F010FB85
:103400000AF1080A8AF87600DA45EBD133E36D4B0E
:1034100013F80A000AF1010A04F0E1FABAF1100FF8
:10342000F5D128E3102004F007FB4FF0000A664BAB
:1034300033F90A000AF1020A04F001FBBAF1100F95
:10344000F5D118E3102004F0F7FA574BDFF8A0A1EC
:10345000D87A04F0C4FA5D4B187804F0C0FADAF8B0
:10346000000004F0F6FADAF80400DFF888A104F0AE
:10347000F0FABAF9020104F0E2FABAF90401BCE286
:10348000DFF874A1062004F0D7FABAF9000004F0BE
:10349000D6FABAF9020004F0D2FA4D4B07E0062042
:1034A00004F0CAFA4B4B186804F0D3FA4A4BB3F94C
:1034B0000000A6E2DFF83CA1072004F0BDFABAF84C
:1034C0003C004FF6FF7BFF28A8BFFF20C0B204F0EE
:1034D00086FADAF850005845A8BF584620EAE0704E
:1034E00000B204F0ACFA3D4BB3F9000004F0A7FAC7
:1034F0002E4BDAF8440093F822310028B8BF40423E
:103500002BB10A2358435845A8BF584602E05845F6
:10351000A8BF584600B274E2DFF8C4A0072004F048
:103520008BFA9AF81F0004F05AFA9AF8200004F077
:1035300056FA9AF8230004F052FA9AF8240004F09C
:103540004EFA9AF8250004F04AFA9AF8210004F09D
:1035500046FA9AF8220037E11E2004F06DFADFF8EF
:103560009CA00AF10A0B0AF1010A9AF8010004F082
:1035700036FA9AF80B0004F032FA9AF8150004F0C3
:103580002EFADA45EFD176E22F2004F055FADFF873
:1035900070A01AF8010F002800F06D8204F01FFAE5
:1035A000F7E700BFB8040020A8060020A8180020F4
:1035B0000C0000C0040000C0670D00202C0000209B
:1035C0007E000020761C002038070020F801002033
:1035D000C4010020DC010020CC030020BE0100203B
:1035E000901C002074040020A8040020A4020020E5
:1035F00010020020600C0020940300208F1C00208B
:10360000830101089BF81C319A4580F03482C54B38
:103610001AF80320C44B0AF1010A03EB4203B3F981
:10362000460004F00CFAEDE7824408F10108BF49B6
:1036300091F81C0180450CDBBBF1000F00F01B82F0
:103640005FFA8AF004F0F8F94FF0000B4FF0000831
:10365000EDE701F20711B64818F801104FF00C0E13
:103660000EFB0101496B0846049109F088FE84466F
:10367000BBF1000FD8D159466145D6DA049A505CA7
:103680000291CDF80CC004F0AAF90299DDF80CC043
:103690000131F1E7A74AA3495244127A1BF801000D
:1036A000904203D1019304F09AF9019B0AF10C0AAC
:1036B000BAF1FC0FEED10BF1010B93F81C219345ED
:1036C00080F0D9814FF0000AE4E7DFF890A21620DD
:1036D00004F0B2F9BAF9340104F0B1F9BAF9E8002A
:1036E00004F0ADF9DFF840B2BAF9EA0004F0A7F946
:1036F000BAF9EC0004F0A3F9BBF9BA0004F09FF9A1
:103700009AF8440104F06BF99AF8450104F067F95E
:103710009AF8460104F063F99AF8220104F05FF97F
:103720009AF83E0104F05BF9002004F058F9BBF967
:1037300028000A2390FBF3F004F081F99AF82301A2
:1037400004F04DF99AF8250104F049F99AF824019A
:1037500004F045F937E0082004F06EF94FF0010A53
:103760005FFA8AF00AF1010A04F039F9BAF1090F97
:10377000F6D180E105F054F903461220019304F0DC
:103780005BF9019B0BB96C4A02E0102B05D16B4A27
:10379000D2F800B0D2F804A002E04FF0000AD346FD
:1037A000184604F01CF9584604F053F9504604F04A
:1037B00050F9634B186804F04CF9002004F03FF90D
:1037C000002004F03CF9002004F009F953E105F071
:1037D00027F9834605F038F9039005F035F9019093
:1037E00005F032F9824605F025F905F023F905F0D8
:1037F00017F9039A019BBBF1000F0FD14E4981E8E5
:103800000C00504B012283F807B01A73BAF1000F75
:103810003FF4D6AC4A4BC3F800A0D1E4BBF1100F83
:103820007FF4CEAC454981E80C00BAF1000F02D01C
:10383000434BC3F800A04148434B0222011D1A70BC
:1038400004F0FAFCBCE43F4B5B78002B7FF4B8AC8F
:10385000012006F0F5FBB3E43A4B5B78002B7FF4D4
:10386000AFAC3A494FF4C8730B80A9E4354B5A7892
:10387000002A7FF4A5AC01229A73A1E4314B93F89E
:1038800001A0BAF1000F40F0F2805046012101F092
:103890002FF9504695E43BF90A000AF1020A04F0B8
:1038A000CEF8BAF1080FF6D1E5E0DFF87CA00420ED
:1038B00004F0C2F8BAF92C0004F0C1F8BAF92A00F1
:1038C0009FE00C2004F0B8F8214B186804F0C1F810
:1038D000204B186804F0BDF81F4B1868C4E093F83B
:1038E0002621934580F0C780DFF874A01AF80B00FA
:1038F000019304F074F80AF1100212F80B0004F0BE
:103900006EF80AF1200212F80B000AF1300A04F0F6
:1039100066F81AF80B0004F062F80BF1010B019B3A
:10392000DDE700BF670D0020901C0020600C002028
:1039300084010108B4010108FC01002008020020F4
:10394000D8010020A8060020040200206C1D0020E1
:10395000E8F7FF1FECF7FF1FF0F7FF1FA818002084
:10396000870D0020002004F067F805F059F8DFF813
:1039700058A10023CAF808308AF8050005F064F859
:10398000DAF808301843CAF8080005F049F88AF850
:103990002F0105F04FF8AAF8FE0005F04BF8AAF841
:1039A000000105F047F8AAF8020105F043F8AAF86B
:1039B0001E0105F03FF8AAF820015CE0DFF808A13D
:1039C000102004F039F89AF8050004F008F8DAF845
:1039D000080004F03EF89AF82F0104F000F8BAF954
:1039E000FE0004F02CF8BAF9000104F028F8BAF946
:1039F000020104F024F8BAF91E0104F020F8BAF923
:103A0000200104F01CF836E0082004F015F84FF00F
:103A1000000A2D4B534493F827010AF1010A03F0E1
:103A2000DEFFBAF1080FF4D125E004F0F9FF264BD0
:103A300053440AF1010ABAF1080F83F82701F4D1BF
:103A400019E0132003F0F8FF4FF0000A1F4B13F8A2
:103A50000A000AF1010A03F0C2FFBAF10B0FF5D117
:103A6000002003F0F6FF002003F0F3FF03E0012045
:103A7000002103F0C3FFD9F80030187903F0AFFF3D
:103A8000D9F80030002283F84920FFF7E3B8013766
:103A9000FFF7C3B89AF8003023B133689B0600F1F2
:103AA0009E82B3E2AA68084B1705F6D5084A127839
:103AB000002AF2D093F85321AAB993F854315BB994
:103AC000044B5B780AE000BFA818002092100108A0
:103AD000540C0020A8060020D24A137D003318BFE2
:103AE0000123002BD9D095F85231002B40F0828170
:103AF000CD4BD86803F069FF002840F07B81CB4FA5
:103B0000D4F86C113A68CA4B511A7C29B84640F275
:103B10007181C3F86C2193F870210746013283F854
:103B2000702107F12400C0B203F0F6FFC14B33F956
:103B3000170007F0F7F9C04B8246188807F0F2F932
:103B40000146504607F0F6FABC4907F03FFA07F085
:103B500003FC013700B204F00BF8032FE1D1302051
:103B600003F0DAFFB64BB3F9000004F001F803F0FC
:103B7000E1FF94F8700110F0030B2CD1DFF8D0A214
:103B8000102003F0C9FFDAF80030642793FBF7F048
:103B900000B203F0EDFF212003F0BEFFDAF80030A1
:103BA00093FBF7F007FB103787EAE770A0EBE770AD
:103BB00000B203F0DDFF142003F0AEFFA14BB3F918
:103BC000000003F0D5FF1C2003F0A6FF584603F0C9
:103BD000CFFF03F0AFFF94F87031954F580740F0D6
:103BE000E380022003F098FFB7F972014FF00A0A50
:103BF00090FBFAF003F0BCFFAB68990760D5BB8F70
:103C00004FF06E0B0BFB03FB15239BFBF3FB3A20E2
:103C100003F082FF1FFA8BFB6422BBFBF2F90FFA61
:103C200089F0039203F0A4FF3B2003F075FF039A91
:103C300002FB19B080B20530DFF818B290FBFAF041
:103C400000B203F095FF9BF80030BA8F40F63401C4
:103C500092FBF3F24A432A21B2FBF1F2B7F8741156
:103C600091FBF3F003FB10131B019BB243EA022309
:103C70009BB2C2F3032243EA0209062003F04CFF81
:103C80000FFA89F003F074FFB7F874219BF8003045
:103C9000013292B292FBF3F103FB11232820A7F823
:103CA000743103F039FF786C90FBFAF000B203F046
:103CB0005FFF042003F030FFB7F9500003F058FF16
:103CC00033689A066ED5DFF890A15F4FDAF80030BE
:103CD0003C2183EAE37CACEBE37C5C4B13209CFB54
:103CE000F3F207FB02CC01FB0CF9029199FBF3FB09
:103CF0000193039203F010FF039A02EB820202EB9E
:103D000082020BEB820007FB0B9B00B203F030FF3B
:103D10004FF47A791B2003F0FFFE9BFBF9F000B211
:103D200003F026FF232003F0F7FEDAF80020002A34
:103D3000ACBF4E20532003F01BFFDAF80420019B98
:103D400082EAE27BABEBE27B9BFBF3F207FB02BB7D
:103D50000299122001FB0BF1039291FBF3FB0291FC
:103D600003F0DAFE039A02EB820202EB82020BEB13
:103D7000820000B203F0FCFE1A2003F0CDFE02998F
:103D800007FB0B1191FBF9F000B203F0F1FE2220CA
:103D900003F0C2FEDAF80430002BACBF45205720F8
:103DA00003F0E6FE03F0C6FE94F87031282B21D113
:103DB0001F4B0022D8F8007083F870214FF47A73FB
:103DC000B7FBF3FA17203C2703F0A6FEBAFBF7F97E
:103DD000B9FBF7F007FB1090000200B203F0C8FE39
:103DE000182003F099FE07FB19A000B203F0C0FEF3
:103DF00003F0A0FE95F85231012B7FF44EAE0A4D30
:103E0000E86803F0E2FD00283FF447AEE86803F0FD
:103E1000D7FD0746052004F0C0FD8A2F4BD08E2F1A
:103E2000EDD11BE0A8010020D0050020A41800203F
:103E3000600C0020740400202C00002000007A4454
:103E4000CC030020C4010020806967FF80969800A1
:103E5000AC030020280000201002002000212E22A8
:103E60006E4809F06AFA7C2384F8A231E02384F8D2
:103E7000A5317D2384F8CE31A38F84F8A371DAB203
:103E80001B0A84F8C13184F8B731142384F8BA319D
:103E900084F8BB314FF4FA73A4F8BC314823A4F87A
:103EA000C431782384F8C02184F8B62184F8C6315F
:103EB0005A482E2190E033689B06A0D5584D00212A
:103EC00005F5BB702C2209F038FA7C2384F8763192
:103ED000A02384F879317D2384F8A131514B84F8F3
:103EE00077711B7884F890314F4BDB7A002B6ED0C2
:103EF0004E494F4A0F68DFF850C197FBF2F0662336
:103F0000C0B285F89F31FB0F0CFB00774FF0060E17
:103F10000EFB07F785F87F3142F21073B7FBF3F918
:103F200000EB800003FB197749685FFA89F900EB21
:103F3000800009EB800080B291FBF2F2D2B285F8EA
:103F40008001000A85F88101C80F0CFB02110EFBED
:103F500001F185F8840102EB8202B1FBF3F003FB6F
:103F6000101302EB8202C0B200EB820292B285F81B
:103F70008521120A85F8862185F88731B5F8042154
:103F80001B0A85F888316423B2FBF3F303EBC30308
:103F90009B009BB285F87D311B0A85F87E31B5F810
:103FA000223185F8827185F889311B0A85F88A31BA
:103FB000B5F802313F0A85F88B311B0A85F88C3140
:103FC000B5F8243185F8837185F8923102E0202319
:103FD00085F89F3117482C2104F0BCFA0FE7164EE4
:103FE000D4F8D02133689A1A002A0FDB0D4A1278D0
:103FF000042A0BD90A4A03F5123303F5F873C2F801
:10400000D0310E4BDA6882F01002DA600C4B9B68FC
:104010000BB10C4898470DB0BDE8F08F020E0020A0
:10402000600C0020F8010020A806002010020020EB
:10403000A0860100D60D00205C010020000C01408C
:1040400030050020D20D00206079FEFFAFF3008024
:10405000894B2DE9F04FB3F90220B3F90030002A63
:10406000B8BF5242002BB8BF5B429A42B8BF1A4653
:10407000824B8BB0D8781B7902920193804B6FF002
:104080000401B3F8103103905A4204937D4B05921A
:104090001A7F1C7A51439B7C02EB82020993002316
:1040A0000691089207941A461F461D461946039E1C
:1040B00016B9019800283FD0022937D06E48059CD8
:1040C000175E7148105E00EB4707A74204DB049EB1
:1040D000B742A8BF374600E0059F6C48DDF81C904A
:1040E000105EDDF818C03F1A66481044B0F92A4047
:1040F0006420274409FB07F595FBF0F5654504DBD3
:1041000008988542A8BF054600E0069D604C1859F6
:10411000384442F21077B842A8BF38465D4FB842E3
:10412000B8BF38461851099C60430713039E1EB15F
:10413000019808B902295DD1524C4F4801EB040C9B
:10414000554C105E32F90480544C88EAE879A9EBAA
:10415000E879B9F5207F9CF801A053F804B01FDC82
:10416000022916D04FF0500909FB00F999FBFAFA21
:10417000C8EB0A0AD344DFF83091BBF57A5FA8BFD9
:104180004FF47A5BCB45ACBF44F803B044F80390DE
:104190000AE080EAE079A9EBE079B9F1640FE1DDAA
:1041A0004FF0000844F803803C4C019E53F8048013
:1041B0007D2498FBF4F49CF80B8008FB04F4A41114
:1041C000A6B1022918D0DDF808904FF4FA7C09FB5B
:1041D00000F009FB04F4C9F5FA7808FB050008FBB8
:1041E000074490FBFCF094FBFCF405E0039E1EB139
:1041F000022901D03C462846DFF89CC0DFF8AC809D
:1042000032F80CC011F808A00FFA8CF90AFB09FA71
:104210006FF04F089AFBF8FADFF89480824432F985
:10422000080022F808C008F1080C08F11408C0EBD7
:10423000090053F808B053F80C9043F80C00CB4435
:104240008344174843F80890085C013100FB0BFBDE
:1042500020209BFBF0FBCBEB040B124CDA44032930
:1042600022F804A003F1040302F102027FF41FAF5D
:104270000BB0BDE8F08F00BFE2010020A8060020CF
:10428000A8180020901C0020180200209403002091
:10429000D0010020F0D8FFFFA8040020D0040020A7
:1042A000740C0020B204002080C1FFFF6E0C0020BF
:1042B000380E00202DE9F04F534B544993F8242039
:1042C000B1F904101B324A4389B052110292504A8C
:1042D00093F82310D778127993F8088005929A7C86
:1042E0004C4B06921B884FF6FF7201931B0900246A
:1042F0001B31B2FBF3F20397049107922546264641
:10430000022E32D0414B444A35F90390434B444985
:10431000EB5EAA5E4B44B3F5FA7FA8BF4FF4FA7385
:104320008B42ACBFC2EB0303C2EB0103364A2A4403
:10433000B2F92A00184406F0F5FD3A4906F0FAFEF3
:1043400007F00AF8039B5BB9049F059A09FB07F97C
:104350004FEA29195AB1069B584309EB202906E078
:1043600008FB00F04FEA201901E0DDF808902E4B21
:10437000019FE85E2449C0EB090007FB00F3DFF86A
:10438000B8C0314454F80C2091F80BA0DB120AFBA2
:104390000323264AB3F5001FA8BF4FF4001393422E
:1043A000B8BF1346224A44F80C30A75891F8019040
:1043B000C7EB000C079FA05007FB0CFC09FB00F9A2
:1043C00002F10C00183254F800A054F802B04FEA81
:1043D000AC1C44F802A0D3444A7DE34402FB0BF238
:1043E000121202EBE9121349013602EB6333032E7A
:1043F00044F800C06B5204F1040405F102057FF497
:104400007FAF09B0BDE8F08F901C0020E2010020D2
:10441000A8060020AE04002094030020180200200B
:104420000CFEFFFF00002041A80400200000E0FF78
:10443000580E0020B2040020D004002070B5064CB5
:104440004FF480550E46656104F0E6FE304604F0F8
:10445000E3FE256170BD00BF000C01401E4B13B58B
:104460001B680446012B0EDD4FF40053ADF80430F9
:1044700002238DF80730042318480DEB03018DF853
:10448000063004F094FA80216B20FFF7D7FF6420F8
:1044900004F083FA00216B20FFF7D0FF642004F0C2
:1044A0007CFA6B200121FFF7C9FF1B201821FFF7C1
:1044B000C5FF1C201021FFF7C1FF094B1A201978F6
:1044C000FFF7BCFF19200021FFF7B8FF0CB1054B27
:1044D0001C7002B010BD00BF681D0020001001401C
:1044E0004C0000205500002038B5124B124D1A78B0
:1044F000124C296852B922683232914219D30120F4
:10450000187004F01EFA2B68236038BD226802443C
:1045100091420ED30020187004F013FA2B68236028
:10452000074B1A780AB1013A1A70064B01221A7029
:1045300038BD38BDB80C0020A4180020B8110020E8
:10454000611D0020BC1100200449054B09680022B0
:104550001870DA6159621A62704700BFA41800200F
:1045600084070020826A8169436B1144D960416AE3
:10457000914203D98A1A5A60816204E001698A1A59
:104580005A6000228262002280F844201A6842F0B9
:1045900001021A60704770B504682A4D037BAC4273
:1045A0000DD0B4F1804F0CD0A5F59435AC420AD0B3
:1045B00005F58065AC4214BF0424032404E0002404
:1045C00002E0012400E0022433B1042B33D0082B95
:1045D00033D00C2B0DD132E01D46042C09D01A4EDD
:1045E00005EB840406EB0414E26484F8483084F894
:1045F0005010027B03680C2A23D8DFE802F0072260
:1046000022220C2222221122222216009A8992B200
:1046100042F002020DE09A8992B242F0040208E0F0
:104620009A8992B242F0080203E09A8992B242F06B
:1046300010029A8170BD0125CFE70225CDE7032541
:10464000CBE770BD002C0140380E0020134B0268F0
:1046500010B51C68D1430C401C605C682140596057
:1046600019680A431A6002689C68D1430C409C6038
:10467000DC682140D9604179102906D1996811433D
:104680009960D9680A43DA6010BD01F1804303F5EF
:10469000823319680A431A6010BD00BF000401404C
:1046A000254B10B55343254A254C12680139B2FBFE
:1046B000F3F20388013AA04289B292B29BB212D0BF
:1046C00004F50064A0420ED0B0F1804F0BD0A4F5E9
:1046D0009834A04207D004F58064A04203D004F5CA
:1046E0008064A04202D123F070039BB2154CA0421B
:1046F00006D004F58064A0421CBF23F440739BB233
:1047000003800F4B8185984202850FD003F500632B
:1047100098420BD003F54063984207D003F58063BD
:10472000984203D003F58063984201D100230386A9
:104730000123838210BD00BF40420F009000002083
:10474000002C0140001000400A88F0B54B880E890B
:10475000CD88002A3AD1048C834A24F00104240431
:10476000240C0484018B048C89B221F0F30141EA0A
:104770000616B6B29042A4B246F0010643F0010319
:1047800015D002F50062904211D0B0F1804F0ED0EA
:10479000A2F5983290420AD002F58062904206D08B
:1047A00002F58062904218BF24F00A0401D124F07F
:1047B0000204234306830384038B23F00C031B04AE
:1047C0001B0C0383038B9BB21D4345E0042A8F8897
:1047D00044D1048C644A24F010042404240C04847E
:1047E000018B048C21F440710905090D41EA06365C
:1047F000B6B246EA07279042A4B2BFB212D002F581
:10480000006290420ED0B0F1804F0BD0A2F59832EA
:10481000904207D002F58062904203D002F5806298
:10482000904207D124F0200444EA03139BB243F0E2
:10483000100304E024F0A00443F010032343078393
:104840000384038B23F440631B041B0C0383038B3F
:104850009BB243EA0525ADB20583F0BD082A018C61
:104860003ED121F480710904090C0184818B3E4AF8
:1048700089B221F0F301048C41EA0616B6B29042E7
:10488000A4B246EA070712D002F5006290420ED0A9
:10489000B0F1804F0BD0A2F59832904207D002F5CC
:1048A0008062904203D002F58062904207D124F4E6
:1048B000007444EA03239BB243F4807304E024F4BD
:1048C000206443F48073234387830384838B23F022
:1048D0000C031B041B0C8383838B9BB21D4341E0A1
:1048E00021F480510904090C0184828B048C22F488
:1048F00040721205120D42EA072242EA06361A4AAF
:10490000A4B29042B6B212D002F5006290420ED02C
:10491000B0F1804F0BD0A2F59832904207D002F54B
:104920008062904203D002F58062904207D124F465
:10493000005242EA033292B242F4805205E047F656
:10494000FF52224043F480531A4386830284838BB0
:1049500023F440631B041B0C8383838B9BB243EAC9
:104960000525ADB28583F0BD002C01401FB50123A4
:10497000ADF808300023ADF80A30074BADF804104D
:104980001B7801A9ADF80620ADF80C30FFF7DCFE6E
:1049900005B05DF804FB00BFDB06002070B5164AC9
:1049A00004011319D8791646144D38B9012219811A
:1049B000DA712B192859197B022219E01A895981B9
:1049C000891A89B2A1F2EF2080B240F2DA52904205
:1049D000998107D898790A4B03EB4003A3F8441157
:1049E00004F03CFC2B19264400222859197BF27153
:1049F000BDE87040BAE700BF14120020D80E0108CD
:104A0000380E002030B5002213460D495C5C9CB185
:104A10002E2C04D1013378B11C1800250D550A2421
:104A20006243C95CA1F13004092C9CBF303A521892
:104A30000E2B03D80133E8E7104630BD002030BD0F
:104A40008F0F0020264BF0B51D6800222549505CD1
:104A500054182B185E7806F0040606F0FF0376B1B2
:104A60000132102AF2D10020F0BD1BB103EB830309
:104A70005B00DBB211F8012B303A1344DBB2621A4F
:104A8000022AF2DC00228C420AD91AB102EB82021D
:104A90005200D2B211F8016B303E3244D2B2F2E78A
:104AA0002E280FD10134042000210A2671432678D4
:104AB000AF197F787F0702D530390134314401388E
:104AC000F3D100E00021084806244243642000FBA3
:104AD00001210648B1FBF4F100FB0310F0BD00BF5B
:104AE000940000208F0F002040420F008096980015
:104AF000444B2DE9F74346221A704FF473725A80E3
:104B0000BE221A71EF2283F8CA230022074683F8D7
:104B1000CB231E4649B193F8C803D02202FB0030D4
:104B2000394900F5AC7008F0FFFB00221346B15C78
:104B30000132B2F5737F83EA0103F8D1314A4FF0B5
:104B4000030882F8CB33314B314A5A6002F1883284
:104B50005A602E4B3422DA602E4802F00EFD2E48A9
:104B600002F00BFD2D4C04282FD12D4B321953F898
:104B700002904FF400500023019302F0EDFC042852
:104B80001DD1224D4FF400502B6943F001032B61DE
:104B90001FFA89F324F8023C02F0DEFC042809D154
:104BA0000194019B4FEA1949A3F800904FF400507B
:104BB00002F0D2FC2A6941F6FE7313402B61194BB7
:104BC00004349C42CFD1042802D0B8F10108C0D1EE
:104BD0000E4B04281A6942F080021A6102D104F0D7
:104BE000CFF810B90A2002F0CEFF02F0EFFF04F078
:104BF000A1FA27B10F201421012203F00DF803B010
:104C0000BDE8F083A8180020901C0020002002407E
:104C10002301674500F8010800FC010802F80108BB
:104C2000FE07FEF7CEFB010830B587B005460C46FF
:104C300003A800210C2208F080FB2846002106F082
:104C400081FB20B128462A4906F0B8F803E028463F
:104C5000274906F0B1F8274906F0B8F906F07CFBC1
:104C6000054685EAE570A0EBE57069460A2204F086
:104C70003FF900239D420370ACBF20232D236846DB
:104C80008DF80C3008F07BFB012807D130238DF81C
:104C90000D308DF80E308DF80F300CE0022805D164
:104CA00030238DF80D308DF80E3004E0032804BF5A
:104CB00030238DF80D30694603A808F046FB03A8A1
:104CC00008F05DFB0338C5B22A4603A9204608F068
:104CD00081FB002363552046074908F036FB03A9F2
:104CE0002046294408F031FB204607B030BD00BF04
:104CF0006F12033A00007A44EE1101080000000030
:104D00002DE9F04F9B4B95B093F84431C4B2012B81
:104D100000F0E78002D3022B40F0C885242C964D8A
:104D20000CD006D80A2C00F08C800D2C00F0898065
:104D3000C3E02A2C07D02C2C05D0BEE000232B701A
:104D40006B70AB70CAE06A782E782A4400218A4BD7
:104D5000D170EEB9DA789E74472A19D11A79502A9F
:104D600016D15A79472A07D19A79472A04D1DA7994
:104D7000412A01D101229A746A797F4B522A07D1C4
:104D80009A794D2A04D1DA79432A04BF02229A740F
:104D9000AB7C794F012B02D0022B33D046E0B31EFF
:104DA000072B43D8DFE803F0040810141C24422921
:104DB000FFF748FE686139E0EA786F4B532A35D136
:104DC0005A6952425A6131E0FFF73CFEA8612DE07A
:104DD000EA78694B572A29D19A6952429A6125E0AB
:104DE000EA78664B302A94BF00220122DA721DE075
:104DF0000020FFF707FE287718E00020FFF702FEEB
:104E0000E88313E0072E06D0082E0FD10120FFF70C
:104E1000F9FD78840AE00120FFF7F4FD41F2184320
:104E200058434FF47A72B0FBF2F33B84013600230F
:104E30002A2C514A2E706B704BD1012182F824101C
:104E40004CE095F82430002B33D04B4BDB78402BD3
:104E500004D9A3F137021201D2B202E01B0103F020
:104E6000F0022B79A978402B8CBF373B303BDBB26B
:104E70001344DBB29942404A1AD1937C012B08D0EB
:104E8000022B15D1118C3E4B528C19803D4B1A8050
:104E90000EE03A49C97A61B13B49506908609069AE
:104EA0004860107F39490870D18B394A118000E081
:104EB0000023002285F8242010E06B782E4A0E2B68
:104EC00003D8591C13445170DC7095F824302A4AD9
:104ED0001BB991784C40947000E0002303F001036B
:104EE0002FE1254B002193F82520082A00F2288184
:104EF000DFE802F00B05141E2F506E8A9700622C1B
:104F000001D1022207E083F82510B52C40F018816A
:104F100093F82520013283F8252011E1032283F83C
:104F2000252083F8264083F8274083F8284007E1AE
:104F3000042283F8252093F8272093F82810224490
:104F4000D2B283F827200A4483F8282083F8294026
:104F5000F6E0052283F8252093F8272093F82810FF
:104F60002244D2B283F827200A4483F828205C85A3
:104F7000E6E000BFA81800208C0F0020A806002043
:104F8000640D0020800D002010020020F801002098
:104F9000620D0020062183F8251093F8271093F85E
:104FA00028002144C9B283F82710014483F828104F
:104FB000598DB04A01EB0424A4B2B4F5007F89BF37
:104FC00000215485518582F8251000229A85B7E08A
:104FD00093F8272093F828102244D2B283F8272090
:104FE0000A4483F828209A8DC72A03D8A14911447E
:104FF00081F83040013292B29A855B8D934240F045
:105000009F8007229B4B86E7082283F8252093F890
:105010002730A34200F09480964A002382F825307E
:105020008FE083F8251093F82810924AA14240F0AF
:10503000878092F8291006293BD004D8022911D084
:10504000032923D07CE0122949D0302978D192F865
:105050003410894A102988BF1021117010788749AF
:1050600000224AE08649506B4860906B0860116CE2
:105070004FF47A7091FBF0F182480180824992F8F6
:10508000F800C872012182F8F9104BE092F835104F
:1050900011F0010105D092F83420D01E4242424165
:1050A00000E00A4683F8F820002A3BD17649CA720C
:1050B00038E092F83B1011F0010105D092F83A2047
:1050C000D11E4A424A4100E00A4683F8F8200AB954
:1050D0006D49CA7293F85F106C4A117022E0516CEE
:1050E0006B480180916C42F2107091FBF0F16948BD
:1050F0000180012182F8FA1014E0824201F10C01D2
:1051000010DA11F8045C644C155511F8035C634C1B
:10511000155511F8015C624C15550D78614C15550B
:105120000132EAE793F8F930524A4BB192F8FA307B
:1051300033B1002382F8F93082F8FA30012300E01D
:105140000023002B00F0B283574B9A68DA60574A6D
:10515000116890469960564B196841F0200119601A
:10516000544B197801290CBF002201221A70464BBA
:10517000DA7A002A00F09A83444A1278042A40F22C
:1051800095835A7802B91A731B7B13B90AB103F0DD
:1051900049FF384C4FF0050E94F8FB3004F1FA0645
:1051A000013393FBFEFE0EEB8E0ECEEB030E424B55
:1051B00084F8FBE01B780396049304F5807303EBFB
:1051C0008E0E00232E493D4A5D583D4E9D5095FB65
:1051D000F6F002F1080698513A4E5F1806FB0055AA
:1051E00042F2107C95FBFCFC0597039F1FFA8CFC98
:1051F00002F1100A27F802CF03EB830B53F80A6081
:1052000003975EF80B704EF80B50C7EB060909EBDD
:105210000506052543F80A6096FBF5F6284D183279
:1052200005FB0060049E9850012E0F4606D1ACF19C
:10523000020CBCF5797F9CBF059A10600433082BE3
:10524000C0D10C4DD8F80000D5F84831C01A05F08F
:1052500065FE1D4905F06EFFD8F800304FF07E5115
:10526000C5F84831064606F04FF878BB4FF07E503F
:105270002DE000BF8C0F0020860D0020BC0F002009
:1052800010020020620D0020A8060020F801002076
:10529000640D0020800D0020870D0020970D002058
:1052A000A70D0020B70D002084070020A4180020BF
:1052B0002C050020660D002004020020B410002000
:1052C00080969800806967FF00007A44304610AAF3
:1052D000C5F84C01B44B009211AA019297E8030063
:1052E0000CCB03F03EFE109A64231198AF4992FB59
:1052F000F3F20A8090FBF3F3AD4AAE481380037BD0
:1053000081460BB90B80138095F85031AA4E002BC3
:105310003AD0D6F84C114FF07E5005F00BFFD6F87E
:10532000543180463868C01A05F0FCFD414605F04E
:105330004DFE06F011F8D6F858211FFA80FA786869
:105340000FFA8AFA801A05F0EDFD9C4B196805F0FA
:105350003DFE414605F03AFE05F0FEFFB6F95E312E
:1053600000B2C218B6F95C310221534492FBF1F24B
:1053700093FBF1F392B29BB2A6F86221A6F86031DA
:10538000A6F85E21A6F85C31012385F850317968D2
:10539000386899F80830C5F85811C5F8540123B990
:1053A000844BDB79002B00F08182834E06F5B673C7
:1053B000009306F5B8730193D4F86421D4F86831EA
:1053C00003F0CFFD7B68D4F86801C01A05F0AAFD90
:1053D0007A4B196805F0FAFD05F0BEFFD4F8643188
:1053E0003A68C4F878019B1AC4F87431744B93F985
:1053F0000030012B03D0022B00F0F48056E2D6F8E7
:105400007C51D6F898410395D6F88C71D6F8905116
:1054100004F100400695049705F09EFF8146204662
:1054200005F09AFFD6F84C81D6F894610790404673
:10543000059605F007FA634B044693F8C4000D4641
:1054400005F06CFD05F0FEF955A3D3E9002305F046
:105450004DFA02460B4600205B4905F071FB2B46D6
:10546000224605F091F802460B462046294605F0F3
:1054700067FBCDE90801554E0025554C54F81570D1
:10548000A4F11403384635F803A005F04BFD039949
:1054900005F09CFD05F060FFCAEB000080B22834E7
:1054A000285304B2204605F03DFD049905F08EFD19
:1054B00005F052FF1FFA80FBE01905F033FD069955
:1054C00005F084FD414605F081FD316805F076FC6C
:1054D00005F042FF484504DB079A9042A8BF1046FA
:1054E00000E0484605F01EFD306005F035FFB46869
:1054F00058441FFA80FB204605F0A4F9CDE90A01C3
:1055000070680AF1310A381A05F00CFD414605F0C1
:1055100011FE214605F050FC05F094F902460B46B9
:10552000DDE9080105F0E2F902460B46DDE90A0172
:1055300005F02AF805F0ECFB1FFA8AFABAF1620FBF
:10554000014630617760B0600ED9059805F03EFDE8
:1055500005F002FF1F4BB0F5FA6FA8BF4FF4FA60D9
:105560009842B8BF184600E00020834440F6B833A4
:105570000FFA8BFB9B45A8BF9B46174B0A229B4506
:10558000B8BF9B466A43154B56F8141B25F803B069
:10559000134B0235042DD15000F088816DE700BF18
:1055A000182D4454FB211940FC010020820D0020DD
:1055B000840D0020A80600208C0F00204800002049
:1055C00004020020901C00200000F03F4C0200204C
:1055D0000011002030F8FFFF48F4FFFF20020020F8
:1055E00074020020B64AD6F86CA1B2F9CA909AFBB0
:1055F000F3F39945A8BF9946B6F8A0411FFA89F977
:105600000FFA89F223B29A420BDDAE49D6F84C016B
:1056100005F0DCFC05F0A0FE20441FFA80F9A6F896
:10562000A091D5F87041D5F8A461A61B304603F0CF
:105630001DFD0028D8BF404241F293139842CCBFD1
:105640000020012078B3304605F06CFC9E4905F03F
:10565000BDFC08F051F90646504605F063FC0146D2
:10566000304605F0B3FC05F077FE80B240F6B83264
:1056700003B29342A8BF1346944AA5F8A8019342E7
:10568000ACBFE318A31848F6A042934203DDA3F58C
:105690000C43A03B04E0002BBCBF03F50C43A0333C
:1056A000C5F8AC3101E0C5F8AC41D5F8AC61C6F540
:1056B0000C502830039605F035FC834905F086FC34
:1056C000044608F0A5F81390204608F015F9D5F81F
:1056D000BC41D5F8B071D5F8B461129004F1004026
:1056E0000597089605F038FE0490204605F034FE34
:1056F000D5F84CB1D5F8B8510A905846079505F041
:10570000A1F86F4B044693F8C4000D4605F006FC63
:1057100005F098F868A3D3E9002305F0E7F80246FE
:105720000B4600206A4905F00BFA22462B4604F08E
:105730002BFF02460B462046294605F001FACDE92B
:105740000C01644E00270FFA89F005F0EBFB12AB59
:1057500053F8171005F03AFC5F4C0546E05F05F082
:10576000E1FB0146284605F027FB05F0F5FD5B4B04
:105770000FFA80F8B8F57A7FA8BF4FF47A78984589
:10578000B8BF98461FFA88F03C34385300B205F091
:10579000C9FB0599044605F019FC05F0DDFD80B252
:1057A00006900899204605F011FC594605F00EFCBC
:1057B000316805F003FB05F0CFFD049DA84204DB32
:1057C0000A9DA842A8BF284600E0049805F0AAFB5D
:1057D000B46805463060204605F034F8CDE90E0186
:1057E00070681436C0EB080005F09CFB594605F0C4
:1057F000A1FC214605F0E0FA05F024F802460B462C
:10580000DDE90C0105F072F802460B46DDE90E01F8
:1058100004F0BAFE05F07CFA46F8108C014646F812
:10582000040C46F80C0C079805F0D0FB05F094FD2D
:10583000069C0444284605F08FFD204440F6B8330A
:1058400000B29842A8BF1846204B0A229842B8BF1F
:1058500018467A43224BF852224B0237042FD55078
:105860007FF471AF164B93F8C6202AB1039E6421D2
:105870001D4A96FBF1F11180B3F8C2301B4C9A45DA
:105880000DDDD4F8A431D4F87001C01A03F0EEFB9A
:1058900042F210730028B8BF4042984206DD144B14
:1058A00001221A70B4F8C0210F4B1A8015B0BDE860
:1058B000F08F00BFAFF30080182D4454FB21194036
:1058C000901C00200000C842D302373948F4FFFF83
:1058D0000000F03F74020020EC10002018FCFFFFD5
:1058E000200200204C020020F40100208C0F002038
:1058F000040200202DE9F047714B86B01A789946D2
:1059000042B901236F4889F8003002F0B9F86E48B7
:1059100002F0B6F86D4D286802F057F8AA46002844
:1059200000F0CB80286802F04BF809280146684C4B
:1059300001D03F2859D14FF00008D4F8C461654F19
:1059400045462EB164483968324607F021FD10B94A
:10595000B84605B93D46614B0C379F42F1D305B3BC
:10596000D5F800E0D8F800C0D4F8C43158481EF883
:1059700003701CF80310B94213D15A1C59B92D2BCE
:1059800009D8C0F8C42103442027024483F8C87111
:1059900082F8C81105E0234483F8C871C4F8C42113
:1059A000E2E7D4F8C4310BB1454512D04C4802F0BF
:1059B00067F8454509D855F80C0B02F061F8DAF89C
:1059C0000000092102F006F8F3E73F4802F058F81A
:1059D0000026D4F8C4319E429CD23F4BDAF8000036
:1059E000995D01F0F7FF0136F3E7D4F8C43133B91C
:1059F00004283BD104F5E47000F0A4FA5DE00C2823
:105A000001D1384881E70A2901D00D294AD1364809
:105A100002F036F8D4F8C4312F4EE218002382F891
:105A2000C8310493314B03A800932A4910220C2358
:105A3000039607F057FD054638B1006807F09FFC54
:105A40000130AB683044984702E0294802F018F86A
:105A500021480021302207F070FC0023C4F8C43133
:105A600099F80030002B7FF452AF26E00C28C8D004
:105A70007F2903D14EE72F2B3FF64CAFA1F1200237
:105A8000D2B25E2A3FF646AF13B920293FF442AFA7
:105A90005A1CC4F8C42128681C4484F8C81101F0B9
:105AA00099FF37E77F29E6D1013BC4F8C4310022D2
:105AB000234483F8C8210F482AE706B0BDE8F087E1
:105AC000741D00204D11010885110108D00500202A
:105AD0008C0F00208C030108541100204C04010895
