:020000040800F2
:1000000000500020EDD8000899D90008A1A90008E7
:1000100099D9000899D9000899D900080000000072
:1000200000000000000000000000000099D9000856
:1000300099D900080000000099D900087DA900089E
:1000400099D9000899D9000899D9000899D90008C8
:1000500099D9000899D9000899D9000801AA00087F
:1000600099D9000899D9000899D9000899D90008A8
:1000700011A9000899D9000841A9000899D90008D8
:1000800099D9000899D9000899D9000899D9000888
:1000900099D9000899D9000899D90008FDA9000844
:1000A00099D9000899D9000899D90008EFA9000842
:1000B000E5A90008D9A90008CDA900089DA9000854
:1000C00095A9000899A9000891A9000899D90008E4
:1000D00099D90008CDA8000859A8000821A800084F
:1000E00005AA000899D9000899D900080000000065
:1000F0000000000000000000000000000000000000
:0C01000000000000000000005FF808F1A3
:100110002DE9F04F854D97B0AB68854C13F0080181
:1001200000F0868095F85721042A00F28380DFE8EA
:1001300002F003030550750023787CE060787C4A68
:10014000002877D000209E05507002D5137E180736
:1001500070D4E0780023A27800F00706A383754BE3
:1001600042EA06221A60227902F03F06760146EA48
:10017000D00058606079800040EA9210A27902F0C5
:10018000010640EA86209860E07900F00F06F6014B
:1001900046EA5202DA60227A02F07F06360146EA27
:1001A00010101861607A400040EAD212A07A00F084
:1001B000030642EA46225A61E27A02F01F06B601BD
:1001C00046EA90009861207BC00040EA5212DA6152
:1001D0002CE0A27F564B6AB393F82000002201283E
:1001E0009A7727D19A8393F83420082A84BF08226B
:1001F00083F8342094F834004F4A0023DEB286425C
:1002000002F1020212D212F8016C12F8027C46EAE4
:1002100007274A4E46F823700133EFE794F8583029
:10022000434A00203BB1908382F85800012302E04A
:100230000B4600E00023E26D206E101A002802DA5F
:10024000002B00F09D8302F59C4220322266DFF8ED
:1002500004A13B4E00293CD13A4F89468846DAF842
:1002600000305FFA88F09847A0F2EE2292B240F296
:10027000DC539A42D4F8A420334B88BFB5F85A0116
:100280001340002B03DA013B63F0030301332849D9
:1002900003EB880301EB4303A3F8640039887B88F0
:1002A00008F101080B44B988B8F1080F0B44F9882C
:1002B00007F108070B441BB24FF0040193FBF1F365
:1002C00026F8093009F10209C9D10132C4F8A42085
:1002D00009E00027F8B2DAF80030984726F817004E
:1002E0000137082FF6D1AB68590404D594F8A8302B
:1002F0000BB904F06BFA95F864210C4B62B303322E
:1003000036F91200A0F57A70B0F57A7FA8BF4FF4E5
:100310007A7020EAE0700BF05BF80C490BF060F9A2
:100320000B490BF0A9F80BF093FA2AE0D81800203B
:10033000080100208C0700202A0100204001002035
:10034000600700206C0100200300008000007A4458
:1003500000C07F448407002093F8650190B1A84A4B
:10036000D179A84A32F81100B3F8682180B2801A16
:10037000B3F86631C0EB802090FBF3F000B280F35D
:100380000A0080B2AB68A4F8C0009A053FD59E4B26
:100390009E4AB3F81C9092F8CE300FFA89F703EB1F
:1003A00083018F4290461EDDDFF868A29AF8012093
:1003B000CAB1974AB2F85A2132807280B280B8F836
:1003C000D020F28098F8CF20134403EB83039F42A0
:1003D00004DD04F0FBF900238AF80030B4F8C230E1
:1003E0000133A4F8C23098F8CE3003EB83039F4268
:1003F00009DD884F97F80180B8F1000F03D104F0B0
:10040000E5F987F8008009F10109A4F81C900022A1
:10041000B5F85C11B5F85E711346B05E9B08884272
:10042000C4BF63F07F03DBB20232B842B8BF43F00F
:100430004003082AF1D194F8C400734A984205D1C8
:1004400092F8C500F92804D8013000E0002082F8B5
:10045000C50084F8C430AB686D4A13F480436B4F19
:100460000CD0B2F85A11B2F81C21B6F90630881A2D
:10047000834208DD0A44934207DB04E0B6F9062014
:100480008A4202DB16E0002314E00023C4F8D033D4
:10049000C4F8D433C4F8D833C4F8D030C4F8D43056
:1004A000B7F846302BB1584B93F8A830002B41F0E9
:1004B000FF870123B7F846206AB194F8A82052B903
:1004C000544A52783AB195F8612112B104F07EF99C
:1004D00001E0002BFAD194F8C5204B4B142A40F0D0
:1004E000B1804C4A50789046D0B1B7F846202AB92E
:1004F00093F8C4305F2B01D104F068F995F86031AE
:10050000002B00F09F80B7F84630002B40F09A8017
:1005100094F8C4307D2B40F0958004F057F991E0B9
:1005200093F8C420572A15D13B4B4FF47A721A80A6
:10053000AB68DB0501D504F03FFC384B1B6858075E
:1005400002D5374A0A21118013F0080326D1A4F8F6
:10055000C63023E0A968490717D55A2A15D193F860
:10056000C8202AB1012283F8C80083F8C92015E009
:1005700093F8CA2082F0010283F8CA20294B0AB1FD
:10058000022200E003221A7008E05D2A01F0998738
:100590005B2A01F098875E2A01F09787B7F846300A
:1005A00033B994F8C4206F2A02D104F07FF815E023
:1005B00095F8602122B11BB994F8C4307E2BF4D099
:1005C00094F8C430972B04D1174B4FF4C8721A809B
:1005D00004E0A72B04BF012388F80E3094F8C43040
:1005E000BB2B02D1BB8D023303E0B72B03D1BB8DF4
:1005F000023BBB851FE0BE2B18D17B8D023319E077
:10060000FC0400200405002008010020241D002017
:10061000D8180020F1060020840C002034050020AA
:10062000860C0020091E0020141E0020BD2B09D1BD
:100630007B8D023B7B850120014607F04FF90023AB
:1006400084F8C530D5F808E01EF0040F31D094F8D6
:10065000CA20A14B8AB1A14A527872B1A04AB6F918
:100660000610B2F85C21914207DD93F8A82022B968
:100670003221A3F8CC1083F8CA2094F8B920964B05
:1006800062B193F8CE202AB993F8C82012B9322269
:10069000A3F8CC20012384F8CE300AE093F8C820D8
:1006A0003AB18E4A527822B983F8C820012283F8E1
:1006B000C9208C480123002130F8022F03F1FF3CB0
:1006C000A2F21556B6F5C77F8CBF002601269E40C4
:1006D00012B2314340F21356B242CCBF002601267B
:1006E00006FA0CF6314340F2A466B242D4BF0022AF
:1006F00001225E1CB240033311430D2B89B2DBD1C2
:10070000002307EB4306B6F84660734A31420CBF3C
:100710000026012602F1A8001E540133182BF0D147
:1007200092F8A9306D4E704943B9704BB2F91C2054
:1007300093F8CE3003EB83039A420CDD0B689807E5
:1007400009D5F3784BB9C4F8D030C4F8D430634B32
:100750000122DA7001E00023F37094F8AA305E4AB7
:100760005BB10023F370337943B9C2F8D030C2F8DB
:10077000D4305A4B01221A7100E0337194F8A8303A
:100780000BB901233370F278594B12B9534A1279DD
:1007900012B110225A6101E010221A610A68510751
:1007A00025D594F8AB104C4B99B1B17991B94B4820
:1007B0004FF0010C80F806C0D3F8DC00C3F8EC1051
:1007C000C3F8D800B3F8E800C3F8F010A3F8E000CD
:1007D00000E0B1711EF4005F09D094F8AC302BB189
:1007E000F37B23B93D4B0121D97300E0F37312F081
:1007F0000A0F20D094F8AD3037494BB1737943B923
:10080000364B01205871B1F8C630A1F8F43000E041
:10081000737194F8AE302BB1737A23B92F4B012149
:10082000597200E0737294F8AF102B4B19B1B3F802
:10083000C610A3F8F610930640F19180F27A274B88
:10084000002A00F0878094F8F820DFF88C80042AD2
:1008500040F2808098F8B2208AB1DA79002A7ED1FD
:100860000121D9711A72234B08F1FC0008F580713F
:100870001A7007F015FF022388F804316FE0DA716F
:1008800098F8B320002A37D0B8F9E210B7F8E22080
:100890000029B8BF494291422EDAB8F9E410002984
:1008A000B8BF4942914227DA1A7A002A57D1012764
:1008B0001F72104B08F584701A70D8F8103108F5C3
:1008C0008671C8F80831D8F81431C8F80C3107F02F
:1008D000E7FE88F8047142E008010020F1060020DC
:1008E000D81800206607002034050020241D0020B1
:1008F000000C014000000020944A0023337213785A
:100900006BBB012111701A46914F0020391D5052C6
:1009100007F1080107F10C0E5052002143F80E10A8
:100920009E44D053CEF80400CEF80810023207F1EE
:10093000340E5C3743F80E10D9519E441F44042AEC
:10094000CEF80400CEF808107860B96003F1140303
:10095000DAD104E00023F371337284F8043194F89F
:10096000B43003B10123B3726B7903F0EF02082AAC
:1009700002D00E2B40F066840023737200F062BC3C
:10098000744BD3F89C31042B00F25C84DFE813F045
:1009900005008B00F8004D033E040123C4F89C3190
:1009A0006D4B6C4E1B6818077DD5D6F8A031D31A55
:1009B000002B78DB694B02F5C332A0325B6806F589
:1009C000D270C6F8A0219847654B06F5D2779A7B7E
:1009D000184692B1D6F8A0210023C6F8AC21E91838
:1009E0000022A1F8402116465E49FA5A5A520631B1
:1009F0005A520233062BF2D186735B4B1B78A3B19C
:100A0000B4F8A421B5F84031D31AA4F8A431B4F84D
:100A1000A621B5F84231D31AA4F8A631B4F8A8211A
:100A2000B5F84431D31AA4F8A831D4F8AC31494A06
:100A3000002B00F00784D2F8A0114C48CB1A834257
:100A400002F5DB7102F5D87019D8494BDA6882F0EB
:100A50000802DA600023FA5A30F903E016B2B6450C
:100A6000C4BFDFF800E123F80E2031F903E0B645FA
:100A7000BCBF404E9A530233062BECD1E2E3002375
:100A8000C2F8AC31C75ECE5EEA183E4402273B4452
:100A900096FBF7F6062BA2F84061F3D10120014640
:100AA00006F01CFFCEE3D4F89C312A4E0133C4F883
:100AB0009C31294B1B68590762D5D6F8BC31D31A33
:100AC000002B5DDBD6F8C031C6F8BC212A4F9BB1A4
:100AD0003B6998477B689847D6F8BC313A8806F559
:100AE000E2701344C6F8BC3106F5E4717B6998479F
:100AF0000023C6F8C031A5E3BB689847FB68984758
:100B00001E4AD6F8CC1192F831204B1C934208BFF4
:100B10000023D4F8C42104EB8101C1F8D021D4F81A
:100B20009012C4F8CC310A4404EB8301D1F8D0010F
:100B30000123121AC4F89022C4F8C0317A88D4F87C
:100B4000BC311344C4F8BC317CE300BF000000207A
:100B5000200200200801002034050020AC05002000
:100B6000F1060020B8020020D40500207FC3C9018F
:100B7000000C0140BE02002084050020241D00203E
:100B8000D4F89C31B14E0133C4F89C31B04B1B6892
:100B90005B0740F14A8203F011FDD6F8987246F2E5
:100BA000A713C71B9F42B6F896A2B6F894B240F2BC
:100BB0003C82DFF8C892C6F89802B9F80030DFF836
:100BC000B8827BB398F83100D6F89032D6F89C22E0
:100BD0000138B3FBF0F0082392FBF3F1521A1044F2
:100BE000C6F89C0290FBF3F00AF0F2FB99490AF078
:100BF000F7FC99490DF070F901464FF07E500AF06C
:100C000031FB96490AF038FC0AF0FCFD0023C6F8D7
:100C1000A432C6F8A832B9F80030C6F8A002013BE9
:100C2000A9F8003098F831000FFA8BFB0FFA8AFA16
:100C3000D4F89032BBF1000FB8BFCBF1000BBAF182
:100C4000000FB8BFCAF1000AD345A8BFDA46013881
:100C5000B3FBF0F01FFA8AFACDF814A00AF0B4FB47
:100C60007C490AF0BDFC7C490DF036F901464FF095
:100C70007E500AF0F7FA79490AF0FEFB0DF05EF8B3
:100C8000D8F834608146D4F8AC020AF0A1FB3146B2
:100C90000AF0F2FB8046D4F8A002C0EB09000AF08B
:100CA00097FB314681464FF07E500AF0DBFA014651
:100CB00048460AF0E1FB014640460AF0D5FA0DF03D
:100CC0003DF8DDF814A083460FFA8AF8B8F1FA0F60
:100CD000634E03DD4FF0FF33336014E030680AF0F9
:100CE00077FB814640460AF073FB01465D480AF0F7
:100CF000B9FA014648460AF0BFFB5A490AF070FCAF
:100D00000AF080FD3060366806F1FF39B9F1C60F90
:100D100006D8C6EB0B03C4F8B032C4F8AC622FE0BF
:100D2000D4F8B032002EC3EB0B0BDFF820A1C4F8CF
:100D3000ACB225DDC6F596700AF04AFB4A490AF0C6
:100D40004FFC8046CAF8B40230460AF041FB4146E7
:100D50000AF092FB064658460AF03AFB41468346A3
:100D60004FF07E500AF07EFA014658460AF084FBA6
:100D7000014630460AF078FA0AF044FDCAF8AC029F
:100D80003A4B186802930AF01FFB394906460AF0ED
:100D900073FB8346D4F8C0020AF01AFB8046D4F8ED
:100DA000C4020AF015FB014640460AF019FC314A1C
:100DB000079011680AF060FB31460AF05DFB2E4A8D
:100DC0004FF07C51D2F83CA0D4F8A482D4F8AC62A5
:100DD000069003920AF050FB59460AF04DFB594623
:100DE00084464046CDF810C00AF046FBDDF810C03E
:100DF000014660460AF038FAD4F8A8120AF034FA2C
:100E000051460AF039FB834630460AF0E1FA514672
:100E100084464FF07E50CDF810C00AF023FADDF87A
:100E200010C0014660460AF027FB014658460AF00A
:100E30001BFA039A029BB9F1C60FC4F8A8029146A7
:100E40009A461DD8014AC2F8DC601EE00801002065
:100E50003405002080E6C547B1DC423ED048874AD1
:100E600040000020000061440000C8420C1E002029
:100E7000BD378635C8050020241D0020860C0020C3
:100E80000AF0C0FCB04BC3F8DC00069940460AF0FB
:100E9000EBF90346D4F8C8024FF00008CAF8008006
:100EA000C4F8B882C4F8BC82C4F8C082C4F8C48252
:100EB000301A02930AF08CFAA4490AF0DDFA82464D
:100EC00038460AF081FA014650460AF089FB0AF0DA
:100ED00099FC40F2DC529E499042A8BF10468842DD
:100EE000B8BF08460A21C4F8C86203F0C5FD029BDA
:100EF000D9F838608246314618460AF0BDFA0746EE
:100F000050460AF065FA314682464FF07E500AF0AC
:100F1000A9F9014650460AF0AFFA014638460AF0F0
:100F2000A3F9C4F8A4020CF009FF0521064603F05A
:100F3000A3FD059FDFF810B23BB2B3F5487FC4F8BC
:100F4000CC026BDA9BF8D0320BBBDBF8D820DBF895
:100F5000DC308048D31AB3F5FA7FA8BF4FF4FA7398
:100F60008342A8BF18460A2103F086FD7A4B8022EF
:100F70001B79584390FBF2F3B3F5967FA8BF4FF46B
:100F80009673A2F5D6729342B8BF134601E0DBF820
:100F9000D43299F80A209B1B5A43202192FBF1F28C
:100FA00099F81400D4F8EC1042F2040603FB001088
:100FB0006A4BB2F5967FA8BF4FF496729842A8BFCD
:100FC0001846674B9842B8BF1846C4F8EC0090FB2F
:100FD000F6F0644EB242ACBF8618861999F81E002E
:100FE0000AF0F6F9D4F8D812074607980AF03CF947
:100FF000014638460AF040FA4FF06C510AF03CFACC
:101000000AF000FC6FF095039628A8BF962098423E
:10101000B8BF1846301AC4F8F00001E0CBF8F080F1
:10102000DDF81C90C4F8D8920CE1D4F89C3101335F
:10103000C4F89C31AB68DF0540F1E8804A4EB368E4
:1010400063B94A4F3B78013B042B00F2FB80DFE899
:1010500013F0110011001100CC00B500B06803F0CE
:1010600001FA0028EDD0404B986803F0F6F904F03F
:101070000BF8F3E795F86A91B9F1000F03D0B9F1D5
:10108000010F09D097E07A78394BB06803EB02136F
:10109000596807F032F88BE0B068DFF8CC8003685D
:1010A0001B699847002800F086803B782F4E022B62
:1010B0002CD0032B35D0012B7DD12E4BD3F80090B3
:1010C000736AC3EB0903632B75D9F369042B1BDC2B
:1010D000DFF89CA0D8F808000AEB0313596807F062
:1010E0000CF87378D8F808800AEB03139E6816F89A
:1010F000011B19B1404603F0BAF9F8E7FB69C7F8DC
:1011000024900133FB6156E0022052E07278184BC4
:10111000D8F8080003EB0213596806F0EEFF03202D
:1011200047E03369012B29D0022B41D0002B42D15B
:10113000326A114BC6F8109053F8321003EBC20319
:101140005B687161B36136E00801002000247449D6
:1011500024FAFFFF0CFEFFFF241D002020031900CE
:10116000E0FCE6FFD4FEFFFFD8050020AC0700201E
:10117000A0000108D41800208C010108F369B269AD
:10118000934209DA7269D8F80800D15C03F06FF96C
:10119000F3690133F3610EE0326A7B490132326256
:1011A00051F832200023F36102B90223336102E0D7
:1011B000042004F03BFF00237B6043E07B680522B2
:1011C00001337B607B7801200133DBB2B3FBF2F2A9
:1011D00002EB82029B1A7B706C4B6D4A1B68BB60F2
:1011E000002384F8F830D3720DE0684B1A68BB68AE
:1011F000D21A40F6C4139A4224D9664B05201A68C5
:1012000022F020021A6004F011FF1BE00023C4F852
:101210009C31604B1B68DE0614D55C4B1A685E4B34
:1012200019683C318A420DD31A605C4F5C4A5D4BB1
:101230005D4EC3F8DC223B880B20336103F0D8F904
:101240003B88736103F0BAF9AB89E06533B1554A65
:10125000D2F8E022821A002AC1F24981534E184482
:10126000C4F8E002736852489847524B1A8899466E
:10127000002A00F0C0804E494FF0000801F1080636
:101280004746B9F800B04C4BBBF57A7F08D1A3F1C3
:101290003C010A2000FB0711002243F808200A61E4
:1012A000434AD05F53F80820024443F808200AF06C
:1012B0008FF833690133012B336104D1002370604F
:1012C0003060B3602AE0D6F800C002936146CDF8E2
:1012D00010C0039009F0C6FF029B824618460AF030
:1012E00077F8014650460AF07BF9DDF810C0014658
:1012F000604609F0B9FF039A03461946706010462C
:10130000029309F0AFFF014650460AF0B5F8B16804
:1013100009F0AAFF029BF0603360B060244800230C
:1013200000F1500ABBF1010FC35327F80A3055D121
:101330003069012807DD01380AF04AF80146F068F3
:101340000AF04EF900E000200CF04EFF834695F8BD
:10135000360198B30AF03CF8014658460AF048FABC
:1013600060B34FF47A73A9F800300023C4F8FC325C
:10137000C4F81033C4F82433C4F83033C4F82C3321
:10138000C4F828332AE000BF8C010108D4180020DB
:10139000F106002034050020E0070020D4070020DB
:1013A0004000002008010020000C0140380500200A
:1013B000EC030020840C002030040020B54B4FF4D7
:1013C0007A7258F803300A2003F5FA7393FBF2F3AC
:1013D0002AF807300F21012203F042F90237062FC5
:1013E00008F1040806F114067FF44BAFB9F8003099
:1013F000013BA9F800300023A74E06F5397706F522
:101400004D72F95A9A5A8A1AFA520233062BF3D1BC
:10141000A24B1B6813F0020300F09A83A04BA14F6C
:1014200006F23A305B689847388806F23A36002868
:1014300044D000231A46DFF888C2B0F5C87F04BF45
:1014400000214CF8021036F903805CF80210DFF836
:1014500048E241444CF80210002105EB0308F15228
:101460000233062BDFF848C2A8F83A1102F1040251
:10147000E1D101281FD1DEF840334FF4C872C833E0
:1014800093FBF2F3ACF83A31DEF84433C83393FB04
:10149000F2F3ACF83C31DEF84833C83393FBF2F298
:1014A000814B1B88D21A814BACF83E215985998516
:1014B000014606F013FA3B88013B3B80AB687C4A4F
:1014C00058077CD5B4F8CC10734B322913D1B2F83D
:1014D0003A01A3F84C03B2F83C01B2F83E21A3F85C
:1014E0004E03A3F85023714A508D928DA3F85203F6
:1014F000A3F8542301E000293DD000221746DFF86D
:10150000C4E1322904BF00234EF807305EF807001B
:1015100036F902C005EB020860444EF807004FF0B0
:10152000000E26F802E00232062A5B4B6048A8F85B
:101530003AE107F10407E2D1012919D15D4A0226F7
:101540001670B3F84C2383F8CEE0A0F83A21B3F834
:101550004E2383F8C810A0F83C21B3F85023A0F81C
:101560003E21524AB3F85203B3F854335085938561
:101570000139A4F8CC1094F8C920474BFAB1D3F83C
:1015800058033221002290FBF1F083F8C920A5F81E
:101590003A01D3F85C03D3F8603390FBF1F093FB8E
:1015A000F1F1414BA5F83C011B880120C91A3F4BC2
:1015B000A5F83E1101465A859A8506F08FF9B4F8D0
:1015C0003A23B5F83A310027D31AA4F83A33B4F8DD
:1015D0003C23B5F83C31BB46D31AA4F83C33B4F8ED
:1015E0003E23B5F83E31D31AA4F83E3302F0E6FFAD
:1015F000D4F864330646C31A1846059309F0E4FE8E
:101600002D4A0790D16809F037FF284BC4F864636E
:1016100093F82EA006903E469846284B0DF12809D7
:10162000985F09F0D5FE069909F026FF49F80700F2
:10163000BAF1000F4AD0504609F0CAFE01464FF0F9
:101640007E5009F0CDFFDFF88090034619464FF039
:101650007E50029309F006FE57F8091009F00CFFBE
:10166000A9F12E010246885F039209F0B1FE029BA8
:10167000194609F001FF039A0146104609F0F4FDEE
:1016800049F807000AF0BEF809F10C0929F806002C
:1016900021E000BF300400200801002034050020B4
:1016A0004C050020141E00202C000020241D0020CA
:1016B000D8180020091E002038050020EC03002067
:1016C000480400206004002070040020C04BA3F1F7
:1016D0003A02B25AF252BE4B0437F25E0236062E7E
:1016E00002FB02BB994698D1642303FB0BFBB94B69
:1016F00009F108001B880AA95B439BFBF3FBABF1D4
:10170000490B1FFA8BFB03F085F8BBF13B0F6BD93C
:10171000B14BD4F88463B3F9000009F059FE0146D7
:1017200030464FF001070AF063F800B90746AB4BAB
:101730003146D4F880035F730CF0CCFB0746C4F845
:101740008803D4F87C03D4F884A300F10046D4F8CD
:101750008003014609F090FE51468146504609F04B
:101760008BFE0146484609F07FFD0CF03DFD014629
:1017700030460CF0AFFB0646C4F88C03384609F03F
:10178000B7FA8FA3D3E9002309F006FB09F016FD91
:101790000CF0D4FAA4F89402304609F0A9FA88A310
:1017A000D3E9002309F0F8FA09F008FD0CF0C6FAB5
:1017B0008B4BA4F896021B6819076DD50AA98948B6
:1017C00003F028F8B5F8340109F0FEFD4FF07E5122
:1017D000834609F049FD01464FF07E5009F000FFB5
:1017E0004FF0000A06902DE0B5F8320109F0ECFD4B
:1017F0004FF07E51074609F037FD01464FF07E500D
:1018000009F0EEFE4FF0000A0646DFF8ECB138466C
:101810005BF81A1009F030FE034639F90A0002930A
:1018200009F0D6FD029B0146184609F01DFD314620
:1018300009F022FE4BF81A000AF1020ABAF1060F6B
:10184000E3D165E7DFF8AC91584609F5647252F8C8
:101850001A10039209F010FE09F5D271844631F98D
:101860000A00CDF810C009F0B3FDDDF810C0014644
:10187000604609F0F9FC069909F0FEFD039A42F86A
:101880001A000AF1020ABAF1060FDBD1104603F082
:1018900079F8A9F8C60044E0DFF860A10AA90AF1C6
:1018A000040002F0B7FFDAF80400DAF80830014665
:1018B000DAF80CB0029309F0DFFD029B814619466D
:1018C000184609F0D9FD0146484609F0CDFC5946B5
:1018D0008146584609F0D0FD0146484609F0C4FC4F
:1018E0000CF082FC0021814609F05AFFA0B9DAF819
:1018F0000400494609F074FE4946CAF80400DAF8C3
:10190000080009F06DFE4946CAF80800DAF80C0034
:1019100009F066FECAF80C00334803F033F8A4F867
:10192000C6003249079809F0A7FD06F10046814636
:1019300007F10047B4F9C6000E960D9709F048FD6F
:1019400000F1004009F0D4F91FA3D3E9002309F006
:1019500023FA09F033FC0F90B4F9740309F038FD51
:101960001090B4F9760309F033FD1190B4F97803BF
:1019700009F02EFD0DA9129010A802F04BFF1C4B90
:101980001C4E93F84430012B3AD1144B5B7873B959
:10199000D6F89C33402093FBF0F0181A09F018FD9C
:1019A000129909F061FC09F02DFFC6F89C03D4F8E8
:1019B0009C33402093FBF0F024E000BFAFF30080A5
:1019C0003B597E90A9E78140399D52A246DF913F65
:1019D0007C0400202C000020C4050020F10600201B
:1019E000340500209804002004000020BD3786350F
:1019F000241D002008010020840400200000002095
:101A0000B94B188809F0E4FC0146129809F02AFC49
:101A1000B64B12901968484609F026FC0146484624
:101A200009F0DEFDD4F8A07381463946129809F01A
:101A300019FC0146484609F01FFD0146384609F0E9
:101A400013FC0746C4F8A0031098D4F8B8920CF021
:101A500075F998F8301003F00FF84844C4F8B8024C
:101A60001198D4F8BC920CF069F998F8301003F092
:101A700003F84844C4F8BC023846D4F8C0920CF0CD
:101A80005DF998F82F1002F0F7FF994B059F1A683F
:101A900048443A441A60D4F8C432964E0133C4F82C
:101AA000C43298F87C30C4F8C002002B56D0D6F867
:101AB0007C03D6F88093014609F0DEFC4946804657
:101AC000484609F0D9FC0146404609F0CDFBD6F85E
:101AD000847380463946384609F0CEFC01464046BC
:101AE00009F0C2FB0CF080FB0146384609F078FD96
:101AF0008149074609F068FE18B10023A6F8A4330F
:101B00002CE038460CF096F97C4B196809F0B4FCCF
:101B10000CF014F9B0F5617FA8BF4FF4617009F0C3
:101B2000D5F86FA3D3E9002309F060FA09F046FB6A
:101B30000CF042F9724B074693F87C0009F048FC20
:101B4000394609F099FC0CF0F9F8A6F8A40305E071
:101B5000A6F83A33A6F83C33A6F83E336B79012B4E
:101B60000ED1B4F9A623B4F9E83203EB4203032201
:101B700093FBF2F39BB2A4F8AC33A4F8A63303E0D2
:101B8000B4F8E832A4F8AC33B4F8E432594FA4F80E
:101B9000A833B4F8E6325A4EA4F8AA3302F00EFD88
:101BA000584BE0651A681860821AA4F8AE2300F05A
:101BB000B3FC554B196811F0080F34D0B7F8E62084
:101BC00002F145039BB28A2B29D8504B58799E4687
:101BD00028B3B7F8F430B7F8C600C01A80B283B2A1
:101BE0001FB2B337BCBF00F5B4739BB218B2B328B1
:101BF0009EF80D70C4BFA3F5B4739BB295F82C0189
:101C00008FB140B240424343707A1BB243436FF0FE
:101C10001D0093FBF0F31A44A4F8E62003E0B4F8A7
:101C2000C630A4F8F4304A0740F19780374B9A79D0
:101C3000002A00F092801F7C002F40F0848096F8EC
:101C4000790096F878202B4B80B3B4F8E8C0B4F94B
:101C5000E0000FFA8CFEC0EB0E08B8F1000FB8BF21
:101C6000C8F1000890450FDD8645C8BF52421FFAF3
:101C70008CFCC8BF92B2C3F8EC706244012783F8B1
:101C8000B073A4F8E82068E093F8B0232AB1D3F841
:101C9000DC2083F8B073C3F8D820D4F8F030B5F85E
:101CA00012211844B5F81031984244E0B4F9E070BC
:101CB000B4F9E8E0C7EB0E0E8EEAEE7CACEBEE7CFE
:101CC000944525DD02229EFBF2F2C3F8D4220122C4
:101CD00083F8D02283F8B02325E000BFAFF3008063
:101CE000A2EB0FE5DD1696402C000020D005002069
:101CF0000C1E0020080100208FC2753CCC0500207E
:101D0000241D0020800C002034050020F106002056
:101D100093F8B0233AB1D3F8DC2083F8D002C3F8AB
:101D2000D82083F8B003D4F8F020B5F810313A4445
:101D3000B5F812019A4203DB8242B4BF1346034650
:101D4000A4F8E83009E0B4F8E42095F96301D4F888
:101D5000F03000FB0323A4F8E43096F87C305BB14C
:101D6000A04BDA780AB91B7933B1B4F8E830B4F88B
:101D7000A4231344A4F8E8308B0640F1B180994BBA
:101D8000DA791AB91A7A002A00F0AA801B7B002B94
:101D900000F0A680B4F9C60009F01AFB924909F0D8
:101DA0006BFB80460CF008F8814640460BF090FF34
:101DB00096F8DBA080468D4FB4F92201BAF1000FEE
:101DC0005CD0B7F81E31CAF100071FFA83FB1BB2C3
:101DD000C01A03F015F8B84203DB5045A8BF5046BF
:101DE00000E03846B4F81C318344B4F920019AB2BB
:101DF0001BB21FFA8BFBC01AA4F81EB1039202F0AB
:101E0000FFFFB842039A03DB5045B4BF074657466D
:101E10001744BFB2A4F81C710FFA8BF009F0D8FA7E
:101E2000824638B209F0D4FA41460746504609F0D6
:101E300023FB49468346384609F01EFB01465846B7
:101E400009F010FA6A4909F0CBFB09F0DBFC4946BE
:101E5000A4F81801504609F00FFB41468146384668
:101E600009F00AFB0146484609F0FEF9604909F00D
:101E7000B7FB09F0C7FCA4F81A0131E009F0A8FA91
:101E80008346B7F9200109F0A3FA41468246584635
:101E900009F0F2FA494603465046029309F0ECFA7B
:101EA000029B0146184609F0DDF9514909F098FBFB
:101EB00009F0A8FC4946A7F81801584609F0DCFAD1
:101EC00041468146504609F0D7FA0146484609F096
:101ED000CBF9474909F084FB09F094FCA7F81A01F3
:101EE000444B1B699847444B1A78032A13D9B4F919
:101EF000E600B4F9B6130028B8BF40426FF06303A0
:101F00001B1A994204DB00F164038B42A8BF0B4605
:101F1000A4F8B63306E0012A04D8324A137C002B19
:101F20005AD17CE096F9D4B0B4F9B613CBF1000BDA
:101F300001FB0BFBB4F8E830B4F8B493B4F8B2A3E7
:101F40002E4F4FF00008904507F11007E5D218B268
:101F50000392029309F03CFA57F8101C09F08CFA2E
:101F600084460FFA89F0CDF810C009F031FA57F81D
:101F7000081C09F081FADDF810C00146604609F03E
:101F800073F984460FFA8AF0CDF810C009F020FAF0
:101F900057F80C1C09F070FADDF810C001466046D5
:101FA00009F062F984465846CDF810C009F010FADD
:101FB00057F8041C09F060FADDF810C001466046CD
:101FC00009F052F909F01EFC0D49029B21F8180096
:101FD000039A08F10108B6E75378094993B9B5F8AF
:101FE00014311BE0F106002035FA8E3C0801002078
:101FF0000000204100000020081D0020F005002006
:102000000A1D0020B4F9E800B5F81031B5F81271D6
:10201000984203DB8742B4BF3B4603460B80697995
:102020000139C9B2172900F2C880012303FA01F16E
:10203000A74B0B4053BBCF0640F1BF8096F98430CD
:10204000B4F99602A3495843322390FBF3F0B6F853
:10205000823080B21AB2112ADCBF9F4B33F81230A3
:1020600003440B80B4F9940296F98E30584332231E
:1020700090FBF3F0B6F88C3080B21AB2112ADCBFB4
:10208000954B33F8123003444B8096E0937A53B16A
:10209000B4F8E230ADF84030B4F8E430ADF8423096
:1020A000B4F8E63009E0B4F8B233ADF84030B4F833
:1020B000B433ADF84230B4F8B633ADF84430874BA2
:1020C000B5F85A211B88ADF84630834B1989511A4F
:1020D000ADF848105989511AADF84A109989511A2A
:1020E000ADF84C10D989511AADF84E101988511A13
:1020F000ADF850105988511AADF852109988511AFC
:10210000ADF85410D988521AADF85620002202EBCF
:1021100082013144B1F8821008B21128D8BF33F8D7
:1021200010106C4811520232102AF0D16C4B93F807
:1021300000E000234FEA8E0E73452ED0694A9918AD
:10214000CF781FB1274497F8BC7027B3D25C4FF00B
:102150000A0808FB02684F78B8F886800DF1580924
:1021600048FA07F809EB470737F9187C91F902108C
:1021700018F0010F01FB07F10CBF4FF001084FF001
:10218000FF3801FB08F130F812C0642791FBF7F12A
:10219000614420F812100433CEE7534A0023F118AB
:1021A000B2F9020091F984100A334143642091FB93
:1021B000F0F1502B22F8021FF1D1AB6898063ED502
:1021C000B6F88230B6F88C001AB2112AD8BF424B4A
:1021D0004049D8BF33F8123002B2112AD8BF3E4866
:1021E0000B80D8BF30F81200DFF80CC1488094F89B
:1021F000B010384A074611B396F8D610BCF994428D
:1022000011F0020F96F98E004FF0320196F984E03A
:10221000BCF996C218D06043CEF1000E0CFB0EFC48
:1022200090FBF1F06FF0310480B29CFBF4F40444B5
:102230009CFBF1FC234460441380074457802A4BE5
:102240002A4A03F1100410E00CFB0EFE60439EFBD3
:10225000F1FE734490FBF1F113800F44EEE723F895
:10226000021FA34202F10A020CD0B3F90200B2F934
:102270007E10B2F880708842F1DB39B28142A8BF8B
:102280000146ECE796F8D630590706D4184B134AA6
:1022900093F800C0118801230FE0164B0024DE7D67
:1022A000043E0D4BA01903EB4403C0B2198901345D
:1022B00002F090FE042CF4D1E8E763451ED232F917
:1022C000130009B28842A8BF014689B20133F4E77E
:1022D0008920980082000020600700200A1D00204D
:1022E000B0060020B106002080000020241D002040
:1022F000081D0020D805002008010020B5F81201B3
:10230000B5F81061431A1FFA83F9AB68B5F81441A8
:1023100003F480420992774A03F0100B764BB2F92E
:102320000620B5F816715B78B5F85AA1B5F818E132
:10233000B5F85C510192B2B20893059707950692E1
:102340001FFA84F84FEA4C0C0023634539D00AB2D7
:1023500082426A4D02DDEA5A4A44EA52099F674ABC
:10236000A7B1019D5545D55E07DD754503DB854267
:10237000A8BF05461CE075461AE0A54204DB059F90
:10238000BD42A8BF3D4613E0254611E0ED5EB542D3
:1023900003DB8542A8BF054600E03546D552079FBE
:1023A000019DBD4205DA069DBBF1000F18BF4546F1
:1023B000D552089A1AB9524A9D5A504A9D52023330
:1023C000C3E7504B9B7D002B6FD04F4D6B79013B8A
:1023D000172B5ED8DFE803F00C5D5D1A605D5D22AF
:1023E0005D5D5D5D5D2A5D5D5D5D5D1A2A5D5D3AE9
:1023F000464B93F8D5301BB1454B0020598952E02C
:102400003D4B58780028F7D101464CE0404C002065
:10241000218902F0DFFD0120618944E03C4C00206D
:10242000E18802F0D7FD012021893CE0384C0020F2
:10243000E18802F0CFFD0120218902F0CBFD0220CE
:10244000618902F0C7FD0320A1892CE0304C0020F7
:10245000E18802F0BFFD0120218902F0BBFD0220CE
:10246000618902F0B7FD0320A18902F0B3FDAB68DA
:10247000DA071AD50420218802F0ACFD0520618816
:1024800002F0A8FD0620A18802F0A4FD0720E18942
:1024900009E0AB689B0608D51D4C0020218802F09E
:1024A00099FD6188012002F095FD02F097F91EE088
:1024B000114B1B78002B3DF4FCAF02F0F7F8FDF751
:1024C000F8BF012202E0022200E003225FFA82F953
:1024D000002009F1FF33014685F82C3405F0FEF9A0
:1024E000022028214A4602F0BBF8FEF757B817B081
:1024F000BDE8F08F60070020F10600200A1D0020D3
:10250000C0040020D8050020D8180020241D002079
:1025100082000020AFF30080634B2DE9F04FB3F948
:102520000600624B8DB0DA8C90420FDBB0F5FA6F8B
:1025300093F8254007DA811A4C43A2F5FA6294FB1E
:10254000F2F4643403E0C4F1640400E06424584A03
:1025500093F82350B2F85A1192F92C2193F876602F
:1025600093F87770524293F8243092B2049100218C
:102570000692059507930A464B4BDDF810C031F9DA
:10258000038040F2E635CCEB080303F2F31EAE45C0
:1025900003D8002BB8BF5B4201E04FF4FA73022A64
:1025A000DFF814C12CD026B1B342CCBFC6EB030375
:1025B00000236425DFF804A193FBF5FE6FF0630BA5
:1025C0003AF81E900BFB0E3B0EF1010E3AF91EA0DD
:1025D0000FFA89FECEEB0A0E0EFB0BFE9EFBF5FEFC
:1025E000CE442CF801E0DDF814C003FB0CFE314BA7
:1025F0009EFBF3F32B449BB2634393FBF5F314E090
:1026000027B1BB42CCBFC7EB03030023DDF818E0C2
:1026100003FB0EF5ACF80450079D002BB8BF5B42DE
:102620006B43244D93FBF5F36433DFF88090DFF8C0
:1026300090C002EB090595F801A095F80BB06D7DEF
:1026400003FB0AFA03FB0BFB6B434FF0640E9AFB90
:10265000FEFA02F80CA093FBFEF30CF1030A0CF156
:10266000060C02F80C30DDF810C09BFBFEFBE045C9
:1026700002F80AB0104B05DA33F801E0CEF1000E93
:1026800023F801E00132032A01F102017FF474AF63
:10269000074EB6F85C21904214DBB0F5FA6FA8BF84
:1026A0004FF4FA600FE000BF60070020241D0020F7
:1026B000D81800200CFEFFFFEA010020880C002043
:1026C000960C00201046801A4FF47A714843C2F5E8
:1026D000FA62B0FBF2F24FF0640CB54C92FBFCF1E5
:1026E00004EB4100B0F818E06FF0630000FB01223A
:1026F00004EB4101B1F91A000FFA8EF1411A4A4375
:1027000092FBFCFCE644A3F806E0AA4BAA4F5B7AD6
:10271000002B44D0A94BB3F90000A94BB3F900300A
:10272000C01A08F0D3FAA0A3D3E9002308F034FBC1
:102730000022A44B08F05AFC08F040FD80460BF044
:10274000C7FA814640460BF037FB8046B7F90200D6
:1027500008F03EFE8246B7F9000008F039FE49460F
:10276000834608F089FE41460546504608F084FE3F
:102770000146284608F076FD09F044F849463880BD
:10278000504608F079FE41468146584608F074FEEE
:102790000146484608F068FD09F034F87880D6F81C
:1027A0000880DFF850A218F0020F00F08380864BFB
:1027B00006211A88236B7E4F1A4494F83430226322
:1027C0000133DBB2B3FBF1F901FB193919F0FF0555
:1027D00084F8343004955CD17C4D7D4B6878B96BBE
:1027E00033F810E04FF0080B91FBFBF01FFA8EFE60
:1027F000081A7044B86390FBFBF080B20392029316
:1028000008F0E6FD734908F037FE734908F0E8FE6A
:1028100081469AF84B0108F0DBFD0146484608F076
:102820002BFE09F015F89AF84E11B887039A029B0F
:1028300079B36879396C33F8100091FBFBF380B2FF
:10284000CB1A03443B6493FBFBF39BB240F6E44199
:10285000594340F6FF70B1FBF0F1BAF848014FF46C
:102860007A73091A5943BAF8460191FBF0F14A43C9
:1028700092FBF3F37964D7E91201C01841EBE371DD
:10288000C7E91201554A002309F002F8049D386592
:102890003D63534AA38F12889A4203D396F84D2181
:1028A0009A4203D9002384F8543003E0404B0422B9
:1028B00083F854204B483E4B417B94F8542001B19F
:1028C000012118F4007F83F8551022D0464D474B64
:1028D00095F8CE101B8801EB810518B2A84215DDD2
:1028E000344D6D787DB1012584F856503E4D95F8F4
:1028F000CF50294401EB8101884207DD2C49022099
:1029000081F8560002E0022184F856100BB984F8D1
:102910005630374B19689A4611F0200F0CD03148C9
:10292000837A0BB9C37A23B1224BDB7A0BB901232B
:1029300000E0002384F8573094F856101C4B02290D
:1029400002D14C204E211DE0012904D14D215320FC
:102950004C220B4607E093F85710012906D153206B
:1029600001464E224D2307F09DFB50E093F8551091
:10297000012903D1532001460246F3E7042A03D17B
:1029800053204D210A460AE0022A03D15320014672
:102990004D2204E0012A2FD153204D214E22442301
:1029A000E1E700BFAFF30080182D4454FB2109403C
:1029B000880C0020F1060020EA010020CE01002052
:1029C000FE01002000806640B6040020FC040020C8
:1029D000040500203333534000F07F45407E05005E
:1029E0000C050020B0010020241D0020240100203F
:1029F00034050020D8180020AF4A107818B13220D2
:102A000003F0E4FA03E083F8580001F0D0FDAB4B8B
:102A10001B881BB1DAF800309F0702D4A84B1B8833
:102A20002BB1A84BDA6882F00802DA600FE0A64BFF
:102A30009A7812B1A34A082111615B7813B1A14BB6
:102A400008225A61A14B1B780BB107F07DFEB368D9
:102A50009F4F13F0800F61D03B68E26D9D4D9A1A35
:102A6000002A5BDB03F543435033EB6595F8603098
:102A70009BB97A238DF82430974B0222B3F90030AA
:102A80006D20C3F1B40393FBF2F38DF82530FF21E1
:102A900009AB07F0A9F9012325E0012B26D18F49C5
:102AA0007923B1F900208DF824300A2392FBF3F248
:102AB0005A32B42AA8BFB42222EAE2728DF8252045
:102AC000B1F902206D2092FBF3F35A33B42BA8BF67
:102AD000B42323EAE3738DF82630FF2109AB0322E8
:102AE00007F082F9022385F8603017E0022B15D138
:102AF00064238DF8243001238DF82530724B6D202E
:102B00005B78FF21002B18BF01238DF826300322AC
:102B100009AB07F069F9002384F860303A68636E06
:102B2000D31A002B11DB684B597B61B99970654B47
:102B3000D96881F00801D96002F5F423654A03F5EC
:102B40009073536601E001229A7000250495D4F831
:102B50007421DDF810C05F4B9445614D80F2CD8744
:102B6000DDF810C003F168024C2101FB0C215D4A25
:102B700011602A781AB103F081F800F0BEBF93F813
:102B8000003113B1584A594BDA60564D2B6818681A
:102B900001F068FC002800F0AC872B68186801F091
:102BA0005CFC2B6893F84920C2B9B0F124056A4255
:102BB0006A4183F84920002AE7D1434B5B78002B18
:102BC000E3D1232802D103F059F8DEE796F82D343B
:102BD0008342DAD1464A474B1A60D3E7012A05D12E
:102BE0004D2814BF0022022200F07FBF022A05D127
:102BF0003C2814BF0022032200F077BF032A0DD126
:102C000040284FF0000200F2708783F847205A7185
:102C100083F848001871042200F067BF042A07D126
:102C20001A7983F8460050401871052200F05DBF04
:102C3000052AAAD193F8481093F8472091421979B0
:102C400007D941401971511C83F8471013449871FA
:102C50009BE7814240F0468793F84630752B00F0A1
:102C6000268500F21281692B00F07F8400F2C68075
:102C7000452B00F01C873FD8422B00F0DD860BD897
:102C8000402B00F0FC86412B40F02387002001F010
:102C900021FC002500F001BF432B00F0A686442B49
:102CA00040F01787002001F015FC0A4B012283F841
:102CB000002100F012BF00BF091E0020141E0020DA
:102CC000840C0020000C0140F10600207C0C002048
:102CD00064010020880C0020CE0100209C0300200D
:102CE0001C1E0020440000200400FA0500ED00E056
:102CF000EFBEADDEF04F0020662B00F0728272D87E
:102D0000642B00F04282652B40F0E3860B2001F03B
:102D1000E1FBCD4BCD4DB3F9000001F0DEFBB5F882
:102D2000200100B201F0D9FBDAF80030C3F3C00093
:102D3000C3F38002800040EA4200C3F34002104324
:102D4000C3F3401240EAC20003F01003184301F03D
:102D5000C4FBBF4A00201779D378BF0047EA430776
:102D600053781F43937947EAC307537947EA4317D8
:102D7000537A47EA8317B74BD97947EAC117197ACB
:102D800047EA0127597A47EA4127D17947EA81275B
:102D9000117A927A47EAC12747EA02375A7B95F8B7
:102DA0001F1147EA42379A7B47EA82371A7C47EA83
:102DB00002471A7947EA02175A7C47EA42479A7C47
:102DC00047EA8247DA7C47EAC2471A7D47EA025758
:102DD0005A7D47EA42579A7DDB7D47EA825747EAA8
:102DE000C3570346E8E1672B00F03582682B40F0BB
:102DF0007086102001F06EFB0025AEE36F2B00F013
:102E0000258423D86C2B00F0DA8317D86A2B00F0C6
:102E1000B8836B2B40F05D868C4D052001F05AFB8A
:102E2000B5F9240101F059FBB5F9260101F055FB74
:102E300095F8060100F0010000F00FBD6D2B00F0C9
:102E4000CC836E2B00F0D48300F043BE722B00F0D5
:102E50008D8410D8702B00F01784712B40F03986C8
:102E60007A4F002597F81F01400000F0FE0001F0A6
:102E700031FB00F028BC732B00F0BC84742B40F0B5
:102E800028860027012500F03DBCCE2B00F05E8592
:102E900040D8C82B00F08B8028D8782B00F0E88130
:102EA0000ED8762B00F0B184772B40F01286674D58
:102EB000002795F81F0101F00DFBA84600F04FBC5C
:102EC000A02B00F06B85A42B40F003865F4F0025FC
:102ED00097F83001B84680000130C0B201F0FAFA2C
:102EE00097F8300101F0C8FA00F066BDCB2B5CD03A
:102EF00008D8C92B6BD0CA2B40F0EB85564D05F195
:102F00000A0783E0CC2B00F0BB80CD2B00F01385AB
:102F100000F0DFBDD42B00F0358216D8D12B00F0A5
:102F2000C98407D8CF2B00F0CC80D02B00F0F984D7
:102F300000F0CFBDD22B00F01381D32B40F0C98518
:102F400001F016FC454B1880B6E0F02B00F01B8515
:102F50000DD8D62B00F0FB80EF2B40F0BA8501F0A6
:102F600007FC3F4DA88501F003FC6885A4E0FA2B1F
:102F700000F0F584FE2B40F0AC85082001F0AAFAA1
:102F8000384B394A1B680025B3FBF2F3C3EB4311FE
:102F900003EB810335490968B1FBF2F22B4902EBDF
:102FA000C303A1F82E3100F0E6BC00253BE000256C
:102FB00001F0DEFB2E4B58530235102DF8D10020C6
:102FC00001F088FA2B4B01221A7000F086BD01F047
:102FD000C4FB1F4B284DD87201F0BFFB274B187064
:102FE00001F0D0FB286001F0CDFB686001F0C0FB70
:102FF000164DA5F8020101F0BBFB95F80631A5F8C6
:10300000040143F0020385F8063155E001F0A5FB09
:103010000135687001F0A1FBE87201F09EFBBD4232
:103020006875F3D148E0094B93F81F21954243D2CC
:1030300003F20713EF5C01F09BFB094B013503EB37
:103040004707A7F84600EEE7B6040020880C0020EA
:10305000F1060020B0010020231D0020FC0100200B
:10306000241D00201400002040420F009400002086
:1030700060070020600100201802002000020020EC
:1030800001F06BFBB34DE87701F067FB85F820009A
:1030900001F063FB85F8230001F05FFB85F8240055
:1030A00001F05BFB85F8250001F057FB85F8210056
:1030B00001F053FB85F82200002001F00BFA00F02C
:1030C0000CBD01F055FB6FF4AF614318A24DC62B48
:1030D00098BFA5F85A0101F04BFBA5F8100101F0CB
:1030E00047FBA5F8120101F043FBA5F8140101F01C
:1030F0003FFB984FA7F8D00001F02FFB85F86A013D
:1031000001F02BFB85F86B0101F027FB85F86C01C2
:1031100001F023FB85F84A0101F01FFB85F86401EB
:1031200001F01BFB01F024FB00EB80004000388520
:1031300001F013FB85F84B0101F00FFB85F84D0101
:1031400001F00BFB85F84C0101F007FBB4E700250B
:1031500001F00EFB814B58530235102DF8D1ABE72F
:103160007F4B5B78002BA7D101F0F7FA7A4B02284E
:1031700083F82C044FF0000088BF0022014688BF6E
:1031800083F82C2404F0AAFB96E70720724D01F087
:10319000A1F9E72001F070F9687901F06DF90020DC
:1031A00001F06AF995F862016E4B6F4A00280CBF76
:1031B0001046184600F08ABC8B420CD26B4A9D5CCC
:1031C000012202FA05F53D4218BF9A4003F10103BE
:1031D00018BF1043F0E701F08AF95F4B93F82C0415
:1031E0003BE3122001F076F9614B624D1B88B3F589
:1031F000806F23D90027E85F082390FBF3F00237A4
:1032000001F06BF9062FF6D15B4DB5F9000001F026
:1032100064F9B5F9020001F060F9B5F90400574D01
:1032200001F05BF9B5F9000001F057F9B5F90200BA
:1032300001F053F9B5F9040000F01EBCB5F9000027
:1032400001F04BF9B5F9020001F047F9B5F90400B6
:1032500001F043F9D8E7102001F03CF90025484B74
:10326000585D013501F008F9102DF8D100F035BC9A
:10327000382001F02FF9374D0027B5F97E0001F015
:103280002CF9B5F9800001F028F9B5F9820001F0B8
:1032900024F9314B95F884005B79082B18D004D8B9
:1032A000012B0DD0042B05D04CE0142B1ED0152B78
:1032B0002ED047E0FBB2042B2FD0052B42D12CE0BF
:1032C000FBB2052B3ED1B5F8863013F0040F1BE09E
:1032D000FBB2032B01D0042B34D1B5F886309A070A
:1032E00048BF40F0010013F0010F28E0FBB2042BAF
:1032F00004D1B5F8863013F0020F05E0052B21D17B
:10330000B5F8863013F0010F1CD040F0010019E031
:10331000FBB2032B01D0042B04D1B5F8863013F097
:10332000020F07E0052B01D0062B0BD1B5F8863034
:1033300013F0010F18BF40F0010013F0040F18BF85
:1033400040F00200013701F097F8082F05F10A0557
:1033500093D1C2E3241D0020D8180020C00400200F
:10336000F10600200C0000C0040000C08F0D0020FA
:103370002C0000207C040020B0040020AC020020BF
:1033800082000020002001F0A5F8DFF80495002756
:1033900001F0EEF9A9F87E0001F0EAF9A9F8800041
:1033A00001F0E6F9A9F8820001F0D7F996F8058056
:1033B00020F00303B8F1080F054689F8843000F0C7
:1033C0008C8034D8B8F1010F00F08380B8F1040F7D
:1033D00040F0BC804FF0010C5FFA87FB6346CDF8EC
:1033E00000C0584629464246CDF80CC001F0D3F93A
:1033F000DDF80CC058466346CDF800C029460522CA
:1034000001F0C9F94FF0020C6346CDF800C05846F0
:1034100029464246CDF80CC001F0BDF9DDF80CC0DC
:103420005846CDF800C02946052263468CE0B8F125
:10343000140F77D0B8F1150F40F088805FFA87F845
:103440004FF0010B5B46CDF800B040462946032201
:1034500001F0A1F95B46CDF800B0404629460422B0
:1034600001F099F94FF0000C5B46CDF800C04046E2
:1034700029460522CDF80CC001F08DF9DDF80CC00D
:103480005B46CDF800C04FF0020B404629460622AD
:1034900001F081F94046294603225B46CDF800B091
:1034A00001F079F94046294604225B46CDF800B088
:1034B00001F071F94046294605225B46CDF800B07F
:1034C00001F069F9CDF800B04046294606225B4676
:1034D0003AE002230093F8B233E04FF0010B5FFAB9
:1034E00087F85B46CDF800B040462946032201F03C
:1034F00052F95B46CDF800B04046294604224FF011
:10350000000B01F048F94046294603220223CDF87A
:1035100000B001F040F9CDF800B040462946042241
:10352000022311E05FFA87FB4FF00108584643463B
:10353000CDF800802946042201F02DF900230093E4
:10354000584629460522434601F025F90137082F40
:1035500009F10A097FF41CAFBFE2C14B585D013588
:1035600000F08AFF102DF8D1B7E2102000F0B2FF72
:103570000025BC4B585F023500F0AFFF102DF8D18D
:10358000ABE2102000F0A6FFB74BB84DD87A00F0A0
:1035900073FFB74B187800F06FFF286800F0A7FFA3
:1035A0006868B44D00F0A3FFB5F9020100F095FF83
:1035B000B5F9040100F091FFB5F922015CE2AE4DCE
:1035C000062000F087FFB5F9000000F086FFB5F98E
:1035D000020000F082FFA94B07E0062000F07AFF0E
:1035E000A74B186800F083FFA64BB3F9000043E235
:1035F000A04D072000F06EFFA88F4FF6FF77FF2841
:10360000A8BFFF20C0B200F037FF286DB842A8BFA6
:10361000384620EAE07000B200F05FFF9A4BB3F941
:10362000000000F05AFF994B686C93F84A3100286B
:10363000B8BF40422BB10A235843B842A8BF38460E
:1036400002E0B842A8BF384600B215E2904D07200C
:1036500000F040FFE87F00F00FFF95F8200000F039
:103660000BFF95F8230000F007FF95F8240000F009
:1036700003FF95F8250000F0FFFE95F8210000F00B
:10368000FBFE95F82200E8E01E2000F023FF814DAC
:1036900005F10A070135687800F0EEFEE87A00F0DF
:1036A000EBFE687D00F0E8FEBD42F3D115E22F206D
:1036B00000F010FF784D15F8010F002800F00D8282
:1036C00000F0DAFEF7E797F81F319D4280F005829F
:1036D000724BEA5C6E4B013503EB4203B3F94600D3
:1036E00000F0FBFEEFE7074409F10109614B93F895
:1036F0001F21914509DB002D00F0EF81F8B200F0A9
:10370000E9FE00254FF00009F0E703F20713644AD1
:1037100019F803300C2101FB0323D3F83480404611
:103720000AF08DF80346002DDDD1AB469B45DBDA70
:1037300018F80B0002930BF1010B00F09DFE029BA9
:10374000F4E7584B554A2B441B7AB85C984201D198
:1037500000F092FE0C35B5F5907FF2D1013798F864
:103760001F319F4280F0B9810025EAE7474D1620BE
:1037700000F0B0FEB5F95A0100F0AFFEB5F9100146
:1037800000F0ABFE424FB5F9120100F0A6FEB5F90C
:10379000140100F0A2FEB7F9D00000F09EFE95F8EB
:1037A0006A0100F069FE95F86B0100F065FE95F87E
:1037B0006C0100F061FE95F84A0100F05DFE95F89D
:1037C000640100F059FE002000F056FEB7F9280011
:1037D0000A2390FBF3F000F080FE95F84B0100F017
:1037E0004BFE95F84D0100F047FE95F84C0100F0B6
:1037F00043FE31E0082000F06DFE0125E8B20135FE
:1038000000F03AFE092DF9D167E100F0A6FF8046ED
:10381000122000F05FFEB8F1000F01D1224B03E04F
:10382000B8F1100F03D1214B1F685D6801E000253E
:103830002F46404600F020FE384600F058FE28464D
:1038400000F055FE1A4B186800F051FE002000F001
:1038500044FE002000F041FE002000F00DFE3CE19F
:103860000A1D002060070020F10600201802002039
:1038700000020020880C00209C030020CE010020C4
:10388000E4010020D4030020C8010020D818002043
:10389000241D0020231D0020E70601088F0D0020B5
:1038A000E8060108180701080402002010020020A1
:1038B000E001002000F051FF074600F063FF814661
:1038C00000F060FF804600F05DFF054600F050FF0D
:1038D00000F04EFF00F041FF7FB9944B0122C3F886
:1038E0000480C3F80090924BDF711A73002D3FF4EF
:1038F000E3AB904B1D60FFF7DFBB102F7FF4DCAB19
:103900008D4BC3F80090C3F804800DB1894B1D6046
:1039100089488A4B0222011D1A7004F0C1FEFFF78C
:10392000CBBB834B5B78002B7FF4C6AB012005F04B
:10393000E3FDFFF7C1BB7E4B5B78002B7FF4BCAB94
:103940007F4B4FF4C8721A80FFF7B6BB784B5A789A
:10395000002A7FF4B1AB01229A73FFF7ADBB744B21
:103960005D78002D40F0B5802846012103F0B6FFB8
:103970002846FFF7A2BB734B585F023500F0ADFD40
:10398000082DF8D1A9E0704D042000F0A3FDB5F991
:103990002C0000F0A2FDB5F92A006DE00C2000F02B
:1039A00099FD6A4B186800F0A2FD694B186800F099
:1039B0009EFD684B186889E098F830319D4280F090
:1039C0008C80654F785D00F057FD07F11003585D5E
:1039D00000F052FD07F12003585D303700F04CFD38
:1039E000785D00F049FD0135E6E7002000F072FD4A
:1039F00000F0B3FE594D0023AB60687100F0C2FEC9
:103A0000AB681843A86000F0A8FE85F8570100F0E5
:103A1000AFFEA5F8260100F0ABFEA5F8280100F0E6
:103A2000A7FEA5F82A0100F0A3FEA5F8460100F0C4
:103A30009FFEA5F8480150E0484D102000F04AFDD7
:103A4000687900F019FDA86800F051FD95F857015C
:103A500000F012FDB5F9260100F03FFDB5F928018F
:103A600000F03BFDB5F92A0100F037FDB5F946013C
:103A700000F033FDB5F9480100F02FFD2DE00820DE
:103A800000F028FD0025354B2B4493F84F010135FC
:103A900000F0F2FC082DF6D11FE000F05EFE2F4B87
:103AA0002B440135082D83F84F01F6D115E0132082
:103AB00000F010FD00252A4B585D013500F0DCFCBC
:103AC0000B2DF8D1002000F012FD002000F00FFDBA
:103AD00003E00120002100F0DFFC224B1B68187975
:103AE00000F0CAFC1F4B00221B6883F84920FFF737
:103AF0004CB8049D0135FFF729B82B782BB1DAF8C3
:103B000000309E0600F1A982BEE2B268134B150593
:103B1000F5D5154A1278002AF1D093F87B2162BBC3
:103B200093F87C3113BB024B5B7821E00402002048
:103B3000F1060020E0010020100200200C0200200D
:103B4000141E0020B00D0020241D0020E8F7FF1FE8
:103B5000ECF7FF1FF0F7FF1FB90D0020D818002069
:103B6000A6180108440000207C0C0020D248037DE8
:103B7000003318BF0123002BC1D096F87A31002BF7
:103B800040F07581CD4BD86800F06CFC002840F007
:103B90006E81CB49D4F878510A68CA4B551B7C2DED
:103BA00040F26581C3F8782193F87C210546013203
:103BB00083F87C2105F12400C0B200F0C1FCC24BA7
:103BC00033F9150007F004FCC04B0746188807F0CE
:103BD000FFFB0146384607F003FDBD4907F04CFCEA
:103BE00007F010FE013500B200F0D6FC032DE1D144
:103BF000302000F0A5FCB74BB3F9000000F0CCFC7E
:103C000000F0ACFC94F87C0110F0030929D1B24F0C
:103C1000102000F095FC3B68642593FBF5F000B2A2
:103C200000F0BAFC212000F08BFC3B6893FBF5F020
:103C300005FB103585EAE570A0EBE57000B200F0F9
:103C4000ABFC142000F07CFCA44BB3F9000000F0A6
:103C5000A3FC1C2000F074FC484600F09DFC00F022
:103C60007DFC94F87C31974D580740F0DA800220B3
:103C700000F066FCB5F97E010A2790FBF7F000F032
:103C80008BFCB368990762D5AB8F4FF06E0909FBC7
:103C900003F9152399FBF3F91FFA89F93A204FF03C
:103CA000640800F04DFCB9FBF8FB0FFA8BF000F054
:103CB00073FC3B2000F044FC08FB1B9080B20530F5
:103CC000DFF8289290FBF7F000B200F065FC99F85D
:103CD0000030AA8F40F6340192FBF3F24A432A21C6
:103CE000B2FBF1F2B5F88011062091FBF3FB03FB68
:103CF0001B1B4FEA0B1B1FFA8BFB4BEA022B1FFA15
:103D00008BFBC2F303224BEA020B00F019FC0FFA03
:103D10008BF000F041FCB5F8802199F800300132B9
:103D200092B292FBF3F103FB11232820A5F8803116
:103D300000F006FC686C90FBF7F000B200F02CFC81
:103D4000042000F0FDFBB5F9500000F025FCDAF886
:103D500000309A0663D5624FDFF894913A68614D5E
:103D6000002AB8BF524292FBF9F305FB03223C2123
:103D700001FB02F813200391029300F0E1FB029B88
:103D800098FBF9FB03EB830303EB83030BEB83004B
:103D900005FB0B8B00B200F0FFFB4FF47A781B2081
:103DA00000F0CEFB9BFBF8F000B200F0F5FB232007
:103DB00000F0C6FB3A68002AACBF4E20532000F04A
:103DC000EBFB7A680399002AB8BF524292FBF9FBD9
:103DD00005FB0B224A430BEB8B0B92FBF9F91220EC
:103DE0000BEB8B0B039200F0ABFB09EB8B0000B2EB
:103DF00000F0D2FB1A2000F0A3FB039A05FB09296F
:103E000099FBF8F000B200F0C7FB222000F098FB0D
:103E10007B68002BACBF4520572000F0BDFB00F0B5
:103E20009DFB94F87C31282B21D12549254B0D6829
:103E3000002283F87C214FF47A73B5FBF3F8172046
:103E40003C2500F07DFBB8FBF5F7B7FBF5F005FB73
:103E50001070000200B200F09FFB182000F070FB11
:103E600005FB178000B200F097FB00F077FB96F897
:103E70007A31012B7FF443AE104DE86800F0F2FA7E
:103E800000283FF43CAEE86800F0E7FA064605205B
:103E900000F0B9FB8A2E4ED08E2EEDD100212E22BD
:103EA000114809F0AAFC7C2384F8AE31E02384F8A1
:103EB000B1317D231EE000BFB0010020D8050020F5
:103EC000D4180020880C00207C0400202C00002046
:103ED00000007A44D4030020B4030020CE01002067
:103EE00018020020806967FF360E0020280000209D
:103EF0008096980084F8DA31A38F84F8AF61DAB243
:103F00001B0A84F8CD3184F8C331142384F8C631F8
:103F100084F8C7314FF4FA73A4F8C8314823A4F8E1
:103F2000D031782384F8CC2184F8C22184F8D231AE
:103F300059482E218EE0DAF800309B069CD5574D6B
:103F4000002105F5C1702C2209F057FC7C2384F870
:103F50008231A02384F885317D2384F8AD31504B24
:103F600084F883611B7884F89C314E4BDB7A002BFC
:103F70006BD04D494D4A0E68DFF848E196FBF2F0F0
:103F80006623C0B285F8AB31F30F0EFB006606273F
:103F90007E4385F88B3142F21073B6FBF3FC00EBE5
:103FA000800003FB1C6649685FFA8CFC00EB800014
:103FB0000CEB800080B291FBF2F2D2B285F88C015A
:103FC000000A85F88D01C80F0EFB0211794385F8B0
:103FD000900102EB8202B1FBF3F003FB101302EB42
:103FE0008202C0B200EB820292B285F89121120ADD
:103FF00085F8922185F89331B5F804211B0A85F8DC
:1040000094316423B2FBF3F303EBC3039B009BB235
:1040100085F889311B0A85F88A31B5F8243185F88D
:104020008E6185F895311B0A85F89631B5F8023115
:10403000360A85F897311B0A85F89831B5F826318C
:1040400085F88F6185F89E3102E0202385F8AB3139
:1040500017482C2104F0B2FC0EE7164BD4F8DC21F3
:104060001B689A1A002A0FDB0D4A1278042A0BD912
:104070000A4A03F5123303F5F873C2F8DC310E4B2C
:10408000DA6882F01002DA600C4B9B680BB10C48C6
:1040900098470DB0BDE8F08F360E0020880C002048
:1040A00000020020F106002018020020A086010076
:1040B0000A0E002064010020000C01403805002099
:1040C000060E00206079FEFF034B4FF4805208B1CA
:1040D0001A6170475A61704700080140034B4FF462
:1040E000805208B15A6170471A6170470008014058
:1040F000014B33F81000704760070020034B184451
:1041000090F84F21024B33F812007047D818002066
:104110006C11002003799B070AD5436A8269D15448
:10412000426A03690132B2FBF3F103FB11234362DC
:104130007047037913F001030BD0026AC3699A42F6
:1041400005D09CBFC0681218D31AD8B2704700209F
:10415000704718467047037910B513F00103044601
:104160000ED0FFF7E6FF60B1E3696269D05CE268F8
:10417000C0B2013A934234BF01330023E36110BD62
:10418000184610BD426A806A131A58425841704757
:10419000017170477047034B53F820301B6819803A
:1041A000704700BF0C070020074BA1F57A7153F848
:1041B00020304FF47A701A689B884B4393FBF0F3DE
:1041C0009BB21380704700BF0C070020034B4FF4D5
:1041D00080521A8008B1024B187070472C000020E2
:1041E00081000020064B1A78064B12B14FF4FF6293
:1041F00001E04FF480521A8008B1034B18707047E9
:10420000901100202C000020580000202DE9F04FD4
:10421000504A514E1768738984463089A7EB0327AB
:1042200085B0039187FB0001B288CB111404C20949
:10423000F08842EA416287FB000114EB02087288B1
:104240004FF000054FEAC2344FEA1022B08945EB27
:10425000030942EA01620B1287FB000114EB020A18
:104260004FEAD05242EA41224FF0000545EB030BE2
:1042700012F5FA604FEAE15343F10001CDE9000184
:10428000B0F5FA6F71F1000147DAA2FB024502FBBB
:1042900003F1052605EB4105A4FB060106FB05110C
:1042A0004D104FEA3004B8EB040869EB05098408A7
:1042B0002A4844EA81748D104FF0FF31BAEB040AAA
:1042C0006BEB050BDDE9004584428D4125DA40F6B4
:1042D000AC5012184FF0000143EB010302FB03F155
:1042E000A2FB02236FF0060003EB4103544200FBE4
:1042F0000344A2FB000118EB000821444FF00B041B
:1043000049EB0109A2FB040104FB031149104FEA28
:104310003000BAEB000A6BEB010B114B1A68A2FBE1
:104320000A0102FB0B11420D42EAC1224B15B2EB0E
:10433000080263EB0903D00B40EA4340BCF1000FD5
:1043400001D0CCF80000039808B10099016005B0D5
:10435000BDE8F08F941100209C05002024FAFFFF97
:1043600098110020324B2DE9F0411C88314B0A2670
:104370005A89B3F91250A41A1A89ED025443B3F9B9
:104380001420E413224495FBF2F22244DA615643EE
:10439000A2F57A6202FB02F4B3F90480B3F902C019
:1043A000B3F90E7002FB0CFC02FB08F2B3F90C80AF
:1043B0002413674304FB08F4241404EB6232023232
:1043C000DC88921002F50042B3F920506243B3F941
:1043D00000304FEAEC2404EBE72404EB8304AC4008
:1043E000154B02341B68D20BA3EBA4044CF25033E0
:1043F0002B41634355BF5B00B3FBF2F3B3FBF2F316
:104400005B001A12524340F6DE3462430B4C08360E
:104410005C43241404EB224202F6CF62361103EB14
:10442000221300B1036001B10E60BDE8F08100BF4E
:10443000A411002060050020A011002043E3FFFF2D
:1044400038B50C680546204609F0F9F921460246C0
:104450002868BDE8384009F0FBB908B503689B68D7
:10446000984708BD08B503685B68984708BD08B55C
:1044700003681B68984708BD38B5064D04462B688D
:1044800021461868FFF7F3FF2B681A7954401C7116
:1044900038BD00BF4400002038B5044624200D4636
:1044A000FFF7EAFF4D20FFF7E7FF002C084C0CBF99
:1044B0003E202120FFF7E0FF2368002228461A71E2
:1044C000FFF7DAFF236893F84600BDE83840D3E7EA
:1044D0004400002001460020DEE710B50446C0B2CB
:1044E000FFF7CAFFC4F30720BDE81040C4E710B5CA
:1044F0000446C0B2FFF7C0FFC4F30720FFF7BCFFBC
:10450000C4F30740FFF7B8FF200EBDE81040B3E743
:10451000014B1868ABE700BFD805002010B5441E5A
:1045200014F8011F21B1034B1868FFF7A0FFF7E74C
:1045300010BD00BFD80500200048EFE77919010839
:1045400038B5054C05465E21E068FFF790FFE0684E
:104550002946BDE838408AE7D8050020014B5E2196
:10456000D86884E7D805002010B50A4C5E280146BB
:10457000E06805D15D21FFF77AFFE0683E2105E0A4
:104580005D2903D1FFF773FFE0683D21BDE81040CE
:104590006DE700BFD805002010B50446C0B2FFF794
:1045A000E3FFC4F30720BDE81040FFF7DDBF08B507
:1045B000014B1B68984708BD181E002010B5094A1A
:1045C000094913688C6812689342F8D1074A106849
:1045D00011684FF47A725043001BB0FBF1F002FBFC
:1045E000030010BDD418002010E000E0E404002017
:1045F00038B50446FFF7E2FF0546FFF7DFFF401B33
:10460000A042FAD338BD10B504462CB14FF47A70ED
:10461000FFF7EEFF013CF8E710BD40F2DB1460430A
:1046200008B50E4B10221A6108225A61841E0B4BEA
:104630002046DA6882F01002DA60DA6882F0080256
:10464000DA60FFF7E0FF0120FFF7B1FF1920FFF765
:10465000DAFF0020FFF7ABFFE9E700BF000C0140E5
:104660002DE9F04106460F4690460025EBB2434542
:1046700018D20024E3B2B3420FD20B4B0120DA6808
:10468000013482F00802DA60FFF791FF3846FFF745
:10469000BAFF0020FFF78BFFECE73C20FFF7B3FFEA
:1046A0000135E3E7BDE8F081000C01400A4B1A88B0
:1046B0000A4B52B99A7842B15A7862B901225A70BB
:1046C000074B1A88074B1A8070475B781BB902208A
:1046D000FF210122C4E77047840C0020F10600206E
:1046E000CE010020FE0100202DE9F0410F880023BB
:1046F00047FA03F2D2072BD58A7803F0070512F0A8
:10470000100F18BF91F803C002F00F0618BF46EA59
:104710000C06AD004FF00F0C0CFA05FC06FA05F57F
:10472000DC0850F82480282A28EA0C0C45EA0C05FD
:1047300040F8245005D101229A40C46824EA0202BC
:1047400005E0482A04D101229A40C4682243C2608D
:104750000133102BCCD1BDE8F081044B1B685A7992
:10476000511C597113449879704700BF44000020D0
:1047700010B5FFF7F2FF0446FFF7EFFF04EB002050
:1047800080B210BD10B5FFF7F3FF0446FFF7F0FF4E
:1047900004EB004010BD10B590429DF8084011D1C7
:1047A0001942094B4FF00A0202FB00304FF001039F
:1047B00003FA04F4B0F8863014BF1C4323EA04045F
:1047C000A0F8864010BD00BF241D0020024B5A787F
:1047D0000AB100225A707047F106002010B500247B
:1047E000084BE0B21B7883420BD9074B33F810100B
:1047F000064B1B78834202D9054B1B68984701344E
:10480000EEE710BD081D00200A1D0020090700204A
:10481000040700202DE9F04F0C68836889B0D0F8B8
:1048200000A0D0F804800646204603938B4609F08A
:104830004FFA0746204609F0BFFADBF804408146EC
:10484000204609F045FA0546204609F0B5FADBF89E
:10485000082004461046019209F03AFA019A83466C
:10486000104609F0A9FA39460290584606F004FEAF
:1048700039460490029806F0FFFD594605904846D7
:1048800006F0FAFD02990690484606F0F5FD294625
:104890000790584606F0F0FD0146504606F0ECFD44
:1048A00021468346069806F0E7FD0146059806F086
:1048B000DBFC0146404606F0DFFD0146584606F0A7
:1048C000D3FC21468346049806F0D6FD014607989E
:1048D00006F0C8FC0146039806F0CEFD0146584696
:1048E00006F0C2FC3060029905F1004006F0C4FDFC
:1048F0000146504606F0C0FD21468346079806F063
:10490000BBFD0146049806F0ADFC0146404606F0AA
:10491000B3FD0146584606F0A7FC2146834605989C
:1049200006F0AAFD0146069806F09EFC0146039893
:1049300006F0A2FD0146584606F096FC214670603E
:10494000504606F099FD2946044609F1004006F05C
:1049500093FD0146404606F08FFD0146204606F0D5
:1049600083FC39460446284606F086FD0146039836
:1049700006F082FD0146204606F076FCB06009B0E4
:10498000BDE8F08F2DE9F84F374E044637683846BA
:1049900009F09EF90546384609F00EFA7668804619
:1049A000304609F095F98346304609F005FAD4F807
:1049B000049006462946484606F05EFDA7688246F2
:1049C0004146384606F058FD0146504606F04AFC7E
:1049D00021688246584606F04FFD41460446484647
:1049E00006F04AFD314606F047FD0146204606F036
:1049F0003BFC31460446384606F03EFD294606F0AB
:104A00003BFD0146204606F02FFC0146504609F0CA
:104A100061FA164906F030FD06F06AF910A3D3E9F1
:104A2000002306F0E3FA124B044618680D4606F020
:104A30005FF902460B462046294605F0FBFF00229F
:104A40000C4B06F0D3FA06F0B9FB09F077F983B204
:104A50001A0444BF00F5B4739BB218B2BDE8F88FD6
:104A6000182D4454FB210940900400200000E1442B
:104A7000C00500200000244080EAE073A3EBE0734F
:104A80008B4206DB002801DD401A704702D0084443
:104A900070470020704770B50546441E14F8011F8A
:104AA00061B1074E304608F0BDFE0028F6D0861BE7
:104AB0000448631B304480F84F31EFE770BD00BFFE
:104AC0006F210108D81800200E4B1A78482A16D1F9
:104AD0005A88B2F5866F12D11A79BE2A0FD193F88F
:104AE0002E240020EF2A0CD113F8012B5040064A47
:104AF0009342F9D1D0F1010038BF00207047002067
:104B00007047704700F8010830FC010808B5FFF74E
:104B1000DBFF10B90A20FFF780FD0C4B0C4918464B
:104B20004FF4866208F060FE90F82C24022A84BFBD
:104B3000002280F82C2490F82C14E42202FB0101BE
:104B4000044801F5C07108F04FFE08BDD8180020D8
:104B500000F80108241D00202DE9F04102780346E9
:104B6000202A00F10100F9D0092AF7D02D2A02D11C
:104B70000346414D04E02B2A08BF03464FF07E5503
:104B80001E460024334616F8012BA2F13007F9B275
:104B900009290DD83949204606F06EFC04463846EE
:104BA00006F016FC0146204606F05EFB0446E9E7E7
:104BB0002E2A17D1314F334616F8010B3038C2B2C6
:104BC000092A0FD806F004FC394606F009FD014613
:104BD000204606F049FB29490446384606F04CFCBD
:104BE0000746E8E71A7802F0DF02452A38D15A78FA
:104BF0002D2A02D10233012604E02B2A14BF0133EF
:104C000002330026013B002713F8012F303AD1B2BE
:104C1000092903D80A2101FB0727F5E7B7F59A7F91
:104C200028BF4FF49A77B8464FF07E51B8F1070F7E
:104C300007D90846124906F01FFCA8F108080146EA
:104C4000F4E707F0070737B108460C4906F014FCF3
:104C5000013F0146F7E72EB1204606F0C1FC04E013
:104C60004FF07E51204606F007FC0146284606F02C
:104C700003FCBDE8F08100BF000080BF00002041C0
:104C800020BCBE4C70B50646B6FBF2F4084615468D
:104C900014B12046FFF7F6FF05FB1464024B1B5DC1
:104CA00000F8013B70BD00BFA719010890F83B3226
:104CB00010B57BB990F83A3290F83922934209D274
:104CC00001219940B0F8404201332143A0F840123D
:104CD000DBB2F3E710BD90F842321BB1D1F1010114
:104CE00038BF0021D0F834315A689B6809B113618C
:104CF000704753617047F8B5101A0C461F4606F00E
:104D000067FB0546381B06F063FB184B079E1968C6
:104D100006F0B2FB29460446284606F0ADFB2146C4
:104D20000746204606F0A8FB0146384606F09CFAE6
:104D300009F05AFA0E4906F09FFB06F063FD069B48
:104D40002146186005F1004009F0C4F8094906F051
:104D500093FB094906F088FA06F054FD0028BCBF11
:104D600000F50C40A0303060F8BD00BF48000020C6
:104D70002C7D8E3FA00CB34500A00C4610B506F06C
:104D800027FB0021044606F033FD08B1204601E070
:104D900004F10040054906F023FC054906F06CFBD0
:104DA00008F096FF034B186010BD00BF8096184BAB
:104DB00035FA8E3C4800002010B50B4CE37A8BB1DD
:104DC0000A4B1B78042B0DD9094A0A4B106852680C
:104DD00018605A60FFF7D2FF074B1A88074B1A80FA
:104DE0000123237310BD00BFF10600200002002044
:104DF0001802002004020020CE0100203010002004
:104E000044F25063984203DDA0F50C40A03870478F
:104E1000034B9842BCBF00F50C40A030704700BF68
:104E2000B0B9FFFF70B5204C204D607906F0CCFA88
:104E30001F4906F0D5FB2860E07B06F0C5FA1C4947
:104E400006F0CEFB1B4E6860EE60A07906F0BCFA5F
:104E5000194906F0C5FB194D2860207C06F0B4FA0C
:104E6000134906F0BDFB6860A07E06F0ADFA144958
:104E700006F0B6FBEE60A860E07906F0A5FA0E49F0
:104E800006F0AEFB0F4D2860607C06F09DFA0849E5
:104E900006F0A6FB6860E07E06F096FA084906F088
:104EA0009FFBEE60A86070BD241D0020EC0F002069
:104EB0000000C8420000FA4400002041FC0F00201E
:104EC00000007A44201000202DE9F047304A0023EA
:104ED00092F82050D47F03FB03F01938684300F6A2
:104EE000C4105843604340F6C41190FBF1F02949C7
:104EF00021F813000133072BEDD192F8213092F8FD
:104F00002260254AC3F1640CB2F81051B2F8129134
:104F100003EB830758425FFA8CFC7F00C6F16408FC
:104F2000C5EB090980B2002284B221B2002904DC59
:104F3000002C14BF1C46012400E0644601FB01FA6A
:104F400064430AFB06FA9AFBF4F444444C434FF0E2
:104F50000A0A94FBFAF43C4424B204FB09F44FF42B
:104F60007A7194FBF1F40D492C44545202325044AE
:104F7000182A80B2D8D1064BBDE8F0471B78012B28
:104F800018BF074A074B08BF074A1A604AE700BF25
:104F9000241D0020880C0020D8180020A00C002020
:104FA000C9970008100000202D9A0008084B9A8924
:104FB00098811A89D007FCD5054B9889C0B2044B5B
:104FC0001A899107FBD51A891206FCD4704700BFD5
:104FD00000380040044B1B78834204D9034B53F83C
:104FE00020301B68198070473C07002040070020D4
:104FF00003280E4B09D80E4A12888A4205D2012294
:1050000002FA00F01A78104318701B780F2B0BD19E
:10501000064B00221A70074B198808B2142802DDCB
:105020001439198070471A80704700BF680E00203D
:105030002E00002024010020104B10B55A88598002
:10504000891A9A8089B240F68C2291421C4602D974
:1050500000229A7110BDA1F2EF2292B240F2DA530F
:105060009A4207D8A079072804D8054B23F81010D6
:10507000FFF7BEFFA3790133A37110BD680E0020B6
:105080006C110020AFF300802DE9F04F9B4B95B0E1
:1050900093F86A31C4B2012B00F0E78002D3022BEF
:1050A00040F0C885242C964D0CD006D80A2C00F070
:1050B0008C800D2C00F08980C3E02A2C07D02C2C8A
:1050C00005D0BEE000232B706B70AB70CAE06A782D
:1050D0002E782A4400218A4BD170EEB9DA789E747A
:1050E000472A19D11A79502A16D15A79472A07D155
:1050F0009A79472A04D1DA79412A01D101229A7496
:105100006A797F4B522A07D19A794D2A04D1DA79EC
:10511000432A04BF02229A74AB7C794F012B02D040
:10512000022B33D046E0B31E072B43D8DFE803F051
:10513000040810141C24422901F032FB686139E094
:10514000EA786F4B532A35D15A6952425A6131E09D
:1051500001F026FBA8612DE0EA78694B572A29D196
:105160009A6952429A6125E0EA78664B302A94BFE8
:1051700000220122DA721DE0002001F0F1FA287706
:1051800018E0002001F0ECFAE88313E0072E06D0C7
:10519000082E0FD1012001F0E3FA78840AE0012003
:1051A00001F0DEFA41F2184358434FF47A72B0FB33
:1051B000F2F33B84013600232A2C514A2E706B7087
:1051C0004BD1012182F824104CE095F82430002BBB
:1051D00033D04B4BDB78402B04D9A3F137021201BB
:1051E000D2B202E01B0103F0F0022B79A978402B28
:1051F0008CBF373B303BDBB21344DBB29942404AB1
:105200001AD1937C012B08D0022B15D1118C3E4B67
:10521000528C19803D4B1A800EE03A49C97A61B12F
:105220003B495069086090694860107F39490870AF
:10523000D18B394A118000E00023002285F8242018
:1052400010E06B782E4A0E2B03D8591C1344517072
:10525000DC7095F824302A4A1BB991784C40947040
:1052600000E0002303F001032FE1254B002193F818
:105270002520082A00F22881DFE802F00B05141E21
:105280002F506E8A9700622C01D1022207E083F82A
:105290002510B52C40F0188193F82520013283F8B1
:1052A000252011E1032283F8252083F8264083F886
:1052B000274083F8284007E1042283F8252093F84B
:1052C000272093F828102244D2B283F827200A44DA
:1052D00083F8282083F82940F6E0052283F825206A
:1052E00093F8272093F828102244D2B283F827207D
:1052F0000A4483F828205C85E6E000BFD818002027
:10530000700E0020F10600208C0D0020AA0D002058
:1053100018020020000200208A0D0020062183F8D8
:10532000251093F8271093F828002144C9B283F878
:105330002710014483F82810598DB04A01EB04244A
:10534000A4B2B4F5007F89BF00215485518582F84D
:10535000251000229A85B7E093F8272093F82810AB
:105360002244D2B283F827200A4483F828209A8D59
:10537000C72A03D8A149114481F83040013292B2C2
:105380009A855B8D934240F09F8007229B4B86E776
:10539000082283F8252093F82730A34200F0948058
:1053A000964A002382F825308FE083F8251093F881
:1053B0002810924AA14240F0878092F829100629CD
:1053C0003BD004D8022911D0032923D07CE0122934
:1053D00049D0302978D192F83410894A102988BFF1
:1053E000102111701078874900224AE08649506BDD
:1053F0004860906B0860116C4FF47A7091FBF0F18B
:1054000082480180824992F8F800C872012182F82E
:10541000F9104BE092F8351011F0010105D092F827
:105420003420D01E4242424100E00A4683F8F82070
:10543000002A3BD17649CA7238E092F83B1011F04D
:10544000010105D092F83A20D11E4A424A4100E0BB
:105450000A4683F8F8200AB96D49CA7293F85F10BA
:105460006C4A117022E0516C6B480180916C42F2E1
:10547000107091FBF0F169480180012182F8FA1067
:1054800014E0824201F10C0110DA11F8045C644C62
:10549000155511F8035C634C155511F8015C624C0D
:1054A00015550D78614C15550132EAE793F8F9303E
:1054B000524A4BB192F8FA3033B1002382F8F930F6
:1054C00082F8FA30012300E00023002B00F0B283C1
:1054D000574B9A68DA60574A116890469960564B64
:1054E000196841F020011960544B197801290CBF4B
:1054F000002201221A70464BDA7A002A00F09A83C1
:10550000444A1278042A40F295835A7802B91A73F1
:105510001B7B13B90AB1FFF74FFC384C4FF0050E57
:1055200094F8FB3004F1FA06013393FBFEFE0EEB18
:105530008E0ECEEB030E424B84F8FBE01B780396F5
:10554000049304F5807303EB8E0E00232E493D4A2D
:105550005D583D4E9D5095FBF6F002F108069851BE
:105560003A4E5F1806FB005542F2107C95FBFCFC9E
:105570000597039F1FFA8CFC02F1100A27F802CF4F
:1055800003EB830B53F80A6003975EF80B704EF839
:105590000B50C7EB060909EB0506052543F80A6021
:1055A00096FBF5F6284D183205FB0060049E9850D6
:1055B000012E0F4606D1ACF1020CBCF5797F9CBFE1
:1055C000059A10600433082BC0D10C4DD8F80000A8
:1055D000D5F84831C01A05F0F7FE1D4906F000F86D
:1055E000D8F800304FF07E51C5F84831064606F035
:1055F000E1F878BB4FF07E502DE000BF700E002028
:10560000B80D0020A00E0020180200208A0D0020F6
:10561000F1060020000200208C0D0020AA0D0020C1
:10562000B90D0020C90D0020D90D0020E90D002082
:10563000AC070020D4180020340500208E0D002077
:105640000C020020980F002080969800806967FF68
:1056500000007A44304610AAC5F84C01B44B0092C1
:1056600011AA019297E803000CCBFFF744FB109AB4
:1056700064231198AF4992FBF3F20A8090FBF3F395
:10568000AD4AAE481380037B81460BB90B80138073
:1056900095F85031AA4E002B3AD0D6F84C114FF065
:1056A0007E5005F09DFFD6F8543180463868C01A08
:1056B00005F08EFE414605F0DFFE06F0A3F8D6F8B1
:1056C00058211FFA80FA78680FFA8AFA801A05F0D2
:1056D0007FFE9C4B196805F0CFFE414605F0CCFEDD
:1056E00006F090F8B6F95E3100B2C218B6F95C3136
:1056F0000221534492FBF1F293FBF1F392B29BB27D
:10570000A6F86221A6F86031A6F85E21A6F85C3101
:10571000012385F850317968386899F80830C5F860
:105720005811C5F8540123B9844BDB79002B00F0E4
:105730008182834E06F5B673009306F5B873019324
:10574000D4F86421D4F86831FFF7D5FA7B68D4F82F
:105750006801C01A05F03CFE7A4B196805F08CFE12
:1057600006F050F8D4F864313A68C4F878019B1A0E
:10577000C4F87431744B93F90030012B03D0022B21
:1057800000F0F48056E2D6F87C51D6F898410395A3
:10579000D6F88C71D6F8905104F100400695049724
:1057A00006F030F88146204606F02CF8D6F84C81F9
:1057B000D6F8946107904046059605F099FA634B38
:1057C000044693F8DA000D4605F0FEFD05F090FA68
:1057D00055A3D3E9002305F0DFFA02460B4600206B
:1057E0005B4905F003FC2B46224605F023F90246EF
:1057F0000B462046294605F0F9FBCDE90801554E38
:105800000025554C54F81570A4F11403384635F8AA
:1058100003A005F0DDFD039905F02EFE05F0F2FF73
:10582000CAEB000080B22834285304B2204605F0A9
:10583000CFFD049905F020FE05F0E4FF1FFA80FB80
:10584000E01905F0C5FD069905F016FE414605F084
:1058500013FE316805F008FD05F0D4FF484504DB70
:10586000079A9042A8BF104600E0484605F0B0FDF8
:10587000306005F0C7FFB46858441FFA80FB20462B
:1058800005F036FACDE90A0170680AF1310A381AD2
:1058900005F09EFD414605F0A3FE214605F0E2FC21
:1058A00005F026FA02460B46DDE9080105F074FA18
:1058B00002460B46DDE90A0105F0BCF805F07EFC66
:1058C0001FFA8AFABAF1620F014630617760B06060
:1058D0000ED9059805F0D0FD05F094FF1F4BB0F5EB
:1058E000FA6FA8BF4FF4FA609842B8BF184600E0BC
:1058F0000020834440F6B8330FFA8BFB9B45A8BFCA
:105900009B46174B0A229B45B8BF9B466A43154BE3
:1059100056F8141B25F803B0134B0235042DD15053
:1059200000F088816DE700BF182D4454FB21194019
:1059300004020020AC0D0020AE0D0020F106002076
:10594000700E0020480000200C020020241D0020C2
:105950000000F03F54020020E40F002030F8FFFF69
:1059600048F4FFFF280200207C020020B64AD6F847
:105970006CA1B2F9E0909AFBF3F39945A8BF994660
:10598000B6F8A0411FFA89F90FFA89F223B29A42B8
:105990000BDDAE49D6F84C0105F06EFD05F032FF87
:1059A00020441FFA80F9A6F8A091D5F87041D5F8E7
:1059B000A461A61B3046FFF723FA0028D8BF404257
:1059C00041F293139842CCBF0020012078B33046B7
:1059D00005F0FEFC9E4905F04FFD08F0EDF9064686
:1059E000504605F0F5FC0146304605F045FD05F052
:1059F00009FF80B240F6B83203B29342A8BF134603
:105A0000944AA5F8A8019342ACBFE318A31848F63E
:105A1000A042934203DDA3F50C43A03B04E0002B1E
:105A2000BCBF03F50C43A033C5F8AC3101E0C5F8A9
:105A3000AC41D5F8AC61C6F50C502830039605F0A2
:105A4000C7FC834905F018FD044608F041F913909E
:105A5000204608F0B1F9D5F8BC41D5F8B071D5F8B9
:105A6000B461129004F100400597089605F0CAFE53
:105A70000490204605F0C6FED5F84CB1D5F8B851D3
:105A80000A905846079505F033F96F4B044693F892
:105A9000DA000D4605F098FC05F02AF968A3D3E971
:105AA000002305F079F902460B4600206A4905F00B
:105AB0009DFA22462B4604F0BDFF02460B462046C7
:105AC000294605F093FACDE90C01644E00270FFA40
:105AD00089F005F07DFC12AB53F8171005F0CCFCF3
