:020000040800F2
:10000000005000205DD5000809D60008F9A50008B9
:1000100009D6000809D6000809D60008000000002B
:1000200000000000000000000000000009D60008E9
:1000300009D600080000000009D60008D5A5000870
:1000400009D6000809D6000809D6000809D6000814
:1000500009D6000809D6000809D6000859A60008E4
:1000600009D6000809D6000809D6000809D60008F4
:1000700069A5000809D6000899A5000809D6000856
:1000800009D6000809D6000809D6000809D60008D4
:1000900009D6000809D6000809D6000855A60008A8
:1000A00009D6000809D6000809D6000847A60008A6
:1000B0003DA6000831A6000825A60008F5A5000801
:1000C000EDA50008F1A50008E9A5000809D600087B
:1000D00009D6000825A50008B1A4000879A40008E5
:1000E0005DA6000809D6000809D600080000000037
:1000F0000000000000000000000000000000000000
:0C01000000000000000000005FF808F1A3
:100110002DE9F04F854D99B0AB68854C13F008017F
:1001200000F0868095F84721042A00F28380DFE8FA
:1001300002F003030550750023787CE060787C4A68
:10014000002877D000209E05507002D5137E180736
:1001500070D4E0780023A27800F00706A383754BE3
:1001600042EA06221A60227902F03F06760146EA48
:10017000D00058606079800040EA9210A27902F0C5
:10018000010640EA86209860E07900F00F06F6014B
:1001900046EA5202DA60227A02F07F06360146EA27
:1001A00010101861607A400040EAD212A07A00F084
:1001B000030642EA46225A61E27A02F01F06B601BD
:1001C00046EA90009861207BC00040EA5212DA6152
:1001D0002CE0A27F564B6AB393F82000002201283E
:1001E0009A7727D19A8393F83420082A84BF08226B
:1001F00083F8342094F834004F4A0023DEB286425C
:1002000002F1020212D212F8016C12F8027C46EAE4
:1002100007274A4E46F823700133EFE794F8583029
:10022000434A00203BB1908382F85800012302E04A
:100230000B4600E00023E26D206E101A002802DA5F
:10024000002B00F09D8302F59C4220322266DFF8ED
:1002500004A13B4E00293CD13A4F89468846DAF842
:1002600000305FFA88F09847A0F2EE2292B240F296
:10027000DC539A42D4F8A420334B88BFB5F84A0126
:100280001340002B03DA013B63F0030301332849D9
:1002900003EB880301EB4303A3F8640039887B88F0
:1002A00008F101080B44B988B8F1080F0B44F9882C
:1002B00007F108070B441BB24FF0040193FBF1F365
:1002C00026F8093009F10209C9D10132C4F8A42085
:1002D00009E00027F8B2DAF80030984726F817004E
:1002E0000137082FF6D1AB68590404D594F8A8302B
:1002F0000BB907F004FB95F854210C4B62B30332A1
:1003000036F91200A0F57A70B0F57A7FA8BF4FF4E5
:100310007A7020EAE0700AF087FE0C490AF08CFF40
:100320000B490AF0D5FE0BF0BFF82AE0BC180020FC
:100330000001002074070020220100203801002065
:1003400048070020640100200300008000007A4478
:1003500000C07F446C07002093F8550190B1A84A73
:10036000D179A84A32F81100B3F8582180B2801A26
:10037000B3F85631C0EB802090FBF3F000B280F36D
:100380000A0080B2AB68A4F8BE009A053FD59E4B28
:100390009E4AB3F81C9092F8C8300FFA89F703EB25
:1003A00083018F4290461EDDDFF868A29AF8012093
:1003B000CAB1974AB2F84A2132807280B280B8F846
:1003C000CA20F28098F8C920134403EB83039F42AC
:1003D00004DD07F094FA00238AF80030B4F8C03046
:1003E0000133A4F8C03098F8C83003EB83039F4270
:1003F00009DD884F97F80180B8F1000F03D107F0AD
:100400007EFA87F8008009F10109A4F81C90002207
:10041000B5F84C11B5F84E711346B05E9B08884292
:10042000C4BF63F07F03DBB20232B842B8BF43F00F
:100430004003082AF1D194F8C200734A984205D1CA
:1004400092F8C300F92804D8013000E0002082F8B7
:10045000C30084F8C230AB686D4A13F480436B4F1D
:100460000CD0B2F84A11B2F80C21B6F90630881A4D
:10047000834208DD0A44934207DB04E0B6F9062014
:100480008A4202DB16E0002314E00023C4F8D033D4
:10049000C4F8D433C4F8D833C4F8D030C4F8D43056
:1004A000B7F846302BB1584B93F8A830002B41F0E9
:1004B000FB870123B7F846206AB194F8A82052B907
:1004C000544A52783AB195F8512112B107F017FA0F
:1004D00001E0002BFAD194F8C3204B4B142A40F0D2
:1004E000B1804C4A50789046D0B1B7F846202AB92E
:1004F00093F8C2305F2B01D107F001FA95F8503123
:10050000002B00F09F80B7F84630002B40F09A8017
:1005100094F8C2307D2B40F0958007F0F0F991E01F
:1005200093F8C220572A15D13B4B4FF47A721A80A8
:10053000AB68DB0501D507F0DDFC384B1B685807BD
:1005400002D5374A0A21118013F0080326D1A4F8F6
:10055000C43023E0A968490717D55A2A15D193F862
:10056000C6202AB1012283F8C60083F8C72015E00F
:1005700093F8C82082F0010283F8C820294B0AB101
:10058000022200E003221A7008E05D2A01F095873C
:100590005B2A01F094875E2A01F09387B7F8463012
:1005A00033B994F8C2206F2A02D107F033F915E06D
:1005B00095F8502122B11BB994F8C2307E2BF4D0AB
:1005C00094F8C230972B04D1174B4FF4C8721A809D
:1005D00004E0A72B04BF012388F80E3094F8C23042
:1005E000BB2B02D1BB8D023303E0B72B03D1BB8DF4
:1005F000023BBB851FE0BE2B18D17B8D023319E077
:10060000F4040020FC04002000010020EC1C002069
:10061000BC180020D90600206C0C00202C050020FE
:100620006E0C0020CD1D0020D81D0020BD2B09D14F
:100630007B8D023B7B850120014605F0FBFF0023FB
:1006400084F8C330D5F808E01EF0040F31D094F8D8
:10065000C820A14B8AB1A14A527872B1A04AB6F91A
:100660000610B2F84C21914207DD93F8A82022B978
:100670003221A3F8CA1083F8C82094F8B920964B09
:1006800062B193F8CC202AB993F8C62012B932226D
:10069000A3F8CA20012384F8CC300AE093F8C620DE
:1006A0003AB18E4A527822B983F8C620012283F8E3
:1006B000C7208C480123002130F8022F03F1FF3CB2
:1006C000A2F21556B6F5C77F8CBF002601269E40C4
:1006D00012B2314340F21356B242CCBF002601267B
:1006E00006FA0CF6314340F2A466B242D4BF0022AF
:1006F00001225E1CB240033311430D2B89B2DBD1C2
:10070000002307EB4306B6F84660734A31420CBF3C
:100710000026012602F1A8001E540133152BF0D14A
:1007200092F8A9306D4E704943B9704BB2F91C2054
:1007300093F8C83003EB83039A420CDD0B689807EB
:1007400009D5F3784BB9C4F8D030C4F8D430634B32
:100750000122DA7001E00023F37094F8AA305E4AB7
:100760005BB10023F370337943B9C2F8D030C2F8DB
:10077000D4305A4B01221A7100E0337194F8A8303A
:100780000BB901233370F278594B12B9534A1279DD
:1007900012B110225A6101E010221A610A68510751
:1007A00025D594F8AB104C4B99B1B17991B94B4820
:1007B0004FF0010C80F806C0D3F8DC00C3F8EC1051
:1007C000C3F8D800B3F8E800C3F8F010A3F8E000CD
:1007D00000E0B1711EF4005F09D094F8AC302BB189
:1007E000F37B23B93D4B0121D97300E0F37312F081
:1007F0000A0F20D094F8AD3037494BB1737943B923
:10080000364B01205871B1F8C430A1F8F43000E043
:10081000737194F8AE302BB1737A23B92F4B012149
:10082000597200E0737294F8AF102B4B19B1B3F802
:10083000C410A3F8F610930640F19180F27A274B8A
:10084000002A00F0878094F8F820DFF88C80042AD2
:1008500040F2808098F8B2208AB1DA79002A7ED1FD
:100860000121D9711A72234B08F1FC0008F580713F
:100870001A7007F073FF022388F804316FE0DA7111
:1008800098F8B320002A37D0B8F9E210B7F8DC2086
:100890000029B8BF494291422EDAB8F9E410002984
:1008A000B8BF4942914227DA1A7A002A57D1012764
:1008B0001F72104B08F584701A70D8F8103108F5C3
:1008C0008671C8F80831D8F81431C8F80C3107F02F
:1008D00045FF88F8047142E000010020D90600209D
:1008E000BC1800204E0700202C050020EC1C002026
:1008F000000C014000000020944A0023337213785A
:100900006BBB012111701A46914F0020391D5052C6
:1009100007F1080107F10C0E5052002143F80E10A8
:100920009E44D053CEF80400CEF80810023207F1EE
:10093000340E5C3743F80E10D9519E441F44042AEC
:10094000CEF80400CEF808107860B96003F1140303
:10095000DAD104E00023F371337284F8043194F89F
:10096000B43003B10123B3726B7903F0EF02082AAC
:1009700002D00E2B40F066840023737200F062BC3C
:10098000744BD3F89C31042B00F25C84DFE813F045
:1009900005008B00F8004D033E040123C4F89C3190
:1009A0006D4B6C4E1B6818077DD5D6F8A031D31A55
:1009B000002B78DB694B02F5C332A0325B6806F589
:1009C000D270C6F8A0219847654B06F5D2779A7B7E
:1009D000184692B1D6F8A0210023C6F8AC21E91838
:1009E0000022A1F8302116465E49FA5A5A520631C1
:1009F0005A520233062BF2D186735B4B1B78A3B19C
:100A0000B4F8A421B5F83031D31AA4F8A431B4F85D
:100A1000A621B5F83231D31AA4F8A631B4F8A8212A
:100A2000B5F83431D31AA4F8A831D4F8AC31494A16
:100A3000002B00F00784D2F8A0114C48CB1A834257
:100A400002F5DB7102F5D87019D8494BDA6882F0EB
:100A50000802DA600023FA5A30F903E016B2B6450C
:100A6000C4BFDFF800E123F80E2031F903E0B645FA
:100A7000BCBF404E9A530233062BECD1E2E3002375
:100A8000C2F8AC31C75ECE5EEA183E4402273B4452
:100A900096FBF7F6062BA2F83061F3D10120014650
:100AA00005F0C8FDCEE3D4F89C312A4E0133C4F8DA
:100AB0009C31294B1B68590762D5D6F8BC31D31A33
:100AC000002B5DDBD6F8C031C6F8BC212A4F9BB1A4
:100AD0003B6998477B689847D6F8BC313A8806F559
:100AE000E2701344C6F8BC3106F5E4717B6998479F
:100AF0000023C6F8C031A5E3BB689847FB68984758
:100B00001E4AD6F8CC1192F831204B1C934208BFF4
:100B10000023D4F8C42104EB8101C1F8D021D4F81A
:100B20009012C4F8CC310A4404EB8301D1F8D0010F
:100B30000123121AC4F89022C4F8C0317A88D4F87C
:100B4000BC311344C4F8BC317CE300BF000000207A
:100B500018020020000100202C050020A405002020
:100B6000D9060020B0020020CC0500207FC3C901B7
:100B7000000C0140B60200207C050020EC1C002087
:100B8000D4F89C31B14E0133C4F89C31B04B1B6892
:100B90005B0740F14A8206F0C5FDD6F8987246F22E
:100BA000A713C71B9F42B6F896A2B6F894B240F2BC
:100BB0003C82DFF8C892C6F89802B9F80030DFF836
:100BC000B8827BB398F83100D6F89032D6F89C22E0
:100BD0000138B3FBF0F0082392FBF3F1521A1044F2
:100BE000C6F89C0290FBF3F00AF01EFA99490AF04D
:100BF00023FB99490CF0A8FF01464FF07E500AF004
:100C00005DF996490AF064FA0AF028FC0023C6F858
:100C1000A432C6F8A832B9F80030C6F8A002013BE9
:100C2000A9F8003098F831000FFA8BFB0FFA8AFA16
:100C3000D4F89032BBF1000FB8BFCBF1000BBAF182
:100C4000000FB8BFCAF1000AD345A8BFDA46013881
:100C5000B3FBF0F01FFA8AFACDF814A00AF0E0F91D
:100C60007C490AF0E9FA7C490CF06EFF01464FF02E
:100C70007E500AF023F979490AF02AFA0CF096FE20
:100C8000D8F834608146D4F8AC020AF0CDF9314688
:100C90000AF01EFA8046D4F8A002C0EB09000AF060
:100CA000C3F9314681464FF07E500AF007F90146FC
:100CB00048460AF00DFA014640460AF001F90CF0E8
:100CC00075FEDDF814A083460FFA8AF8B8F1FA0F22
:100CD000634E03DD4FF0FF33336014E030680AF0F9
:100CE000A3F9814640460AF09FF901465D480AF0A3
:100CF000E5F8014648460AF0EBF95A490AF09CFA31
:100D00000AF0ACFB3060366806F1FF39B9F1C60F66
:100D100006D8C6EB0B03C4F8B032C4F8AC622FE0BF
:100D2000D4F8B032002EC3EB0B0BDFF820A1C4F8CF
:100D3000ACB225DDC6F596700AF076F94A490AF09C
:100D40007BFA8046CAF8B40230460AF06DF9414693
:100D50000AF0BEF9064658460AF066F9414683464F
:100D60004FF07E500AF0AAF8014658460AF0B0F952
:100D7000014630460AF0A4F80AF070FBCAF8AC024B
:100D80003A4B186802930AF04BF9394906460AF0C3
:100D90009FF98346D4F8C0020AF046F98046D4F899
:100DA000C4020AF041F9014640460AF045FA314AC8
:100DB000079011680AF08CF931460AF089F92E4A39
:100DC0004FF07C51D2F83CA0D4F8A482D4F8AC62A5
:100DD000069003920AF07CF959460AF079F95946CF
:100DE00084464046CDF810C00AF072F9DDF810C014
:100DF000014660460AF064F8D4F8A8120AF060F8D8
:100E000051460AF065F9834630460AF00DF951461D
:100E100084464FF07E50CDF810C00AF04FF8DDF850
:100E200010C0014660460AF053F9014658460AF0E0
:100E300047F8039A029BB9F1C60FC4F8A80291467D
:100E40009A461DD8014AC2F8DC601EE0000100206D
:100E50002C05002080E6C547B1DC423ED048874AD9
:100E600040000020000061440000C842D01D002066
:100E7000BD378635C0050020EC1C00206E0C00201C
:100E80000AF0ECFAB04BC3F8DC00069940460AF0D1
:100E900017F80346D4F8C8024FF00008CAF80080DB
:100EA000C4F8B882C4F8BC82C4F8C082C4F8C48252
:100EB000301A02930AF0B8F8A4490AF009F98246F8
:100EC00038460AF0ADF8014650460AF0B5F90AF086
:100ED000C5FA40F2DC529E499042A8BF10468842B3
:100EE000B8BF08460A21C4F8C86206F061FE029B3A
:100EF000D9F838608246314618460AF0E9F80746C4
:100F000050460AF091F8314682464FF07E5009F083
:100F1000D5FF014650460AF0DBF80146384609F095
:100F2000CFFFC4F8A4020CF041FD0521064606F0EF
:100F30003FFE059FDFF810B23BB2B3F5487FC4F81F
:100F4000CC026BDA9BF8D0320BBBDBF8D820DBF895
:100F5000DC308048D31AB3F5FA7FA8BF4FF4FA7398
:100F60008342A8BF18460A2106F022FE7A4B80224F
:100F70001B79584390FBF2F3B3F5967FA8BF4FF46B
:100F80009673A2F5D6729342B8BF134601E0DBF820
:100F9000D43299F80A209B1B5A43202192FBF1F28C
:100FA00099F81400D4F8EC1042F2040603FB001088
:100FB0006A4BB2F5967FA8BF4FF496729842A8BFCD
:100FC0001846674B9842B8BF1846C4F8EC0090FB2F
:100FD000F6F0644EB242ACBF8618861999F81E002E
:100FE0000AF022F8D4F8D8120746079809F068FFEB
:100FF000014638460AF06CF84FF06C510AF068F878
:101000000AF02CFA6FF095039628A8BF9620984214
:10101000B8BF1846301AC4F8F00001E0CBF8F080F1
:10102000DDF81C90C4F8D8920CE1D4F89C3101335F
:10103000C4F89C31AB68DF0540F1E8804A4EB368E4
:1010400063B94A4F3B78013B042B00F2FB80DFE899
:1010500013F0110011001100CC00B500B06806F0CB
:10106000B2F80028EDD0404B986806F0A7F802F0DF
:1010700083FFF3E795F85A91B9F1000F03D0B9F166
:10108000010F09D097E07A78394BB06803EB02136F
:10109000596806F08EF88BE0B068DFF8CC80036802
:1010A0001B699847002800F086803B782F4E022B62
:1010B0002CD0032B35D0012B7DD12E4BD3F80090B3
:1010C000736AC3EB0903632B75D9F369042B1BDC2B
:1010D000DFF89CA0D8F808000AEB0313596806F063
:1010E00068F87378D8F808800AEB03139E6816F83E
:1010F000011B19B1404606F0F0FAF8E7FB69C7F8A2
:1011000024900133FB6156E0022052E07278184BC4
:10111000D8F8080003EB0213596806F04AF80320D8
:1011200047E03369012B29D0022B41D0002B42D15B
:10113000326A114BC6F8109053F8321003EBC20319
:101140005B687161B36136E00001002000247449DE
:1011500024FAFFFF0CFEFFFFEC1C00202003190007
:10116000E0FCE6FFD4FEFFFFD0050020940700203E
:1011700010FD0008B8180020FCFD0008F369B269F2
:10118000934209DA7269D8F80800D15C06F0A5FA32
:10119000F3690133F3610EE0326A7B490132326256
:1011A00051F832200023F36102B90223336102E0D7
:1011B000042004F083FF00237B6043E07B6805226A
:1011C00001337B607B7801200133DBB2B3FBF2F2A9
:1011D00002EB82029B1A7B706C4B6D4A1B68BB60F2
:1011E000002384F8F830D3720DE0684B1A68BB68AE
:1011F000D21A40F6C4139A4224D9664B05201A68C5
:1012000022F020021A6004F059FF1BE00023C4F80A
:101210009C31604B1B68DE0614D55C4B1A685E4B34
:1012200019683C318A420DD31A605C4F5C4A5D4BB1
:101230005D4EC3F8DC223B880B20336106F08CFA4C
:101240003B88736106F06EFAAB89E06533B1554AAD
:10125000D2F8E022821A002AC1F24581534E184486
:10126000C4F8E002736852489847524B1A8899466E
:10127000002A00F0C0804E494FF0000801F1080636
:101280004746B9F800B04C4BBBF57A7F08D1A3F1C3
:101290003C010A2000FB0711002243F808200A61E4
:1012A000434AD05F53F80820024443F8082009F06D
:1012B000BBFE33690133012B336104D1002370601D
:1012C0003060B3602AE0D6F800C002936146CDF8E2
:1012D00010C0039009F0F2FD029B8246184609F007
:1012E000A3FE0146504609F0A7FFDDF810C00146F5
:1012F000604609F0E5FD039A034619467060104602
:10130000029309F0DBFD0146504609F0E1FEB168A9
:1013100009F0D6FD029BF0603360B06024480023E2
:1013200000F1500ABBF1010FC35327F80A3055D121
:101330003069012807DD013809F076FE0146F068C2
:1013400009F07AFF00E000200CF086FD834695F856
:10135000260198B309F068FE014658460AF074F871
:1013600060B34FF47A73A9F800300023C4F8FC325C
:10137000C4F81033C4F82433C4F83033C4F82C3321
:10138000C4F828332AE000BFFCFD0008B81800208C
:10139000D90600202C050020C8070020BC0700202B
:1013A0004000002000010020000C0140300500201A
:1013B000E40300206C0C002028040020B54B4FF4FF
:1013C0007A7258F803300A2003F5FA7393FBF2F3AC
:1013D0002AF807300F21012206F0F6F90237062F0E
:1013E00008F1040806F114067FF44BAFB9F8003099
:1013F000013BA9F800300023A74E06F5397706F522
:101400004D72F95A9A5A8A1AFA520233062BF3D1BC
:10141000A24B1B6813F0020300F09A83A04BA14F6C
:1014200006F23A305B689847388806F23A36002868
:1014300044D000231A46DFF888C2B0F5C87F04BF45
:1014400000214CF8021036F903805CF80210DFF836
:1014500048E241444CF80210002105EB0308F15228
:101460000233062BDFF848C2A8F82A1102F1040261
:10147000E1D101281FD1DEF840334FF4C872C833E0
:1014800093FBF2F3ACF82A31DEF84433C83393FB14
:10149000F2F3ACF82C31DEF84833C83393FBF2F2A8
:1014A000814B1B88D21A814BACF82E215985998526
:1014B000014605F0BFF83B88013B3B80AB687C4AA6
:1014C00058077CD5B4F8CA10734B322913D1B2F83F
:1014D0002A01A3F84C03B2F82C01B2F82E21A3F88C
:1014E0004E03A3F85023714A508D928DA3F85203F6
:1014F000A3F8542301E000293DD000221746DFF86D
:10150000C4E1322904BF00234EF807305EF807001B
:1015100036F902C005EB020860444EF807004FF0B0
:10152000000E26F802E00232062A5B4B6048A8F85B
:101530002AE107F10407E2D1012919D15D4A022607
:101540001670B3F84C2383F8CCE0A0F82A21B3F846
:101550004E2383F8C610A0F82C21B3F85023A0F82E
:101560002E21524AB3F85203B3F854335085938571
:101570000139A4F8CA1094F8C720474BFAB1D3F840
:1015800058033221002290FBF1F083F8C720A5F820
:101590002A01D3F85C03D3F8603390FBF1F093FB9E
:1015A000F1F1414BA5F82C011B880120C91A3F4BD2
:1015B000A5F82E1101465A859A8505F03BF8B4F836
:1015C0003A23B5F82A310027D31AA4F83A33B4F8ED
:1015D0003C23B5F82C31BB46D31AA4F83C33B4F8FD
:1015E0003E23B5F82E31D31AA4F83E3306F09AF80C
:1015F000D4F864330646C31A1846059309F010FD63
:101600002D4A0790D16809F063FD284BC4F8646344
:1016100093F82EA006903E469846284B0DF12809D7
:10162000985F09F001FD069909F052FD49F807009D
:10163000BAF1000F4AD0504609F0F6FC01464FF0CF
:101640007E5009F0F9FDDFF88090034619464FF00F
:101650007E50029309F032FC57F8091009F038FD6A
:10166000A9F12E010246885F039209F0DDFC029B7E
:10167000194609F02DFD039A0146104609F020FC99
:1016800049F8070009F0EAFE09F10C0929F80600FB
:1016900021E000BF28040020000100202C050020CC
:1016A00044050020D81D00202C000020EC1C002048
:1016B000BC180020CD1D002030050020E4030020D0
:1016C000400400205804002068040020C04BA3F10F
:1016D0003A02B25AF252BE4B0437F25E0236062E7E
:1016E00002FB02BB994698D1642303FB0BFBB94B69
:1016F00009F108001B880AA95B439BFBF3FBABF1D4
:10170000490B1FFA8BFB06F01FF9BBF13B0F6BD99E
:10171000B14BD4F88463B3F9000009F085FC0146AD
:1017200030464FF0010709F08FFE00B90746AB4B7A
:101730003146D4F880035F730CF004FA0746C4F80E
:101740008803D4F87C03D4F884A300F10046D4F8CD
:101750008003014609F0BCFC51468146504609F021
:10176000B7FC0146484609F0ABFB0CF075FB01469F
:1017700030460CF0E7F90646C4F88C03384609F009
:10178000E3F88FA3D3E9002309F032F909F042FB13
:101790000CF00CF9A4F89402304609F0D5F888A3AF
:1017A000D3E9002309F024F909F034FB0CF0FEF82A
:1017B0008B4BA4F896021B6819076DD50AA98948B6
:1017C00006F0C2F8B5F8240109F02AFC4FF07E516A
:1017D000834609F075FB01464FF07E5009F02CFD61
:1017E0004FF0000A06902DE0B5F8220109F018FC30
:1017F0004FF07E51074609F063FB01464FF07E50E3
:1018000009F01AFD4FF0000A0646DFF8ECB1384641
:101810005BF81A1009F05CFC034639F90A000293E0
:1018200009F002FC029B0146184609F049FB3146CB
:1018300009F04EFC4BF81A000AF1020ABAF1060F41
:10184000E3D165E7DFF8AC91584609F5647252F8C8
:101850001A10039209F03CFC09F5D271844631F963
:101860000A00CDF810C009F0DFFBDDF810C001461A
:10187000604609F025FB069909F02AFC039A42F814
:101880001A000AF1020ABAF1060FDBD1104606F07F
:1018900013F9A9F8C40044E0DFF860A10AA90AF12D
:1018A000040006F051F8DAF80400DAF808300146CE
:1018B000DAF80CB0029309F00BFC029B8146194642
:1018C000184609F005FC0146484609F0F9FA594660
:1018D0008146584609F0FCFB0146484609F0F0FAFB
:1018E0000CF0BAFA0021814609F086FDA0B9DAF8B9
:1018F0000400494609F0A0FC4946CAF80400DAF899
:10190000080009F099FC4946CAF80800DAF80C000A
:1019100009F092FCCAF80C00334806F0CDF8A4F8A0
:10192000C4003249079809F0D3FB06F1004681460E
:1019300007F10047B4F9C4000E960D9709F074FB47
:1019400000F1004009F000F81FA3D3E9002309F0DB
:101950004FF809F05FFA0F90B4F9740309F064FBD3
:101960001090B4F9760309F05FFB1190B4F9780395
:1019700009F05AFB0DA9129010A805F0E5FF1C4BC9
:101980001C4E93F84430012B3AD1144B5B7873B959
:10199000D6F89C33402093FBF0F0181A09F044FB72
:1019A000129909F08DFA09F059FDC6F89C03D4F894
:1019B0009C33402093FBF0F024E000BFAFF30080A5
:1019C0003B597E90A9E78140399D52A246DF913F65
:1019D000740400202C000020BC050020D906002043
:1019E0002C0500209004002004000020BD3786351F
:1019F000EC1C0020000100207C04002000000020DE
:101A0000B94B188809F010FB0146129809F056FAF4
:101A1000B64B12901968484609F052FA01464846FA
:101A200009F00AFCD4F8A07381463946129809F0EF
:101A300045FA0146484609F04BFB0146384609F095
:101A40003FFA0746C4F8A0031098D4F8B8920BF0F8
:101A5000ADFF98F8301006F0ABF84844C4F8B8026F
:101A60001198D4F8BC920BF0A1FF98F8301006F052
:101A70009FF84844C4F8BC023846D4F8C0920BF032
:101A800095FF98F82F1006F093F8994B059F1A6868
:101A900048443A441A60D4F8C432964E0133C4F82C
:101AA000C43298F87630C4F8C002002B56D0D6F86D
:101AB0007C03D6F88093014609F00AFB494680462C
:101AC000484609F005FB0146404609F0F9F9D6F809
:101AD000847380463946384609F0FAFA0146404692
:101AE00009F0EEF90CF0B8F90146384609F0A4FB0C
:101AF0008149074609F094FC18B10023A6F8A433E5
:101B00002CE038460BF0CEFF7C4B196809F0E0FA68
:101B10000BF04CFFB0F5617FA8BF4FF4617008F087
:101B200001FF6FA3D3E9002309F08CF809F072F9E3
:101B30000BF07AFF724B074693F8760009F074FABF
:101B4000394609F0C5FA0BF031FFA6F8A40305E009
:101B5000A6F83A33A6F83C33A6F83E336B79012B4E
:101B60000ED1B4F9A623B4F9E83203EB4203032201
:101B700093FBF2F39BB2A4F8AC33A4F8A63303E0D2
:101B8000B4F8E832A4F8AC33B4F8E432594FA4F80E
:101B9000A833B4F8E6325A4EA4F8AA3305F0C2FDD1
:101BA000584BE0651A681860821AA4F8AE2300F05A
:101BB000AFFC554B196811F0080F34D0B7F8E62088
:101BC00002F145039BB28A2B29D8504B58799E4687
:101BD00028B3B7F8F430B7F8C400C01A80B283B2A3
:101BE0001FB2B337BCBF00F5B4739BB218B2B328B1
:101BF0009EF80D70C4BFA3F5B4739BB295F81C0199
:101C00008FB140B240424343707A1BB243436FF0FE
:101C10001D0093FBF0F31A44A4F8E62003E0B4F8A7
:101C2000C430A4F8F4304A0740F19780374B9A79D2
:101C3000002A00F092801F7C002F40F0848096F8EC
:101C4000730096F872202B4B80B3B4F8E8C0B4F957
:101C5000E0000FFA8CFEC0EB0E08B8F1000FB8BF21
:101C6000C8F1000890450FDD8645C8BF52421FFAF3
:101C70008CFCC8BF92B2C3F8EC706244012783F8B1
:101C8000B073A4F8E82068E093F8B0232AB1D3F841
:101C9000DC2083F8B073C3F8D820D4F8F030B5F85E
:101CA00002211844B5F80031984244E0B4F9E070DC
:101CB000B4F9E8E0C7EB0E0E8EEAEE7CACEBEE7CFE
:101CC000944525DD02229EFBF2F2C3F8D4220122C4
:101CD00083F8D02283F8B02325E000BFAFF3008063
:101CE000A2EB0FE5DD1696402C000020C805002071
:101CF000D01D0020000100208FC2753CC4050020CB
:101D0000EC1C0020680C00202C050020D9060020C7
:101D100093F8B0233AB1D3F8DC2083F8D002C3F8AB
:101D2000D82083F8B003D4F8F020B5F800313A4455
:101D3000B5F802019A4203DB8242B4BF1346034660
:101D4000A4F8E83009E0B4F8E42095F95301D4F898
:101D5000F03000FB0323A4F8E43096F876305BB152
:101D6000A04BDA780AB91B7933B1B4F8E830B4F88B
:101D7000A4231344A4F8E8308B0640F1B180994BBA
:101D8000DA791AB91A7A002A00F0AA801B7B002B94
:101D900000F0A680B4F9C40009F046F9924909F0B0
:101DA00097F980460BF040FE814640460BF0C8FD97
:101DB00096F8D5A080468D4FB4F92201BAF1000FF4
:101DC0005CD0B7F81E31CAF100071FFA83FB1BB2C3
:101DD000C01A06F0B3F8B84203DB5045A8BF50461E
:101DE00000E03846B4F81C318344B4F920019AB2BB
:101DF0001BB21FFA8BFBC01AA4F81EB1039206F0A7
:101E00009DF8B842039A03DB5045B4BF07465746D6
:101E10001744BFB2A4F81C710FFA8BF009F004F953
:101E2000824638B209F000F941460746504609F0AB
:101E30004FF949468346384609F04AF90146584663
:101E400009F03CF86A4909F0F7F909F007FB49463F
:101E5000A4F81801504609F03BF94146814638463E
:101E600009F036F90146484609F02AF8604909F0B8
:101E7000E3F909F0F3FAA4F81A0131E009F0D4F813
:101E80008346B7F9200109F0CFF84146824658460B
:101E900009F01EF9494603465046029309F018F925
:101EA000029B0146184609F009F8514909F0C4F9A6
:101EB00009F0D4FA4946A7F81801584609F008F97C
:101EC00041468146504609F003F90146484608F06C
:101ED000F7FF474909F0B0F909F0C0FAA7F81A016D
:101EE000444B1B699847444B1A78032A13D9B4F919
:101EF000E600B4F9B6130028B8BF40426FF06303A0
:101F00001B1A994204DB00F164038B42A8BF0B4605
:101F1000A4F8B63306E0012A04D8324A137C002B19
:101F20005AD17CE096F9CEB0B4F9B613CBF1000BE0
:101F300001FB0BFBB4F8E830B4F8B493B4F8B2A3E7
:101F40002E4F4FF00008904507F11007E5D218B268
:101F50000392029309F068F857F8101C09F0B8F8DA
:101F600084460FFA89F0CDF810C009F05DF857F8F3
:101F7000081C09F0ADF8DDF810C00146604608F015
:101F80009FFF84460FFA8AF0CDF810C009F04CF894
:101F900057F80C1C09F09CF8DDF810C001466046AB
:101FA00008F08EFF84465846CDF810C009F03CF882
:101FB00057F8041C09F08CF8DDF810C001466046A3
:101FC00008F07EFF09F04AFA0D49029B21F818003B
:101FD000039A08F10108B6E75378094993B9B5F8AF
:101FE00004311BE0D906002035FA8E3C00010020A8
:101FF0000000204100000020D01C0020E805002047
:10200000D21C0020B4F9E800B5F80031B5F802712F
:10201000984203DB8742B4BF3B4603460B80697995
:102020000139C9B2172900F2C480012303FA01F172
:10203000A54B0B4053BBCF0640F1BB8096F97E30D9
:10204000B4F99602A1495843322390FBF3F0B6F855
:102050007C3080B21AB2112ADCBF9D4B33F81230AB
:1020600003440B80B4F9940296F988305843322324
:1020700090FBF3F0B6F8863080B21AB2112ADCBFBA
:10208000934B33F8123003444B8092E0937A53B170
:10209000B4F8E230ADF84030B4F8E430ADF8423096
:1020A000B4F8E63009E0B4F8B233ADF84030B4F833
:1020B000B433ADF84230B4F8B633ADF84430854BA4
:1020C000B5F84A211B88ADF84630814B1989511A61
:1020D000ADF848105989511AADF84A109989511A2A
:1020E000ADF84C101988511AADF84E105988511A94
:1020F000ADF850109988511AADF85210D988521A7B
:10210000ADF85420B4F89622ADF85620B4F89422D5
:10211000ADF85820002202EB82013144B1F87C0076
:1021200001B21129D8BF33F8110068495052023268
:10213000102AF0D1684B1B7803EB430E0023734544
:1021400028D0664A4FF00A0898189A5C477808FB2E
:102150000268B8F880800DF1600948FA07F809EBC9
:10216000470737F9207C90F9020018F0010F00FBB7
:1021700007F00CBF4FF001084FF0FF3800FB08F0EC
:1021800031F812C0642790FBF7F0604421F8120088
:102190000333D4E7002303EB83023244C85E92F991
:1021A0007E204243642092FBF0F2CA520233102B8D
:1021B000F1D1AB6898063ED5B6F87C30B6F886000B
:1021C0001AB2112AD8BF424B4049D8BF33F8123057
:1021D00002B2112AD8BF3E480B80D8BF30F8120097
:1021E000DFF80CC1488094F8B010384A074611B3A4
:1021F00096F8D010BCF9944211F0020F96F98800BD
:102200004FF0320196F97EE0BCF996C218D06043D7
:10221000CEF1000E0CFB0EFC90FBF1F06FF03104E0
:1022200080B29CFBF4F404449CFBF1FC2344604426
:102230001380074457802A4B2A4A03F1100410E008
:102240000CFB0EFE60439EFBF1FE734490FBF1F12C
:1022500013800F44EEE723F8021FA34202F10A02A3
:102260000CD0B3F90200B2F97810B2F87A70884253
:10227000F1DB39B28142A8BF0146ECE796F8D030D5
:10228000590706D4184B134A93F800C0118801234C
:102290000FE0164B0024DE7D043E0D4BA01903EB2E
:1022A0004403C0B21989013405F032FF042CF4D183
:1022B000E8E763451ED232F9130009B28842A8BF8D
:1022C000014689B20133F4E7892098007E0000209E
:1022D00048070020D21C0020A8060020A9060020E4
:1022E0007C000020EC1C0020D01C0020D005002029
:1022F00000010020B5F80201B5F80061431A1FFA89
:1023000083F9AB68B5F8044103F480420992774A37
:1023100003F0100B764BB2F90620B5F806715B7826
:10232000B5F84AA1B5F808E1B5F84C510192B2B23E
:1023300008930597079506921FFA84F84FEA4C0C0C
:102340000023634539D00AB282426A4D02DDEA5A5F
:102350004A44EA52099F674AA7B1019D5545D55E97
:1023600007DD754503DB8542A8BF05461CE07546C1
:102370001AE0A54204DB059FBD42A8BF3D4613E01D
:10238000254611E0ED5EB54203DB8542A8BF054658
:1023900000E03546D552079F019DBD4205DA069DF6
:1023A000BBF1000F18BF4546D552089A1AB9524AD8
:1023B0009D5A504A9D520233C3E7504B9B7D002BE0
:1023C0006FD04F4D6B79013B172B5ED8DFE803F0E0
:1023D0000C5D5D1A605D5D225D5D5D5D5D2A5D5D2C
:1023E0005D5D5D1A2A5D5D3A464B93F8CF301BB1B7
:1023F000454B0020598952E03D4B58780028F7D1D1
:1024000001464CE0404C0020218905F081FE01206E
:10241000618944E03C4C0020E18805F079FE012010
:1024200021893CE0384C0020E18805F071FE012054
:10243000218905F06DFE0220618905F069FE032007
:10244000A1892CE0304C0020E18805F061FE0120DC
:10245000218905F05DFE0220618905F059FE032007
:10246000A18905F055FEAB68DA071AD5042021884A
:1024700005F04EFE0520618805F04AFE0620A18881
:1024800005F046FE0720E18909E0AB689B0608D508
:102490001D4C0020218805F03BFE6188012005F0DD
:1024A00037FE05F035FA1EE0114B1B78002B3EF489
:1024B00000A805F0AFF9FDF7FCBF012202E00222FF
:1024C00000E003225FFA82F9002009F1FF330146A0
:1024D00085F8103404F0AEF8022028214A4605F0B1
:1024E00073F9FEF75BB819B0BDE8F08F480700201C
:1024F000D9060020D21C0020B8040020D0050020FE
:10250000BC180020EC1C00207E000020AFF30080EF
:10251000634B2DE9F04FB3F90600624B8DB0DA8CB6
:1025200090420FDBB0F5FA6F93F8254007DA811A75
:102530004C43A2F5FA6294FBF2F4643403E0C4F174
:10254000640400E06424584A93F82360B2F84A1106
:1025500092F91C2193F8705093F87170524293F8DD
:10256000243092B2049100210692059607930A4600
:102570004B4BDDF810C031F9038040F2E636CCEB6E
:10258000080303F2F31EB64503D8002BB8BF5B4225
:1025900001E04FF4FA73022ADFF814C12CD025B100
:1025A000AB42CCBFC5EB030300236426DFF804A1D4
:1025B00093FBF6FE6FF0630B3AF81E900BFB0E3B9D
:1025C0000EF1010E3AF91EA00FFA89FECEEB0A0EAB
:1025D0000EFB0BFE9EFBF6FECE442CF801E0DDF870
:1025E00014C003FB0CFE314B9EFBF3F333449BB250
:1025F000634393FBF6F314E027B1BB42CCBFC7EBB8
:1026000003030023DDF818E003FB0EF6ACF80460CA
:10261000079E002BB8BF5B427343244E93FBF6F337
:102620006433DFF88090DFF890C002EB090696F87B
:1026300001A096F80BB0767D03FB0AFA03FB0BFBB7
:1026400073434FF0640E9AFBFEFA02F80CA093FB62
:10265000FEF30CF1030A0CF1060C02F80C30DDF865
:1026600010C09BFBFEFBE04502F80AB0104B05DAF8
:1026700033F801E0CEF1000E23F801E00132032A25
:1026800001F102017FF474AF074DB5F84C2190427F
:1026900014DBB0F5FA6FA8BF4FF4FA600FE000BF8B
:1026A00048070020EC1C0020BC1800200CFEFFFF97
:1026B000E2010020700C00207E0C00201046801AE1
:1026C0004FF47A714843C2F5FA62B0FBF2F24FF070
:1026D000640CB34C92FBFCF104EB4100B0F818E041
:1026E0006FF0630000FB012204EB4101B1F91A0015
:1026F0000FFA8EF1411A4A4392FBFCFCE644A3F820
:1027000006E0A84BA84F5B7A002B44D0A74BB3F947
:102710000000A74BB3F90030C01A08F003F99EA3DC
:10272000D3E9002308F064F90022A24B08F08AFAEA
:1027300008F070FB80460BF003F9814640460BF031
:1027400073F98046B7F9020008F06EFC8246B7F9CB
:10275000000008F069FC4946834608F0B9FC414690
:102760000646504608F0B4FC0146304608F0A6FB89
:1027700008F074FE49463880504608F0A9FC4146EE
:102780008146584608F0A4FC0146484608F098FBEC
:1027900008F064FE7880D5F80880DFF848A218F0C9
:1027A000020F00F08380844B06211A88236B7C4F34
:1027B0001A4494F8343022630133DBB2B3FBF1F9ED
:1027C00001FB193919F0FF0684F8343004965CD106
:1027D0007A4E7B4B7078B96B33F810E04FF0080BF2
:1027E00091FBFBF01FFA8EFE081A7044B86390FB51
:1027F000FBF080B20392019308F016FC714908F0D7
:1028000067FC714908F018FD81469AF83B0108F011
:102810000BFC0146484608F05BFC08F045FE9AF8C0
:102820003E11B887039A019B79B37079396C33F8FC
:10283000100091FBFBF380B2CB1A03443B6493FB83
:10284000FBF39BB240F6E441594340F6FF70B1FB05
:10285000F0F1BAF838014FF47A73091A5943BAF80B
:10286000360191FBF0F14A4392FBF3F37964D7E927
:102870001201C01841EBE371C7E91201534A00236A
:1028800008F032FE049E38653E63514AA38F1288D9
:102890009A4203D395F83D219A4203D9002384F844
:1028A000543003E03E4B042283F8542049483C4B0B
:1028B000417B94F8542001B1012118F4007F83F882
:1028C000551022D0444E454B96F8C8101B8801EB9A
:1028D000810618B2B04215DD324E76787EB10126FF
:1028E00084F856603C4E96F8C960314401EB810192
:1028F000884207DD2A49022081F8560002E00221C1
:1029000084F856100BB984F85630354E33689B0660
:102910000CD530498B7A0BB9CB7A23B1214BDB7ABA
:102920000BB9012300E0002384F8573094F85610C7
:102930001B4B022902D14C204E211DE0012904D15C
:102940004D2153204C220B4607E093F857100129E4
:1029500006D1532001464E224D2303F059FB4EE091
:1029600093F85510012903D1532001460246F3E79D
:10297000042A03D153204D210A460AE0022A03D13A
:10298000532001464D2204E0012A2DD153204D2130
:102990004E224423E1E700BF182D4454FB21094097
:1029A000700C0020D9060020E2010020C4010020A4
:1029B000F601002000806640AE040020F4040020F0
:1029C000FC0400203333534000F07F45407E050077
:1029D00004050020A8010020EC1C00201C010020A0
:1029E0002C050020BC180020B04A107818B1322005
:1029F00003F0E0FA03E083F8580004F08BFEAC4BE0
:102A00001A8812B133689F0702D4AA4B1B882BB1D6
:102A1000A94BDA6882F00802DA600FE0A74B9A78D7
:102A200012B1A54A082111615B7813B1A24B0822AB
:102A30005A61A34B1B780BB107F0B2FCAB681806C8
:102A400062D5A04AA04F1368E26D9A1A002A5BDB98
:102A500003F543435033FB6597F860309BB97A2305
:102A60008DF82430994B0222B3F900306D20C3F168
:102A7000B40393FBF2F38DF82530FF2109AB06F088
:102A800027F9012325E0012B26D191497923B1F9BA
:102A900000208DF824300A2392FBF3F25A32B42A34
:102AA000A8BFB42222EAE2728DF82520B1F90220F3
:102AB0006D2092FBF3F35A33B42BA8BFB42323EA5F
:102AC000E3738DF82630FF2109AB032206F000F9ED
:102AD000022387F8603017E0022B15D164238DF8AC
:102AE000243001238DF82530744B6D205B78FF2155
:102AF000002B18BF01238DF82630032209AB06F006
:102B0000E7F8002384F860306E4B1A68636ED31ABE
:102B1000002B11DB694B597B61B99970664BD96801
:102B200081F00801D96002F5F423674A03F5907338
:102B3000536601E001229A700027D4F87021624B9D
:102B40009742DFF8A4A180F2398703F168014C2095
:102B500000FB07115F4A11609AF80010914619B105
:102B600002F004F800F02ABF93F8003113B15A4A7A
:102B70005A4BDA60D9F80030DFF858A1186804F031
:102B800022FB002800F01787DAF80030186804F0FC
:102B900015FBDAF8003093F84920C2B9B0F12401EE
:102BA0004A424A4183F84920002AE3D1434B5B78EB
:102BB000002BDFD1232802D101F0D8FFDAE795F806
:102BC00011348342D6D1464A464B1A60CFE7012AD8
:102BD00005D14D2814BF0022022200F0E8BE022ACF
:102BE00005D13C2814BF0022032200F0E0BE032AD6
:102BF0000DD140284FF0000200F2D98683F847201B
:102C00005A7183F848001871042200F0D0BE042ADB
:102C100007D11A7983F8460050401871052200F058
:102C2000C6BE052AA6D193F8481093F847209142D2
:102C3000197907D941401971511C83F84710134481
:102C4000987197E7814240F0AF8693F84630752B34
:102C500000F02C8400F21181692B00F0718300F2E6
:102C6000C280452B00F0818640D8422B00F03A8686
:102C70000CD8402B00F05C86412B40F08C86002065
:102C800004F0D4FA4FF0000A00F063BE432B00F0CA
:102C9000FD85442B40F07F86002004F0C7FA0A4BE4
:102CA000012283F8002100F07ABE00BFCD1D002074
:102CB000D81D00206C0C0020000C0140D90600201B
:102CC000640C00205C010020700C0020C401002076
:102CD00094030020440000200400FA0500ED00E009
:102CE000EFBEADDEF04F0020E01D0020662B00F0AF
:102CF00094826CD8642B00F06182652B40F04B8687
:102D00000B2004F093FAD84BDFF878A3B3F9000056
:102D100004F08FFABAF81E0100B204F08AFA3368A0
:102D2000C3F3C000C3F38002800040EA4200C3F353
:102D300040021043C3F3401240EAC20003F0100304
:102D4000184304F076FAC94A002092F804E0D378D8
:102D50004FEA8E0E4EEA430E53784EEA030E9379F5
:102D60004EEAC30E53794EEA431E537A4EEA831E4F
:102D7000BF4BD9794EEAC11E197A4EEA012E597A13
:102D80004EEA412ED1794EEA812E117A927A4EEA9C
:102D9000C12E4EEA023E5A7B9AF81C114EEA423E80
:102DA0009A7B4EEA823E1A7C4EEA024E1A794EEA2D
:102DB000021E5A7C4EEA424E9A7C4EEA824EDA7CE1
:102DC0001B7D4EEAC24E4EEA035E03460EE2672BBF
:102DD00000F06382682B40F0DE85102004F026FAB4
:102DE0004FF0000AA1E26F2B00F0288324D86C2B4F
:102DF00000F0D88218D86A2B00F0B2826B2B40F01A
:102E0000CA85DFF880A2052004F010FABAF9220181
:102E100004F00FFABAF9240104F00BFA9AF806014B
:102E200000F0010000F062BC6D2B00F0CA826E2B36
:102E300000F0D28200F0AFBD722B00F0D88311D821
:102E4000702B00F01B83712B40F0A585DFF834B2A6
:102E50004FF0000A9BF81C01400000F0FE0004F057
:102E6000E5F961E3732B00F00884742B40F093853F
:102E70004FF0000A4FF0010B7AE3CE2B00F088846C
:102E800044D8C82B00F094802BD8782B00F0158202
:102E90000FD8762B00F00084772B40F07C85DFF88C
:102EA000E4A14FF0000B9AF81C0104F0BFF953465F
:102EB00095E3A02B00F09884A42B40F06C85DFF8FC
:102EC000C4A14FF0000B9AF82E0180000130C0B26F
:102ED00004F0ACF99AF82E0104F07AF9534600F0A8
:102EE00091BCCB2B61D009D8C92B75D0CA2B40F02F
:102EF0005285DFF8A4A10AF10A0B90E0CC2B00F078
:102F0000CF80CD2B00F03A8400F045BDD42B00F0EB
:102F1000F08116D8D12B00F0EC8307D8CF2B00F02E
:102F2000E280D02B00F0218400F035BDD22B00F0E0
:102F30003081D32B40F02F8504F0CEFC4D4B188010
:102F4000CCE0F02B00F0448410D8D62B00F0148194
:102F5000EF2B40F0208504F0BFFCDFF838A1AAF881
:102F60002C0004F0B9FCAAF82A00B7E0FA2B00F014
:102F70001784FE2B40F00F85082004F057F93E4BD4
:102F80003E4A1B684FF0000AB3FBF2F3C3EB431158
:102F900003EB81033A490968B1FBF2F2394902EBCC
:102FA000C303A1F82C3100F008BC4FF0000A47E041
:102FB0004FF0000A04F090FC334B23F80A000AF1AA
:102FC000020ABAF1100FF5D1002004F02FF92F4BAF
:102FD00001221A7000F0E3BC04F073FC234BDFF80D
:102FE000BCA0D87204F06DFC294B187004F07EFC74
:102FF000CAF8000004F07AFCCAF8040004F06CFC83
:10300000DFF880A0AAF8020104F066FC9AF8063105
:10301000AAF8040143F002038AF806315EE004F0E6
:1030200050FC0AF1010A8AF8010004F04AFC8AF80F
:103030000B0004F046FCDA458AF81500EFD14DE0AC
:10304000104B93F81C21924548D203F207131AF84B
:1030500003B004F041FC0F4B0AF1010A03EB4B03F0
:10306000A3F84600ECE700BFAE040020D90600201C
:10307000A8010020F40100201400002040420F00AD
:1030800090000020700C002048070020580100200C
:10309000F8010020EC1C0020EB1C00201002002096
:1030A00004F00FFCDFF85CA48AF81F0004F009FCB0
:1030B0008AF8200004F005FC8AF8230004F001FCE3
:1030C0008AF8240004F0FDFB8AF8250004F0F9FBDF
:1030D0008AF8210004F0F5FB8AF82200002004F0B1
:1030E000A5F800F05CBC04F0F7FB6FF4AF62831846
:1030F000DFF8DCA3C62B98BFAAF84A0104F0ECFB6A
:10310000AAF8000104F0E8FBAAF8020104F0E4FBCD
:10311000AAF8040104F0E0FBDFF8E8B3ABF8CA005A
:1031200004F0CFFB8AF85A0104F0CBFB8AF85B016C
:1031300004F0C7FB8AF85C0104F0C3FB8AF83A018B
:1031400004F0BFFB8AF8540104F0BBFB04F0C4FB9D
:1031500000EB80004000ABF8280004F0B2FB8AF8D6
:103160003B0104F0AEFB8AF83D0104F0AAFB8AF8AB
:103170003C0104F0A6FBB1E74FF0000A04F0ACFB01
:10318000D14B23F80A000AF1020ABAF1100FF5D167
:10319000A4E7CE4B5B78002BA0D104F092FBCC4B84
:1031A000022883F810044FF0000088BF0022014677
:1031B00088BF83F8102403F03DFA8FE70720DFF87B
:1031C00010A304F033F8E72004F002F89AF80500A1
:1031D00003F0FEFF002003F0FBFF9AF85201BD4B05
:1031E000BD4A00280CBF10461846D1E38B420ED2D0
:1031F000BA4A13F802C0012202FA0CFC1CEA0E0FB4
:1032000018BF9A4003F1010318BF1043EEE704F022
:103210001AF8AF4B93F8100468E2122004F006F895
:10322000AF4BDFF8E4A21B88B3F5806F28D94FF0CD
:10323000000B3AF90B00082390FBF3F00BF1020BA3
:1032400003F0F7FFBBF1060FF3D1DFF8C0A2BAF924
:10325000000003F0EEFFBAF9020003F0EAFFBAF94A
:103260000400DFF8ACA203F0E4FFBAF9000003F0B9
:10327000E0FFBAF9020003F0DCFFBAF9040054E3FE
:10328000BAF9000003F0D5FFBAF9020003F0D1FF4C
:10329000BAF9040003F0CDFFD7E7102003F0C6FF12
:1032A0004FF0000A8F4B13F80A000AF1010A03F0ED
:1032B0008FFFBAF1100FF5D171E3382003F0B6FF9C
:1032C000DFF840A20AF1500BBAF9780003F0B1FF21
:1032D000BAF97A0003F0ADFFBAF97C0003F0A9FF58
:1032E0000AF10A0A9AF8740003F072FFDA45EBD18A
:1032F00055E3002003F09AFFDFF808A20AF1500B13
:1033000004F0EAFAAAF8780004F0E6FAAAF87A00DB
:1033100004F0E2FAAAF87C0004F0D3FA0AF10A0AEF
:103320008AF87400DA45EBD139E36F4B13F80A00E1
:103330000AF1010A03F04CFFBAF1100FF5D12EE3A8
:10334000102003F073FF4FF0000A684B33F90A00B6
:103350000AF1020A03F06DFFBAF1100FF5D11EE376
:10336000102003F063FF594BDFF8A8A1D87A03F0CF
:103370002FFF5F4B187803F02BFFDAF8000003F003
:1033800062FFDAF80400DFF890A103F05CFFBAF9FD
:10339000020103F04EFFBAF9040103F04AFFBAF943
:1033A0002001C2E2DFF874A1062003F03FFFBAF962
:1033B000000003F03EFFBAF9020003F03AFF4D4B64
:1033C00007E0062003F032FF4B4B186803F03BFF89
:1033D0004A4BB3F90000A8E2DFF83CA1072003F054
:1033E00025FFBAF83C004FF6FF7BFF28A8BFFF205F
:1033F000C0B203F0EDFEDAF850005845A8BF5846B9
:1034000020EAE07000B203F014FF3D4BB3F9000076
:1034100003F00FFF2E4BDAF8440093F83A310028FE
:10342000B8BF40422BB10A2358435845A8BF58465D
:1034300002E05845A8BF584600B276E2DFF8C4A0C3
:10344000072003F0F3FE9AF81F0003F0C1FE9AF87C
:10345000200003F0BDFE9AF8230003F0B9FE9AF8AD
:10346000240003F0B5FE9AF8250003F0B1FE9AF8A7
:10347000210003F0ADFE9AF8220037E11E2003F090
:10348000D5FEDFF89CA00AF10A0B0AF1010A9AF8AE
:10349000010003F09DFE9AF80B0003F099FE9AF8E4
:1034A000150003F095FEDA45EFD178E22F2003F006
:1034B000BDFEDFF870A01AF8010F002800F06F823F
:1034C00003F086FEF7E700BFB8040020D90600200D
:1034D000BC1800200C0000C0040000C0770D0020C4
:1034E0002C0000207E000020D21C00204807002075
:1034F000F8010020C4010020DC010020CC030020E2
:10350000BE010020EC1C002074040020A804002050
:10351000A402002010020020700C00209403002060
:10352000EB1C0020430301089BF81C319A4580F0F6
:103530003682C54B1AF80320C44B0AF1010A03EB8B
:103540004203B3F9460003F074FEEDE7824408F14C
:103550000108BF4991F81C0180450CDBBBF1000F4D
:1035600000F01D825FFA8AF003F060FE4FF0000B5E
:103570004FF00008EDE701F20711B64818F8011006
:103580004FF00C0E0EFB0101496B0846049109F047
:103590008EFF8446BBF1000FD8D159466145D6DA7B
:1035A000049A505C0291CDF80CC003F011FE029910
:1035B000DDF80CC00131F1E7A74AA3495244127A61
:1035C0001BF80100904203D1019303F001FE019B1F
:1035D0000AF10C0ABAF1FC0FEED10BF1010B93F8D2
:1035E0001C21934580F0DB814FF0000AE4E7DFF80F
:1035F00094A2162003F01AFEBAF94A0103F019FE4C
:10360000BAF9000103F015FEDFF840B2BAF9020181
:1036100003F00FFEBAF9040103F00BFEBBF9CA0078
:1036200003F007FE9AF85A0103F0D2FD9AF85B0105
:1036300003F0CEFD9AF85C0103F0CAFD9AF83A0156
:1036400003F0C6FD9AF8540103F0C2FD002003F018
:10365000BFFDBBF928000A2390FBF3F003F0E9FD5E
:103660009AF83B0103F0B4FD9AF83D0103F0B0FD78
:103670009AF83C0103F0ACFD37E0082003F0D6FDDA
:103680004FF0010A5FFA8AF00AF1010A03F0A0FD87
:10369000BAF1090FF6D182E104F013F903461220C2
:1036A000019303F0C3FD019B0BB96C4A02E0102BA0
:1036B00005D16B4AD2F800B0D2F804A002E04FF076
:1036C000000AD346184603F083FD584603F0BBFDBD
:1036D000504603F0B8FD634B186803F0B4FD0020BA
:1036E00003F0A7FD002003F0A4FD002003F070FD0F
:1036F00055E104F0E6F8834604F0F8F8039004F08E
:10370000F5F8019004F0F2F8824604F0E5F804F0D0
:10371000E3F804F0D6F8039A019BBBF1000F0FD138
:103720004E4981E80C00504B012283F807B01A7310
:10373000BAF1000F3FF4D2AC4A4BC3F800A0CDE47D
:10374000BBF1100F7FF4CAAC454981E80C00BAF117
:10375000000F02D0434BC3F800A04148434B022264
:10376000011D1A7004F0FAFFB8E43F4B5B78002BA0
:103770007FF4B4AC012006F0B1F9AFE43A4B5B78CA
:10378000002B7FF4ABAC3A494FF4C8730B80A5E42F
:10379000354B5A78002A7FF4A1AC01229A739DE43C
:1037A000314B93F801A0BAF1000F40F0F48050467D
:1037B000012102F03FFF504691E42E4B33F90A00FD
:1037C0000AF1020A03F035FDBAF1080FF5D1E6E07F
:1037D000DFF878A0042003F029FDBAF92C0003F0EB
:1037E00028FDBAF92A00A0E00C2003F01FFD224BAF
:1037F000186803F028FD214B186803F024FD204BC6
:103800001868C5E093F82E21934580F0C880DFF852
:1038100078A01AF80B00019303F0DAFC0AF1100209
:1038200012F80B0003F0D4FC0AF1200212F80B008E
:103830000AF1300A03F0CCFC1AF80B0003F0C8FCC4
:103840000BF1010B019BDDE7770D0020EC1C002044
:10385000700C00204403010874030108FC010020DF
:1038600008020020D8010020D90600200402002010
:10387000D81D0020960D0020E8F7FF1FECF7FF1F72
:10388000F0F7FF1FBC1800209F0D0020002003F060
:10389000CDFC04F016F8DFF858A10023CAF8083070
:1038A0008AF8050004F022F8DAF808301843CAF85C
:1038B000080004F006F88AF8470104F00DF8AAF8A9
:1038C000160104F009F8AAF8180104F005F8AAF89E
:1038D0001A0104F001F8AAF8360103F0FDFFAAF876
:1038E00038015CE0DFF808A1102003F09FFC9AF893
:1038F000050003F06DFCDAF8080003F0A4FC9AF868
:10390000470103F065FCBAF9160103F092FCBAF91D
:10391000180103F08EFCBAF91A0103F08AFCBAF917
:10392000360103F086FCBAF9380103F082FC36E078
:10393000082003F07BFC4FF0000A2D4B534493F812
:103940003F010AF1010A03F043FCBAF1080FF4D178
:1039500025E003F0B6FF264B53440AF1010ABAF101
:10396000080F83F83F01F4D119E0132003F05EFC47
:103970004FF0000A1F4B13F80A000AF1010A03F086
:1039800027FCBAF10B0FF5D1002003F05CFC0020FE
:1039900003F059FC03E00120002103F029FCD9F8D1
:1039A0000030187903F014FCD9F80030002283F8B5
:1039B0004920FFF7DFB80137FFF7BFB89AF80030AA
:1039C00023B133689B0600F19E82B3E2AA68084BDC
:1039D0001705F6D5084A1278002AF2D093F86B2121
:1039E000AAB993F86C315BB9044B5B780AE000BF6D
:1039F000BC18002052120108640C0020D9060020D7
:103A0000D24A137D003318BF0123002BD9D095F87B
:103A10006A31002B40F08281CD4BD86803F0D3FB94
:103A2000002840F07B81CB4FD4F874113A68CA4B20
:103A3000511A7C29B84640F27181C3F8742193F879
:103A400078210746013283F8782107F12400C0B2BB
:103A500003F056FCC14B33F9170007F0E5FAC04BF1
:103A60008246188807F0E0FA0146504607F0E4FB6A
:103A7000BC4907F02DFB07F0F1FC013700B203F061
:103A800057FC032FE1D1302003F03AFCB64BB3F9D9
:103A9000000003F04DFC03F043FC94F8780110F0B3
:103AA000030B2CD1DFF8D0A2102003F029FCDAF8A8
:103AB0000030642793FBF7F000B203F039FC2120BB
:103AC00003F01EFCDAF8003093FBF7F007FB103729
:103AD00087EAE770A0EBE77000B203F029FC14203E
:103AE00003F00EFCA14BB3F9000003F021FC1C20F5
:103AF00003F006FC584603F01BFC03F011FC94F89D
:103B00007831954F580740F0E380022003F0F8FB2E
:103B1000B7F97A014FF00A0A90FBFAF003F008FCBB
:103B2000AB68990760D5BB8F4FF06E0B0BFB03FBA7
:103B300015239BFBF3FB3A2003F0E2FB1FFA8BFB00
:103B40006422BBFBF2F90FFA89F0039203F0F0FB59
:103B50003B2003F0D5FB039A02FB19B080B205307D
:103B6000DFF818B290FBFAF000B203F0E1FB9BF82B
:103B70000030BA8F40F6340192FBF3F24A432A2117
:103B8000B2FBF1F2B7F87C1191FBF3F003FB1013D9
:103B90001B019BB243EA02239BB2C2F3032243EA16
:103BA0000209062003F0ACFB0FFA89F003F0C0FB1A
:103BB000B7F87C219BF80030013292B292FBF3F10E
:103BC00003FB11232820A7F87C3103F099FB786CC4
:103BD00090FBFAF000B203F0ABFB042003F090FB83
:103BE000B7F9500003F0A4FB33689A066ED5DFF8EE
:103BF00090A15F4FDAF800303C2183EAE37CACEB24
:103C0000E37C5C4B13209CFBF3F207FB02CC01FB33
:103C10000CF9029199FBF3FB0193039203F070FB03
:103C2000039A02EB820202EB82020BEB820007FB9B
:103C30000B9B00B203F07CFB4FF47A791B2003F05E
:103C40005FFB9BFBF9F000B203F072FB232003F053
:103C500057FBDAF80020002AACBF4E20532003F0B7
:103C600067FBDAF80420019B82EAE27BABEBE27BA4
:103C70009BFBF3F207FB02BB0299122001FB0BF145
:103C8000039291FBF3FB029103F03AFB039A02EBE0
:103C9000820202EB82020BEB820000B203F048FBCF
:103CA0001A2003F02DFB029907FB0B1191FBF9F091
:103CB00000B203F03DFB222003F022FBDAF80430CF
:103CC000002BACBF4520572003F032FB03F028FB4C
:103CD00094F87831282B21D11F4B0022D8F800709E
:103CE00083F878214FF47A73B7FBF3FA17203C2757
:103CF00003F006FBBAFBF7F9B9FBF7F007FB1090EE
:103D0000000200B203F014FB182003F0F9FA07FBDD
:103D100019A000B203F00CFB03F002FB95F86A3126
:103D2000012B7FF44EAE0A4DE86803F04CFA0028F0
:103D30003FF447AEE86803F041FA0746052003F078
:103D400016FD8A2F4BD08E2FEDD11BE0A80100204D
:103D5000D0050020B8180020700C0020740400204A
:103D60002C00002000007A44CC030020C401002075
:103D7000806967FF80969800AC030020280000202F
:103D80001002002000212E226E4809F06EFB7C23D9
:103D900084F8AA31E02384F8AD317D2384F8D6314C
:103DA000A38F84F8AB71DAB21B0A84F8C93184F8A6
:103DB000BF31142384F8C23184F8C3314FF4FA734D
:103DC000A4F8C4314823A4F8CC31782384F8C8215E
:103DD00084F8BE2184F8CE315A482E2190E0336811
:103DE0009B06A0D5584D002105F5BF702C2209F087
:103DF0003CFB7C2384F87E31A02384F881317D2331
:103E000084F8A931514B84F87F711B7884F898317C
:103E10004F4BDB7A002B6ED04E494F4A0F68DFF8CC
:103E200050C197FBF2F06623C0B285F8A731FB0FB3
:103E30000CFB00774FF0060E0EFB07F785F8873175
:103E400042F21073B7FBF3F900EB800003FB197724
:103E500049685FFA89F900EB800009EB800080B2C5
:103E600091FBF2F2D2B285F88801000A85F8890147
:103E7000C80F0CFB02110EFB01F185F88C0102EB5F
:103E80008202B1FBF3F003FB101302EB8202C0B21B
:103E900000EB820292B285F88D21120A85F88E21FC
:103EA00085F88F31B5F804211B0A85F89031642319
:103EB000B2FBF3F303EBC3039B009BB285F88531A0
:103EC0001B0A85F88631B5F8223185F88A7185F8A4
:103ED00091311B0A85F89231B5F802313F0A85F815
:103EE00093311B0A85F89431B5F8243185F88B712C
:103EF00085F89A3102E0202385F8A73117482C2154
:103F000004F0BAFD0FE7164ED4F8D82133689A1A98
:103F1000002A0FDB0D4A1278042A0BD90A4A03F54E
:103F2000123303F5F873C2F8D8310E4BDA6882F019
:103F30001002DA600C4B9B680BB10C4898470DB02F
:103F4000BDE8F08F1A0E0020700C0020F801002050
:103F5000D906002010020020A0860100EE0D0020EE
:103F60005C010020000C014030050020EA0D00201B
:103F70006079FEFFAFF300802DE9F04F9B4B95B0C9
:103F800093F85A31C4B2012B00F0E78002D3022B20
:103F900040F0C885242C964D0CD006D80A2C00F091
:103FA0008C800D2C00F08980C3E02A2C07D02C2CAB
:103FB00005D0BEE000232B706B70AB70CAE06A784E
:103FC0002E782A4400218A4BD170EEB9DA789E749B
:103FD000472A19D11A79502A16D15A79472A07D176
:103FE0009A79472A04D1DA79412A01D101229A74B7
:103FF0006A797F4B522A07D19A794D2A04D1DA790E
:10400000432A04BF02229A74AB7C794F012B02D061
:10401000022B33D046E0B31E072B43D8DFE803F072
:10402000040810141C24422902F0AEFA686139E039
:10403000EA786F4B532A35D15A6952425A6131E0BE
:1040400002F0A2FAA8612DE0EA78694B572A29D13B
:104050009A6952429A6125E0EA78664B302A94BF09
:1040600000220122DA721DE0002002F06DFA2877AA
:1040700018E0002002F068FAE88313E0072E06D06B
:10408000082E0FD1012002F05FFA78840AE00120A7
:1040900002F05AFA41F2184358434FF47A72B0FBD7
:1040A000F2F33B84013600232A2C514A2E706B70A8
:1040B0004BD1012182F824104CE095F82430002BDC
:1040C00033D04B4BDB78402B04D9A3F137021201DC
:1040D000D2B202E01B0103F0F0022B79A978402B49
:1040E0008CBF373B303BDBB21344DBB29942404AD2
:1040F0001AD1937C012B08D0022B15D1118C3E4B89
:10410000528C19803D4B1A800EE03A49C97A61B150
:104110003B495069086090694860107F39490870D0
:10412000D18B394A118000E00023002285F8242039
:1041300010E06B782E4A0E2B03D8591C1344517093
:10414000DC7095F824302A4A1BB991784C40947061
:1041500000E0002303F001032FE1254B002193F839
:104160002520082A00F22881DFE802F00B05141E42
:104170002F506E8A9700622C01D1022207E083F84B
:104180002510B52C40F0188193F82520013283F8D2
:10419000252011E1032283F8252083F8264083F8A7
:1041A000274083F8284007E1042283F8252093F86C
:1041B000272093F828102244D2B283F827200A44FB
:1041C00083F8282083F82940F6E0052283F825208B
:1041D00093F8272093F828102244D2B283F827209E
:1041E0000A4483F828205C85E6E000BFBC18002064
:1041F000500E0020D9060020740D0020900D0020E4
:1042000010020020F8010020720D0020062183F822
:10421000251093F8271093F828002144C9B283F899
:104220002710014483F82810598DB04A01EB04246B
:10423000A4B2B4F5007F89BF00215485518582F86E
:10424000251000229A85B7E093F8272093F82810CC
:104250002244D2B283F827200A4483F828209A8D7A
:10426000C72A03D8A149114481F83040013292B2E3
:104270009A855B8D934240F09F8007229B4B86E797
:10428000082283F8252093F82730A34200F0948079
:10429000964A002382F825308FE083F8251093F8A2
:1042A0002810924AA14240F0878092F829100629EE
:1042B0003BD004D8022911D0032923D07CE0122955
:1042C00049D0302978D192F83410894A102988BF12
:1042D000102111701078874900224AE08649506BFE
:1042E0004860906B0860116C4FF47A7091FBF0F1AC
:1042F00082480180824992F8F800C872012182F850
:10430000F9104BE092F8351011F0010105D092F848
:104310003420D01E4242424100E00A4683F8F82091
:10432000002A3BD17649CA7238E092F83B1011F06E
:10433000010105D092F83A20D11E4A424A4100E0DC
:104340000A4683F8F8200AB96D49CA7293F85F10DB
:104350006C4A117022E0516C6B480180916C42F202
:10436000107091FBF0F169480180012182F8FA1088
:1043700014E0824201F10C0110DA11F8045C644C83
:10438000155511F8035C634C155511F8015C624C2E
:1043900015550D78614C15550132EAE793F8F9305F
:1043A000524A4BB192F8FA3033B1002382F8F93017
:1043B00082F8FA30012300E00023002B00F0B283E2
:1043C000574B9A68DA60574A116890469960564B85
:1043D000196841F020011960544B197801290CBF6C
:1043E000002201221A70464BDA7A002A00F09A83E2
:1043F000444A1278042A40F295835A7802B91A7313
:104400001B7B13B90AB103F075FD384C4FF0050E54
:1044100094F8FB3004F1FA06013393FBFEFE0EEB39
:104420008E0ECEEB030E424B84F8FBE01B78039616
:10443000049304F5807303EB8E0E00232E493D4A4E
:104440005D583D4E9D5095FBF6F002F108069851DF
:104450003A4E5F1806FB005542F2107C95FBFCFCBF
:104460000597039F1FFA8CFC02F1100A27F802CF70
:1044700003EB830B53F80A6003975EF80B704EF85A
:104480000B50C7EB060909EB0506052543F80A6042
:1044900096FBF5F6284D183205FB0060049E9850F7
:1044A000012E0F4606D1ACF1020CBCF5797F9CBF02
:1044B000059A10600433082BC0D10C4DD8F80000C9
:1044C000D5F84831C01A06F0ABFD1D4906F0B4FE20
:1044D000D8F800304FF07E51C5F84831064606F056
:1044E00095FF78BB4FF07E502DE000BF500E0020AE
:1044F0009E0D0020800E002010020020720D002072
:10450000D9060020F8010020740D0020900D002035
:104510009F0D0020AF0D0020BF0D0020CF0D00200B
:1045200094070020B81800202C050020760D0020EC
:1045300004020020780F002080969800806967FFB1
:1045400000007A44304610AAC5F84C01B44B0092E2
:1045500011AA019297E803000CCB03F06AFC109AB1
:1045600064231198AF4992FBF3F20A8090FBF3F3B6
:10457000AD4AAE481380037B81460BB90B80138094
:1045800095F85031AA4E002B3AD0D6F84C114FF086
:104590007E5006F051FED6F8543180463868C01A75
:1045A00006F042FD414606F093FD06F057FFD6F8AF
:1045B00058211FFA80FA78680FFA8AFA801A06F0F2
:1045C00033FD9C4B196806F083FD414606F080FDE3
:1045D00006F044FFB6F95E3100B2C218B6F95C319C
:1045E0000221534492FBF1F293FBF1F392B29BB29E
:1045F000A6F86221A6F86031A6F85E21A6F85C3123
:10460000012385F850317968386899F80830C5F881
:104610005811C5F8540123B9844BDB79002B00F005
:104620008182834E06F5B673009306F5B873019345
:10463000D4F86421D4F8683103F0FBFB7B68D4F82C
:104640006801C01A06F0F0FC7A4B196806F040FDCC
:1046500006F004FFD4F864313A68C4F878019B1A74
:10466000C4F87431744B93F90030012B03D0022B42
:1046700000F0F48056E2D6F87C51D6F898410395C4
:10468000D6F88C71D6F8905104F100400695049745
:1046900006F0E4FE8146204606F0E0FED6F84C81A6
:1046A000D6F8946107904046059606F04DF9634BA5
:1046B000044693F8D4000D4606F0B2FC06F044F927
:1046C00055A3D3E9002306F093F902460B460020D8
:1046D0005B4906F0B7FA2B46224605F0D7FF0246A3
:1046E0000B462046294606F0ADFACDE90801554EA5
:1046F0000025554C54F81570A4F11403384635F8CC
:1047000003A006F091FC039906F0E2FC06F0A6FE79
:10471000CAEB000080B22834285304B2204606F0C9
:1047200083FC049906F0D4FC06F098FE1FFA80FB87
:10473000E01906F079FC069906F0CAFC414606F03D
:10474000C7FC316806F0BCFB06F088FE484504DB78
:10475000079A9042A8BF104600E0484606F064FC65
:10476000306006F07BFEB46858441FFA80FB204698
:1047700006F0EAF8CDE90A0170680AF1310A381A40
:1047800006F052FC414606F057FD214606F096FB26
:1047900006F0DAF802460B46DDE9080106F028F9D2
:1047A00002460B46DDE90A0105F070FF06F032FB18
:1047B0001FFA8AFABAF1620F014630617760B06081
:1047C0000ED9059806F084FC06F048FE1F4BB0F5A4
:1047D000FA6FA8BF4FF4FA609842B8BF184600E0DD
:1047E0000020834440F6B8330FFA8BFB9B45A8BFEB
:1047F0009B46174B0A229B45B8BF9B466A43154B05
:1048000056F8141B25F803B0134B0235042DD15074
:1048100000F088816DE700BF182D4454FB2119403A
:10482000FC010020920D0020940D0020D9060020EC
:10483000500E00204800002004020020EC1C002044
:104840000000F03F4C020020C40F002030F8FFFFB2
:1048500048F4FFFF2002002074020020B64AD6F878
:104860006CA1B2F9DA909AFBF3F39945A8BF994687
:10487000B6F8A0411FFA89F90FFA89F223B29A42D9
:104880000BDDAE49D6F84C0106F022FC06F0E6FD41
:1048900020441FFA80F9A6F8A091D5F87041D5F808
:1048A000A461A61B304603F049FB0028D8BF404254
:1048B00041F293139842CCBF0020012078B33046D8
:1048C00006F0B2FB9E4906F003FC09F0ADF806467F
:1048D000504606F0A9FB0146304606F0F9FB06F00B
:1048E000BDFD80B240F6B83203B29342A8BF134672
:1048F000944AA5F8A8019342ACBFE318A31848F660
:10490000A042934203DDA3F50C43A03B04E0002B3F
:10491000BCBF03F50C43A033C5F8AC3101E0C5F8CA
:10492000AC41D5F8AC61C6F50C502830039606F0C2
:104930007BFB834906F0CCFB044609F001F8139099
:10494000204609F071F8D5F8BC41D5F8B071D5F81A
:10495000B461129004F100400597089606F07EFDC0
:104960000490204606F07AFDD5F84CB1D5F8B85140
:104970000A905846079505F0E7FF6F4B044693F8F9
:10498000D4000D4606F04CFB05F0DEFF68A3D3E92A
:10499000002306F02DF802460B4600206A4906F077
:1049A00051F922462B4605F071FE02460B46204681
:1049B000294606F047F9CDE90C01644E00270FFAAD
:1049C00089F006F031FB12AB53F8171006F080FBAC
:1049D0005F4C0546E05F06F027FB0146284606F0DF
:1049E0006DFA06F03BFD5B4B0FFA80F8B8F57A7F65
:1049F000A8BF4FF47A789845B8BF98461FFA88F058
:104A00003C34385300B206F00FFB0599044606F01B
:104A10005FFB06F023FD80B206900899204606F061
:104A200057FB594606F054FB316806F049FA06F088
:104A300015FD049DA84204DB0A9DA842A8BF284694
:104A400000E0049806F0F0FAB468054630602046AD
:104A500005F07AFFCDE90E0170681436C0EB08004E
:104A600006F0E2FA594606F0E7FB214606F026FA80
:104A700005F06AFF02460B46DDE90C0105F0B8FFC0
:104A800002460B46DDE90E0105F000FE06F0C2F914
:104A900046F8108C014646F8040C46F80C0C0798B2
:104AA00006F016FB06F0DAFC069C0444284606F0E5
:104AB000D5FC204440F6B83300B29842A8BF18464F
:104AC000204B0A229842B8BF18467A43224BF8522C
:104AD000224B0237042FD5507FF471AF164B93F859
:104AE000D6202AB1039E64211D4A96FBF1F1118064
:104AF000B3F8D2301B4C9A450DDDD4F8A431D4F86C
:104B00007001C01A03F01AFA42F210730028B8BFFD
:104B10004042984206DD144B01221A70B4F8C021BD
:104B20000F4B1A8015B0BDE8F08F00BFAFF30080C7
:104B3000182D4454FB211940EC1C00200000C842F1
:104B4000D302373948F4FFFF0000F03F7402002021
:104B5000B00F002018FCFFFF200200204C020020B4
:104B6000F4010020500E0020040200202DE9F0473F
:104B7000714B86B01A78994642B901236F4889F87B
:104B8000003002F071FB6E4802F06EFB6D4D28683C
:104B900002F019FBAA46002800F0CB80286802F03A
:104BA0000DFB09280146684C01D03F2859D14FF030
:104BB0000008D4F8C461654F45462EB16448396891
:104BC000324608F07DFC10B9B84605B93D46614B48
:104BD0000C379F42F1D305B3D5F800E0D8F800C0F8
:104BE000D4F8C43158481EF803701CF80310B942B9
:104BF00013D15A1C59B92D2B09D8C0F8C42103442C
:104C00002027024483F8C87182F8C81105E02344C4
:104C100083F8C871C4F8C421E2E7D4F8C4310BB1F9
:104C2000454512D04C4802F01FFB454509D855F8C0
:104C30000C0B02F019FBDAF80000092102F04DFD1F
:104C4000F3E73F4802F010FB0026D4F8C4319E423F
:104C50009CD23F4BDAF80000995D02F03EFD013630
:104C6000F3E7D4F8C43133B904283BD104F5E47038
:104C700000F0A4FA5DE00C2801D1384881E70A2948
:104C800001D00D294AD1364802F0EEFAD4F8C431E9
:104C90002F4EE218002382F8C8310493314B03A849
:104CA00000932A4911220C23039608F0B3FC054611
:104CB00038B1006808F0FBFB0130AB68304498471E
:104CC00002E0294802F0D0FA21480021302208F001
:104CD000CCFB0023C4F8C43199F80030002B7FF4DA
:104CE00052AF26E00C28C8D07F2903D14EE72F2BE6
:104CF0003FF64CAFA1F12002D2B25E2A3FF646AF9A
:104D000013B920293FF442AF5A1CC4F8C4212868C3
:104D10001C4484F8C81102F0E0FC37E77F29E6D193
:104D2000013BC4F8C4310022234483F8C8210F4852
:104D30002AE706B0BDE8F087E01D00200D1301084A
:104D400045130108D0050020500E00200806010878
:104D500018100020D40601084A1301084F13010857
:104D60007D180108C17600085A1301087B13010859
:104D700073B51D4D4FF4805604466E61F52003F067
:104D8000B3F90DF107000021012200F033FA2E6182
:104D90009DF80730702B24D1144B154ABB2C1A6098
:104DA000144A5A60144B154A1A60154A5A60154A3B
:104DB000DA60154B02D90120187113E0612C01D97A
:104DC00002220BE0292C01D9032207E0132C01D980
:104DD000042203E0092C8CBF052206221A7101204F
:104DE00000E0002002B070BD000C0140440500202E
:104DF0004D740008BD9D000830050020295F0008A3
:104E0000355200081844923148000020AFF300806A
:104E1000426A10B58469A154416A02690131B1FB4B
:104E2000F2F402FB14124262426B32B11368DB07E8
:104E300008D4BDE8104001F0D3BF836CDA6842F0BB
:104E40008002DA6010BD10B50446642002F08FFCC9
:104E500068202321F02203F093FF10B9032002F011
:104E600090FC052002F083FC054B68201A78202175
:104E700042F00F0203F084FF0CB1024B1C7010BD16
:104E8000400500205000002010B50446192002F013
:104E90006EFC68201521002203F072FF10B9032078
:104EA00002F06FFC0D4B16211A78682042F01802B0
:104EB00003F066FF17210022682003F061FF3D2107
:104EC0000122682003F05CFF68203E21012203F0EC
:104ED00057FF0CB1024B5C7010BD00BF2A000020D0
:104EE0005000002077204821012203F049BF77209D
:104EF0005821012203F044BF064B002193F82020E3
:104F0000054B9201343219707720F42102F0FC0233
:104F100003F036BF58050020CC1D0020034B0022B3
:104F20001A707720F4212E2203F02ABFCC1D002016
:104F30001F4B37B51B680446012B0EDD4FF40053A1
:104F4000ADF8043002238DF80730042319480DEB27
:104F500003018DF8063002F07BFC6B218022682073
:104F600003F00EFF642002F002FC192100226820E9
:104F700003F006FF104D6B210322682003F000FFB1
:104F800037210222682003F0FBFE1A21AA7868204C
:104F900003F0F6FE1B211822682003F0F1FE6820C2
:104FA0001C21102203F0ECFE04B1EC7003B030BD04
:104FB000D41D0020001001405000002037B52023F0
:104FC000ADF8043004230DEB0301022405461C4810
:104FD0008DF806308DF8074002F03AFC2A210022B5
:104FE0001C2003F0CDFE0E2122461C2003F0C8FE3B
:104FF0000F2103221C2003F0C3FE2B2112221C20B0
:1050000003F0BEFE2C2122461C2003F0B9FE2D2108
:1050100001221C2003F0B4FE2E2100221C2003F0EC
:10502000AFFE05221C202A2103F0AAFE054B4FF4F7
:1050300080721A800DB1044B1D7103B030BD00BFEA
:10504000000801402C000020500000201FB5012363
:10505000ADF80830ADF80410002301A9ADF80A300E
:10506000ADF80C30ADF8062001F010F905B05DF890
:1050700004FB454B10B54FF4127404FB003494F854
:105080003C22C2B9A36A616A994229D0591CA0691D
:10509000A162C05C2369C0B299424FEA400343F465
:1050A0000073A4F83E324FF00A0384F83D3228BF63
:1050B000A262012312E094F93D327BB1B4F83E12B2
:1050C00020464B08A4F83E3201F0010102F0A1FE97
:1050D00094F83D32013B84F83D3201E084F83C32E3
:1050E00094F83832002B4DD194F839320133DBB2C9
:1050F000092B84F8393204D12046BDE8104002F073
:1051000073BE0A2B3ED194F83B322BB9B4F840322F
:1051100043F00103A4F840322379D8071AD5B4F834
:10512000403203F4007292B20AB9D90705D4B4F838
:1051300046320133A4F846320CE0216A6069C3F3B9
:1051400047034354E168236A01398B4236BF013378
:1051500022622362012284F8382294F83B22002341
:10516000012A84F839320DD194F8422284F83B3276
:10517000236B002A1868197B0CBF02220022BDE8AD
:10518000104063E710BD00BFCC070020094B30B5CD
:105190009A68B3F80A51B3F8044102F4804200233C
:1051A0000549002A14BF2846204658520233182BBE
:1051B000F6D130BDBC180020B804002010B504465C
:1051C000084802F051F8084A00231370074A136098
:1051D000074A1370FFF7DAFF2046BDE8104001F0E0
:1051E000C5BA00BF7F13010818100020141000205A
:1051F000E01D002030B50E4B9B8912F1FF3214D315
:1052000011B10C78013100E0FF24094B1D89AD0775
:10521000FBD59C811C89E407FCD5054B9B899BB27F
:105220000028EAD003700130E7E7012030BD00BF5D
:10523000003800407FB51C4C4FF480550646656130
:10524000C32002F051FF684600210622FFF7D2FF7B
:1052500025619DF801309DF800209DF8021043EA79
:10526000022212B2042392FBF3F2ADF808209DF85B
:10527000032002A842EA012212B292FBF3F29DF847
:105280000410ADF80A209DF8052042EA012212B26E
:1052900092FBF3F3ADF80C30044B31465A7901F030
:1052A00073FE04B070BD00BF000C01405000002030
:1052B00010B540001C4CC0B220706170012000216C
:1052C000A170E0702273607320696360A360A173B2
:1052D00040B383889B0515D40388D9050DD447F2C4
:1052E00030530288920502D5013BFAD112E08BB10E
:1052F00003889BB243F48073038083889BB243F49A
:105300004073838047F23053627B12B1013BFBD183
:1053100000E01BB9BDE8104003F0CABC024B987B0B
:1053200080F0010010BD00BF48100020F0B5044619
:1053300085B0232002F01BFA6820752101220DF1AF
:105340000703FFF7B5FF00285FD09DF80770682FAF
:105350005AD1062102AB38460A46FFF7A9FF9DF84D
:105360000B309DF80D6003F001035B0006F00106B1
:1053700043EA86069DF80930254D03F001031E43DC
:1053800005D0012E17D0022E0DD1002311E00DF112
:10539000070338460C210122FFF78AFF9DF80730EA
:1053A00013F00F0302D1052002F0EBF9042B02D118
:1053B00001232B7500E02E75164B174ABB2C1A6083
:1053C000164A5A60164B174A1A60174A5A60174A0B
:1053D000DA60174B2A7D1A75164B02D90120987096
:1053E00013E0612C01D902220BE0292C01D9032200
:1053F00007E0132C01D9042203E0092C8CBF0522FD
:1054000006229A70012000E0002005B0F0BD00BF28
:105410004810002044050020657400083954000835
:1054200030050020314F00088D5400081844923197
:10543000D0050020500000201FB504466B463B21DC
:1054400006226820FFF734FF9DF800209DF8013008
:1054500002A843EA0223ADF808309DF802209DF827
:105460000330214643EA0223ADF80A309DF80420B8
:105470009DF8053043EA0223ADF80C30024B9A79CF
:1054800001F082FD04B010BD500000201FB504469D
:105490006B46432106226820FFF70AFF9DF8013082
:1054A0009DF800209DF8021043EA022212B2042364
:1054B00092FBF3F2ADF808209DF8032002A842EA1F
:1054C000012212B292FBF3F29DF80410ADF80A200B
:1054D0009DF8052042EA012212B292FBF3F3ADF8E7
:1054E0000C30034B2146DA7801F04EFD04B010BDBC
:1054F000500000201FB504466B46A82106226820F4
:10550000FFF7D6FE9DF801309DF800209DF80210AF
:1055100043EA022212B2042392FBF3F2ADF8082010
:105520009DF8032002A842EA012212B292FBF3F294
:105530009DF80410ADF80A209DF8052042EA0122EA
:1055400012B292FBF3F3ADF80C30034B21461A78FC
:1055500001F01AFD04B010BD5000002013B5022266
:10556000044601AB1B216820FFF7A2FE9DF8042032
:105570009DF8053043EA022303F54E534FF48C7235
:10558000103393FBF2F32333238002B010BD1FB519
:1055900004466B461D2106226820FFF789FE9DF810
:1055A00001309DF800209DF8021043EA022212B259
:1055B000042392FBF3F2ADF808209DF8032002A823
:1055C00042EA012212B292FBF3F29DF80410ADF808
:1055D0000A209DF8052042EA012212B292FBF3F361
:1055E000ADF80C30034B21465A7801F0CDFC04B0E5
:1055F00010BD00BF500000201FB504466B460121BE
:1056000006221C20FFF754FE9DF801309DF8002073
:105610009DF8021043EA022242F38D02042392FB1A
:10562000F3F2ADF808209DF8032002A842EA012217
:1056300042F38D0292FBF3F29DF80410ADF80A20BC
:105640009DF8052042EA012242F38D0292FBF3F31A
:10565000ADF80C30034B21461A7901F095FC04B0EB
:1056600010BD00BF5000002030B585B006220546B1
:1056700003216B461E20FFF71BFE9DF801309DF8AD
:1056800000001A4C43EA002000B205F0CDFCA168EE
:1056900005F01EFD05F0E2FE9DF80330ADF80800B0
:1056A0009DF8020043EA002000B205F0BDFC21692C
:1056B00005F00EFD05F0D2FE9DF80530ADF80C00AA
:1056C0009DF8040043EA002000B205F0ADFCE1685B
:1056D00005F0FEFC05F0C2FE2946ADF80A00227D69
:1056E00002A801F051FC05B030BD00BF5000002001
:1056F0002DE9FF4108B1634B1875634B1B68012B03
:105700000DD14FF48053ADF8043002238DF80730EB
:1057100004238DF806305D480DEB030106E007DD3C
:1057200004A94FF480435A4821F80C3D02F090F848
:10573000322002F01CF8002111221E2003F020FB71
:10574000012160221E2003F01BFB642002F00FF8F1
:1057500002A8FFF789FF00240A25274626460221D2
:1057600001221E2003F00CFB322002F000F802A8F8
:10577000FFF77AFFBDF90820BDF90A10BDF90C301A
:1057800014449142B8BF0A461E449A42B8BF134619
:1057900013F5805F0F4409DD3C4B013DDA6882F070
:1057A0001002DA60DBD14FF0010801E04FF0000891
:1057B0001E200021122203F0E3FA0A250221012211
:1057C0001E2003F0DDFA322001F0D1FF02A8FFF71E
:1057D0004BFFBDF90820BDF90A10BDF90C30A41A21
:1057E0009142B8BF0A46F61A9A42B8BF134613F55B
:1057F000805FC1EB070707DD244B013DDA6882F0CB
:105800001002DA60DAD101E04FF00008204605F01E
:105810000BFC01461F4805F00FFD1A4D20F000401B
:10582000A860384605F000FC01461A4805F004FD62
:1058300020F00040E860304605F0F6FB01461648CF
:1058400005F0FAFC20F000402861002170221E20A3
:1058500003F096FA012120221E2003F091FA1E2067
:105860000221002203F08CFA642001F080FFB8F1DD
:10587000000F04D14FF07E53AB60EB602B6104B09E
:10588000BDE8F08150000020D41D0020000C014034
:105890000010014000406F4601C05E4607B5002180
:1058A00001AB03227720FFF703FD9DF805009DF86B
:1058B0000430000240EA03409DF80630184303B06C
:1058C0005DF804FB08B5FFF7E9FF014B986108BDDF
:1058D0004810002008B5FFF7E1FF014BD86108BD73
:1058E00048100020104B13B51B78104C13B9238CB3
:1058F0000133238401ABF62103227720FFF7D8FC84
:105900009DF805309DF804201B0243EA02439DF8F0
:1059100006201343064AB2F92020C2F10802D34000
:10592000636202B010BD00BFCC1D002048100020F3
:10593000580500200B4B13B51B780B4C13B9238C67
:105940000133238401ABF62102227720FFF7B0FC5C
:105950009DF804209DF8053043EA0223238502B018
:1059600010BD00BFCC1D0020481000201FB504460C
:105970006B46022106221820FFF79AFC9DF80030A2
:105980009DF801209B0803EB0223ADF808309DF839
:1059900002309DF803209B0803EB0223ADF80A3088
:1059A0009DF804309DF805209B0803EB0223ADF819
:1059B0000C30044B02A821465A7D01F0E5FA04B0F0
:1059C00010BD00BF500000201FB504466B460321E8
:1059D00006220C20FFF76CFC9DF803209DF8023096
:1059E00002A843EA0223C3EB83339B009DF8012006
:1059F000ADF808309DF80030214643EA0223C3EB9E
:105A000083339B009DF80520ADF80A309DF80430E3
:105A100043EA0223C3EB83339B00ADF80C30054B04
:105A20009A7D01F0B1FA0A2101220C2003F0A8F9B5
:105A300004B010BD500000202DE9FF41344B8046DA
:105A40001B78002B3CD000242546264627460822FA
:105A50000DEB020353203221FFF72AFC9DF80920A9
:105A60009DF80830013403EB02231BB29DF80B2094
:105A70001F449DF80A30E4B203EB02231BB21E441C
:105A80009DF80D209DF80C30202C03EB02231BB257
:105A90001D449DF80F3003F07F0301D0002BD6D1B9
:105AA0001C4B97FBF4F796FBF4F695FBF4F5ADF879
:105AB0000070ADF80260ADF8045083F82A401DE094
:105AC000062202AB53203221FFF7F2FB9DF809209A
:105AD0009DF8083003EB0223ADF800309DF80B2051
