:020000040800F2
:10000000005000209DD4000849D5000865A50008CF
:1000100049D5000849D5000849D50008000000006E
:1000200000000000000000000000000049D50008AA
:1000300049D500080000000049D5000841A5000886
:1000400049D5000849D5000849D5000849D5000818
:1000500049D5000849D5000849D50008C5A50008BC
:1000600049D5000849D5000849D5000849D50008F8
:10007000D5A4000849D5000805A5000849D5000801
:1000800049D5000849D5000849D5000849D50008D8
:1000900049D5000849D5000849D50008C1A5000880
:1000A00049D5000849D5000849D50008B3A500087E
:1000B000A9A500089DA5000891A5000861A5000854
:1000C00059A500085DA5000855A5000849D50008F8
:1000D00049D5000891A400081DA40008E5A3000864
:1000E000C9A5000849D5000849D50008000000004E
:1000F0000000000000000000000000000000000000
:0C01000000000000000000005FF808F1A3
:100110002DE9F04F854D99B0AB68854C13F008017F
:1001200000F0868095F82F21042A00F28380DFE812
:1001300002F003030550750023787CE060787C4A68
:10014000002877D000209E05507002D5137E180736
:1001500070D4E0780023A27800F00706A383754BE3
:1001600042EA06221A60227902F03F06760146EA48
:10017000D00058606079800040EA9210A27902F0C5
:10018000010640EA86209860E07900F00F06F6014B
:1001900046EA5202DA60227A02F07F06360146EA27
:1001A00010101861607A400040EAD212A07A00F084
:1001B000030642EA46225A61E27A02F01F06B601BD
:1001C00046EA90009861207BC00040EA5212DA6152
:1001D0002CE0A27F564B6AB393F82000002201283E
:1001E0009A7727D19A8393F83420082A84BF08226B
:1001F00083F8342094F834004F4A0023DEB286425C
:1002000002F1020212D212F8016C12F8027C46EAE4
:1002100007274A4E46F823700133EFE794F8583029
:10022000434A00203BB1908382F85800012302E04A
:100230000B4600E00023E26D206E101A002802DA5F
:10024000002B00F09D8302F59C4220322266DFF8ED
:1002500004A13B4E00293CD13A4F89468846DAF842
:1002600000305FFA88F09847A0F2EE2292B240F296
:10027000DC539A42D4F8A420334B88BFB5F834013C
:100280001340002B03DA013B63F0030301332849D9
:1002900003EB880301EB4303A3F8640039887B88F0
:1002A00008F101080B44B988B8F1080F0B44F9882C
:1002B00007F108070B441BB24FF0040193FBF1F365
:1002C00026F8093009F10209C9D10132C4F8A42085
:1002D00009E00027F8B2DAF80030984726F817004E
:1002E0000137082FF6D1AB68590404D594F8A8302B
:1002F0000BB904F060F995F83E210C4B62B3033260
:1003000036F91200A0F57A70B0F57A7FA8BF4FF4E5
:100310007A7020EAE0700AF03DFE0C490AF042FFD4
:100320000B490AF08BFE0BF075F82AE0A8180020A4
:10033000000100205C07002022010020380100207D
:1003400030070020640100200300008000007A4490
:1003500000C07F445407002093F83F0190B1A84AA1
:10036000D179A84A32F81100B3F8422180B2801A3C
:10037000B3F84031C0EB802090FBF3F000B280F383
:100380000A0080B2AB68A4F8BE009A053FD59E4B28
:100390009E4AB3F81C9092F8C8300FFA89F703EB25
:1003A00083018F4290461EDDDFF868A29AF8012093
:1003B000CAB1974AB2F8342132807280B280B8F85C
:1003C000CA20F28098F8C920134403EB83039F42AC
:1003D00004DD04F0F0F800238AF80030B4F8C030EF
:1003E0000133A4F8C03098F8C83003EB83039F4270
:1003F00009DD884F97F80180B8F1000F03D104F0B0
:10040000DAF887F8008009F10109A4F81C900022AD
:10041000B5F83611B5F838711346B05E9B088842BE
:10042000C4BF63F07F03DBB20232B842B8BF43F00F
:100430004003082AF1D194F8C200734A984205D1CA
:1004400092F8C300F92804D8013000E0002082F8B7
:10045000C30084F8C230AB686D4A13F480436B4F1D
:100460000CD0B2F83411B2F8F420B6F90630881A7C
:10047000834208DD0A44934207DB04E0B6F9062014
:100480008A4202DB16E0002314E00023C4F8D033D4
:10049000C4F8D433C4F8D833C4F8D030C4F8D43056
:1004A000B7F846302BB1584B93F8A830002B41F0E9
:1004B000BE870123B7F846206AB194F8A82052B944
:1004C000544A52783AB195F83B2112B104F073F8CE
:1004D00001E0002BFAD194F8C3204B4B142A40F0D2
:1004E000B1804C4A50789046D0B1B7F846202AB92E
:1004F00093F8C2305F2B01D104F05DF895F83A31E2
:10050000002B00F09F80B7F84630002B40F09A8017
:1005100094F8C2307D2B40F0958004F04CF891E0C7
:1005200093F8C220572A15D13B4B4FF47A721A80A8
:10053000AB68DB0501D504F037FB384B1B68580767
:1005400002D5374A0A21118013F0080326D1A4F8F6
:10055000C43023E0A968490717D55A2A15D193F862
:10056000C6202AB1012283F8C60083F8C72015E00F
:1005700093F8C82082F0010283F8C820294B0AB101
:10058000022200E003221A7008E05D2A01F0588779
:100590005B2A01F057875E2A01F05687B7F846308C
:1005A00033B994F8C2206F2A02D103F08FFF15E00F
:1005B00095F83A2122B11BB994F8C2307E2BF4D0C1
:1005C00094F8C230972B04D1174B4FF4C8721A809D
:1005D00004E0A72B04BF012388F80E3094F8C23042
:1005E000BB2B02D1BB8D023303E0B72B03D1BB8DF4
:1005F000023BBB851FE0BE2B18D17B8D023319E077
:10060000F4040020FC04002000010020C01C002095
:10061000A8180020C1060020540C00202C05002042
:10062000560C0020A11D0020AC1D0020BD2B09D1BF
:100630007B8D023B7B850120014607F0ABFD00234B
:1006400084F8C330D5F808E01EF0040F31D094F8D8
:10065000C820A14B8AB1A14A527872B1A04AB6F91A
:100660000610B2F83621914207DD93F8A82022B98E
:100670003221A3F8CA1083F8C82094F8B920964B09
:1006800062B193F8CC202AB993F8C62012B932226D
:10069000A3F8CA20012384F8CC300AE093F8C620DE
:1006A0003AB18E4A527822B983F8C620012283F8E3
:1006B000C7208C480123002130F8022F03F1FF3CB2
:1006C000A2F21556B6F5C77F8CBF002601269E40C4
:1006D00012B2314340F21356B242CCBF002601267B
:1006E00006FA0CF6314340F2A466B242D4BF0022AF
:1006F00001225E1CB240033311430D2B89B2DBD1C2
:10070000002307EB4306B6F84660734A31420CBF3C
:100710000026012602F1A8001E540133152BF0D14A
:1007200092F8A9306D4E704943B9704BB2F91C2054
:1007300093F8C83003EB83039A420CDD0B689A07E9
:1007400009D5F3784BB9C4F8D030C4F8D430634B32
:100750000122DA7001E00023F37094F8AA305E4AB7
:100760005BB10023F370337943B9C2F8D030C2F8DB
:10077000D4305A4B01221A7100E0337194F8A8303A
:100780000BB901233370F278594B12B9534A1279DD
:1007900012B110225A6101E010221A610A6853074F
:1007A00025D594F8AB104C4B99B1B17991B94B4820
:1007B0004FF0010C80F806C0D3F8DC00C3F8EC1051
:1007C000C3F8D800B3F8E800C3F8F010A3F8E000CD
:1007D00000E0B1711EF4005F09D094F8AC302BB189
:1007E000F37B23B93D4B0121D97300E0F37312F081
:1007F0000A0F20D094F8AD3037494BB1737943B923
:10080000364B01205871B1F8C430A1F8F43000E043
:10081000737194F8AE302BB1737A23B92F4B012149
:10082000597200E0737294F8AF102B4B19B1B3F802
:10083000C410A3F8F610900640F19180F27A274B8D
:10084000002A00F0878094F8F820DFF88C80042AD2
:1008500040F2808098F8B2208AB1DA79002A7ED1FD
:100860000121D9711A72234B08F1FC0008F580713F
:100870001A7007F0BBF8022388F804316FE0DA71D0
:1008800098F8B320002A37D0B8F9E210B7F8DC2086
:100890000029B8BF494291422EDAB8F9E410002984
:1008A000B8BF4942914227DA1A7A002A57D1012764
:1008B0001F72104B08F584701A70D8F8103108F5C3
:1008C0008671C8F80831D8F81431C8F80C3107F02F
:1008D0008DF888F8047142E000010020C106002074
:1008E000A8180020360700202C050020C01C00207E
:1008F000000C014000000020944A0023337213785A
:100900006BBB012111701A46914F0020391D5052C6
:1009100007F1080107F10C0E5052002143F80E10A8
:100920009E44D053CEF80400CEF80810023207F1EE
:10093000340E5C3743F80E10D9519E441F44042AEC
:10094000CEF80400CEF808107860B96003F1140303
:10095000DAD104E00023F371337284F8043194F89F
:10096000B43003B10123B3726B79082B04D00E2B82
:1009700002D0172B40F066840023737200F062BC33
:10098000744BD3F89C31042B00F25C84DFE813F045
:1009900005008B00F8004D033E040123C4F89C3190
:1009A0006D4B6C4E1B6819077DD5D6F8A031D31A54
:1009B000002B78DB694B02F5C332A0325B6806F589
:1009C000D270C6F8A0219847654B06F5D2779A7B7E
:1009D000184692B1D6F8A0210023C6F8AC21E91838
:1009E0000022A1F8182116465E49FA5A5A520631D9
:1009F0005A520233062BF2D186735B4B1B78A3B19C
:100A0000B4F8A421B5F81831D31AA4F8A431B4F875
:100A1000A621B5F81A31D31AA4F8A631B4F8A82142
:100A2000B5F81C31D31AA4F8A831D4F8AC31494A2E
:100A3000002B00F00784D2F8A0114C48CB1A834257
:100A400002F5DB7102F5D87019D8494BDA6882F0EB
:100A50000802DA600023FA5A30F903E016B2B6450C
:100A6000C4BFDFF800E123F80E2031F903E0B645FA
:100A7000BCBF404E9A530233062BECD1E2E3002375
:100A8000C2F8AC31C75ECE5EEA183E4402273B4452
:100A900096FBF7F6062BA2F81861F3D10120014668
:100AA00007F078FBCEE3D4F89C312A4E0133C4F82A
:100AB0009C31294B1B685B0762D5D6F8BC31D31A31
:100AC000002B5DDBD6F8C031C6F8BC212A4F9BB1A4
:100AD0003B6998477B689847D6F8BC313A8806F559
:100AE000E2701344C6F8BC3106F5E4717B6998479F
:100AF0000023C6F8C031A5E3BB689847FB68984758
:100B00001E4AD6F8CC1192F831204B1C934208BFF4
:100B10000023D4F8C42104EB8101C1F8D021D4F81A
:100B20009012C4F8CC310A4404EB8301D1F8D0010F
:100B30000123121AC4F89022C4F8C0317A88D4F87C
:100B4000BC311344C4F8BC317CE300BF000000207A
:100B500018020020000100202C050020A405002020
:100B6000C1060020B0020020CC0500207FC3C901CF
:100B7000000C0140B60200207C050020C01C0020B3
:100B8000D4F89C31B14E0133C4F89C31B04B1B6892
:100B90005F0740F14A8203F021FCD6F8987246F2D2
:100BA000A713C71B9F42B6F896A2B6F894B240F2BC
:100BB0003C82DFF8C892C6F89802B9F80030DFF836
:100BC000B8827BB398F83100D6F89032D6F89C22E0
:100BD0000138B3FBF0F0082392FBF3F1521A1044F2
:100BE000C6F89C0290FBF3F00AF0D4F999490AF098
:100BF000D9FA99490CF048FF01464FF07E500AF0AF
:100C000013F996490AF01AFA0AF0DEFB0023C6F837
:100C1000A432C6F8A832B9F80030C6F8A002013BE9
:100C2000A9F8003098F831000FFA8BFB0FFA8AFA16
:100C3000D4F89032BBF1000FB8BFCBF1000BBAF182
:100C4000000FB8BFCAF1000AD345A8BFDA46013881
:100C5000B3FBF0F01FFA8AFACDF814A00AF096F967
:100C60007C490AF09FFA7C490CF00EFF01464FF0D8
:100C70007E500AF0D9F879490AF0E0F90CF036FE16
:100C8000D8F834608146D4F8AC020AF083F93146D2
:100C90000AF0D4F98046D4F8A002C0EB09000AF0AB
:100CA00079F9314681464FF07E500AF0BDF8014691
:100CB00048460AF0C3F9014640460AF0B7F80CF07E
:100CC00015FEDDF814A083460FFA8AF8B8F1FA0F82
:100CD000634E03DD4FF0FF33336014E030680AF0F9
:100CE00059F9814640460AF055F901465D480AF037
:100CF0009BF8014648460AF0A1F95A490AF052FA0F
:100D00000AF062FB3060366806F1FF39B9F1C60FB0
:100D100006D8C6EB0B03C4F8B032C4F8AC622FE0BF
:100D2000D4F8B032002EC3EB0B0BDFF820A1C4F8CF
:100D3000ACB225DDC6F596700AF02CF94A490AF0E6
:100D400031FA8046CAF8B40230460AF023F9414627
:100D50000AF074F9064658460AF01CF941468346E3
:100D60004FF07E500AF060F8014658460AF066F9E6
:100D7000014630460AF05AF80AF026FBCAF8AC02DF
:100D80003A4B186802930AF001F9394906460AF00D
:100D900055F98346D4F8C0020AF0FCF88046D4F82E
:100DA000C4020AF0F7F8014640460AF0FBF9314A5E
:100DB000079011680AF042F931460AF03FF92E4ACD
:100DC0004FF07C51D2F83CA0D4F8A482D4F8AC62A5
:100DD000069003920AF032F959460AF02FF9594663
:100DE00084464046CDF810C00AF028F9DDF810C05E
:100DF000014660460AF01AF8D4F8A8120AF016F86C
:100E000051460AF01BF9834630460AF0C3F85146B2
:100E100084464FF07E50CDF810C00AF005F8DDF89A
:100E200010C0014660460AF009F90146584609F02B
:100E3000FDFF039A029BB9F1C60FC4F8A8029146C0
:100E40009A461DD8014AC2F8DC601EE0000100206D
:100E50002C05002080E6C547B1DC423ED048874AD9
:100E600040000020000061440000C842A41D002092
:100E7000BD378635C0050020C01C0020560C002060
:100E80000AF0A2FAB04BC3F8DC000699404609F01C
:100E9000CDFF0346D4F8C8024FF00008CAF800801E
:100EA000C4F8B882C4F8BC82C4F8C082C4F8C48252
:100EB000301A02930AF06EF8A4490AF0BFF882468D
:100EC00038460AF063F8014650460AF06BF90AF01A
:100ED0007BFA40F2DC529E499042A8BF10468842FD
:100EE000B8BF08460A21C4F8C86203F0BDFC029BE3
:100EF000D9F838608246314618460AF09FF807460E
:100F000050460AF047F8314682464FF07E5009F0CD
:100F10008BFF014650460AF091F80146384609F029
:100F200085FFC4F8A4020CF0E1FC0521064603F09D
:100F30009BFC059FDFF810B23BB2B3F5487FC4F8C5
:100F4000CC026BDA9BF8D0320BBBDBF8D820DBF895
:100F5000DC308048D31AB3F5FA7FA8BF4FF4FA7398
:100F60008342A8BF18460A2103F07EFC7A4B8022F8
:100F70001B79584390FBF2F3B3F5967FA8BF4FF46B
:100F80009673A2F5D6729342B8BF134601E0DBF820
:100F9000D43299F80A209B1B5A43202192FBF1F28C
:100FA00099F81400D4F8EC1042F2040603FB001088
:100FB0006A4BB2F5967FA8BF4FF496729842A8BFCD
:100FC0001846674B9842B8BF1846C4F8EC0090FB2F
:100FD000F6F0644EB242ACBF8618861999F81E002E
:100FE00009F0D8FFD4F8D8120746079809F01EFF79
:100FF000014638460AF022F84FF06C510AF01EF80C
:101000000AF0E2F96FF095039628A8BF962098425F
:10101000B8BF1846301AC4F8F00001E0CBF8F080F1
:10102000DDF81C90C4F8D8920CE1D4F89C3101335F
:10103000C4F89C31AB68DE0540F1E8804A4EB368E5
:1010400063B94A4F3B78013B042B00F2FB80DFE899
:1010500013F0110011001100CC00B500B06803F0CE
:1010600011F90028EDD0404B986803F006F904F020
:101070002FFDF3E795F84491B9F1000F03D0B9F1D2
:10108000010F09D097E07A78394BB06803EB02136F
:10109000596807F048FC8BE0B068DFF8CC80036843
:1010A0001B699847002800F086803B782F4E022B62
:1010B0002CD0032B35D0012B7DD12E4BD3F80090B3
:1010C000736AC3EB0903632B75D9F369042B1BDC2B
:1010D000DFF89CA0D8F808000AEB0313596807F062
:1010E00022FC7378D8F808800AEB03139E6816F880
:1010F000011B19B1404603F0CAF8F8E7FB69C7F8CD
:1011000024900133FB6156E0022052E07278184BC4
:10111000D8F8080003EB0213596807F004FC032019
:1011200047E03369012B29D0022B41D0002B42D15B
:10113000326A114BC6F8109053F8321003EBC20319
:101140005B687161B36136E00001002000247449DE
:1011500024FAFFFF0CFEFFFFC01C00202003190033
:10116000E0FCE6FFD4FEFFFFD00500207C07002056
:1011700040FC0008A41800202CFD0008F369B269A7
:10118000934209DA7269D8F80800D15C03F07FF85D
:10119000F3690133F3610EE0326A7B490132326256
:1011A00051F832200023F36102B90223336102E0D7
:1011B000042005F05FFC00237B6043E07B68052290
:1011C00001337B607B7801200133DBB2B3FBF2F2A9
:1011D00002EB82029B1A7B706C4B6D4A1B68BB60F2
:1011E000002384F8F830D3720DE0684B1A68BB68AE
:1011F000D21A40F6C4139A4224D9664B05201A68C5
:1012000022F020021A6005F035FC1BE00023C4F830
:101210009C31604B1B68D80614D55C4B1A685E4B3A
:1012200019683C318A420DD31A605C4F5C4A5D4BB1
:101230005D4EC3F8DC223B880B20336103F0E8F8F5
:101240003B88736103F0CAF8AB89E06533B1554A56
:10125000D2F8E022821A002AC1F20881534E1844C3
:10126000C4F8E002736852489847524B1A8899466E
:10127000002A00F0C0804E494FF0000801F1080636
:101280004746B9F800B04C4BBBF57A7F08D1A3F1C3
:101290003C010A2000FB0711002243F808200A61E4
:1012A000434AD05F53F80820024443F8082009F06D
:1012B00071FE33690133012B336104D10023706067
:1012C0003060B3602AE0D6F800C002936146CDF8E2
:1012D00010C0039009F0A8FD029B8246184609F051
:1012E00059FE0146504609F05DFFDDF810C0014689
:1012F000604609F09BFD039A03461946706010464C
:10130000029309F091FD0146504609F097FEB1683D
:1013100009F08CFD029BF0603360B060244800232C
:1013200000F1500ABBF1010FC35327F80A3055D121
:101330003069012807DD013809F02CFE0146F0680C
:1013400009F030FF00E000200CF026FD834695F800
:101350000E0198B309F01EFE014658460AF02AF81D
:1013600060B34FF47A73A9F800300023C4F8FC325C
:10137000C4F81033C4F82433C4F83033C4F82C3321
:10138000C4F828332AE000BF2CFD0008A418002070
:10139000C10600202C050020B0070020A407002073
:1013A0004000002000010020000C0140300500201A
:1013B000E4030020540C002028040020B54B4FF417
:1013C0007A7258F803300A2003F5FA7393FBF2F3AC
:1013D0002AF807300F21012203F052F80237062FB6
:1013E00008F1040806F114067FF44BAFB9F8003099
:1013F000013BA9F800300023A74E06F5397706F522
:101400004D72F95A9A5A8A1AFA520233062BF3D1BC
:10141000A24B1B6813F0020300F09A83A04BA14F6C
:1014200006F23A305B689847388806F23A36002868
:1014300044D000231A46DFF888C2B0F5C87F04BF45
:1014400000214CF8021036F903805CF80210DFF836
:1014500048E241444CF80210002105EB0308F15228
:101460000233062BDFF848C2A8F8121102F1040279
:10147000E1D101281FD1DEF840334FF4C872C833E0
:1014800093FBF2F3ACF81231DEF84433C83393FB2C
:10149000F2F3ACF81431DEF84833C83393FBF2F2C0
:1014A000814B1B88D21A814BACF81621598599853E
:1014B000014606F06FFE3B88013B3B80AB687C4AEF
:1014C00059077CD5B4F8CA10734B322913D1B2F83E
:1014D0001201A3F84C03B2F81401B2F81621A3F8D4
:1014E0004E03A3F85023714A508D928DA3F85203F6
:1014F000A3F8542301E000293DD000221746DFF86D
:10150000C4E1322904BF00234EF807305EF807001B
:1015100036F902C005EB020860444EF807004FF0B0
:10152000000E26F802E00232062A5B4B6048A8F85B
:1015300012E107F10407E2D1012919D15D4A02261F
:101540001670B3F84C2383F8CCE0A0F81221B3F85E
:101550004E2383F8C610A0F81421B3F85023A0F846
:101560001621524AB3F85203B3F854335085938589
:101570000139A4F8CA1094F8C720474BFAB1D3F840
:1015800058033221002290FBF1F083F8C720A5F820
:101590001201D3F85C03D3F8603390FBF1F093FBB6
:1015A000F1F1414BA5F814011B880120C91A3F4BEA
:1015B000A5F8161101465A859A8506F0EBFDB4F898
:1015C0003A23B5F812310027D31AA4F83A33B4F805
:1015D0003C23B5F81431BB46D31AA4F83C33B4F815
:1015E0003E23B5F81631D31AA4F83E3302F0F6FEC6
:1015F000D4F864330646C31A1846059309F0C6FCAE
:101600002D4A0790D16809F019FD284BC4F864638E
:1016100093F82EA006903E469846284B0DF12809D7
:10162000985F09F0B7FC069909F008FD49F8070032
:10163000BAF1000F4AD0504609F0ACFC01464FF019
:101640007E5009F0AFFDDFF88090034619464FF059
:101650007E50029309F0E8FB57F8091009F0EEFC00
:10166000A9F12E010246885F039209F093FC029BC8
:10167000194609F0E3FC039A0146104609F0D6FB2F
:1016800049F8070009F0A0FE09F10C0929F8060045
:1016900021E000BF28040020000100202C050020CC
:1016A00044050020AC1D00202C000020C01C0020A0
:1016B000A8180020A11D002030050020E403002010
:1016C000400400205804002068040020C04BA3F10F
:1016D0003A02B25AF252BE4B0437F25E0236062E7E
:1016E00002FB02BB994698D1642303FB0BFBB94B69
:1016F00009F108001B880AA95B439BFBF3FBABF1D4
:10170000490B1FFA8BFB02F07BFFBBF13B0F6BD940
:10171000B14BD4F88463B3F9000009F03BFC0146F7
:1017200030464FF0010709F045FE00B90746AB4BC4
:101730003146D4F880035F730CF0A4F90746C4F86F
:101740008803D4F87C03D4F884A300F10046D4F8CD
:101750008003014609F072FC51468146504609F06B
:101760006DFC0146484609F061FB0CF015FB014693
:1017700030460CF087F90646C4F88C03384609F069
:1017800099F88FA3D3E9002309F0E8F809F0F8FAF3
:101790000CF0ACF8A4F89402304609F08BF888A35A
:1017A000D3E9002309F0DAF809F0EAFA0CF09EF820
:1017B0008B4BA4F896021B681A076DD50AA98948B5
:1017C00002F01EFFB5F80C0109F0E0FB4FF07E516E
:1017D000834609F02BFB01464FF07E5009F0E2FCF6
:1017E0004FF0000A06902DE0B5F80A0109F0CEFB93
:1017F0004FF07E51074609F019FB01464FF07E502D
:1018000009F0D0FC4FF0000A0646DFF8ECB138468C
:101810005BF81A1009F012FC034639F90A0002932A
:1018200009F0B8FB029B0146184609F0FFFA314661
:1018300009F004FC4BF81A000AF1020ABAF1060F8B
:10184000E3D165E7DFF8AC91584609F5647252F8C8
:101850001A10039209F0F2FB09F5D271844631F9AE
:101860000A00CDF810C009F095FBDDF810C0014664
:10187000604609F0DBFA069909F0E0FB039A42F8AA
:101880001A000AF1020ABAF1060FDBD1104602F083
:101890006FFFA9F8C40044E0DFF860A10AA90AF1CB
:1018A000040002F0ADFEDAF80400DAF80830014670
:1018B000DAF80CB0029309F0C1FB029B814619468D
:1018C000184609F0BBFB0146484609F0AFFA5946F5
:1018D0008146584609F0B2FB0146484609F0A6FA8F
:1018E0000CF05AFA0021814609F03CFDA0B9DAF863
:1018F0000400494609F056FC4946CAF80400DAF8E3
:10190000080009F04FFC4946CAF80800DAF80C0054
:1019100009F048FCCAF80C00334802F029FFA4F88B
:10192000C4003249079809F089FB06F10046814658
:1019300007F10047B4F9C4000E960D9709F02AFB91
:1019400000F1004008F0B6FF1FA3D3E9002309F01F
:1019500005F809F015FA0F90B4F9740309F01AFBB1
:101960001090B4F9760309F015FB1190B4F97803DF
:1019700009F010FB0DA9129010A802F041FE1C4BBB
:101980001C4E93F84430012B3AD1144B5B7873B959
:10199000D6F89C33402093FBF0F0181A09F0FAFABD
:1019A000129909F043FA09F00FFDC6F89C03D4F828
:1019B0009C33402093FBF0F024E000BFAFF30080A5
:1019C0003B597E90A9E78140399D52A246DF913F65
:1019D000740400202C000020BC050020C10600205B
:1019E0002C0500209004002004000020BD3786351F
:1019F000C01C0020000100207C040020000000200A
:101A0000B94B188809F0C6FA0146129809F00CFA89
:101A1000B64B12901968484609F008FA0146484644
:101A200009F0C0FBD4F8A07381463946129809F03A
:101A3000FBF90146484609F001FB0146384609F02A
:101A4000F5F90746C4F8A0031098D4F8B8920BF043
:101A50004DFF98F8301002F007FF4844C4F8B80270
:101A60001198D4F8BC920BF041FF98F8301002F0B6
:101A7000FBFE4844C4F8BC023846D4F8C0920BF0D0
:101A800035FF98F82F1002F0EFFE994B059F1A686A
:101A900048443A441A60D4F8C432964E0133C4F82C
:101AA000C43298F87630C4F8C002002B56D0D6F86D
:101AB0007C03D6F88093014609F0C0FA4946804677
:101AC000484609F0BBFA0146404609F0AFF9D6F89E
:101AD000847380463946384609F0B0FA01464046DC
:101AE00009F0A4F90CF058F90146384609F05AFB00
:101AF0008149074609F04AFC18B10023A6F8A4332F
:101B00002CE038460BF06EFF7C4B196809F096FA12
:101B10000BF0ECFEB0F5617FA8BF4FF4617008F0E8
:101B2000B7FE6FA3D3E9002309F042F809F028F9C2
:101B30000BF01AFF724B074693F8760009F02AFA69
:101B4000394609F07BFA0BF0D1FEA6F8A40305E0B4
:101B5000A6F83A33A6F83C33A6F83E336B79012B4E
:101B60000ED1B4F9A623B4F9E83203EB4203032201
:101B700093FBF2F39BB2A4F8AC33A4F8A63303E0D2
:101B8000B4F8E832A4F8AC33B4F8E432594FA4F80E
:101B9000A833B4F8E6325A4EA4F8AA3302F01EFC79
:101BA000584BE0651A681860821AA4F8AE2300F05A
:101BB0006BFC554B196811F0080F34D0B7F8E620CC
:101BC00002F145039BB28A2B29D8504B58799E4687
:101BD00028B3B7F8F430B7F8C400C01A80B283B2A3
:101BE0001FB2B337BCBF00F5B4739BB218B2B328B1
:101BF0009EF80D70C4BFA3F5B4739BB295F80401B1
:101C00008FB140B240424343707A1BB243436FF0FE
:101C10001D0093FBF0F31A44A4F8E62003E0B4F8A7
:101C2000C430A4F8F4304B0740F19780374B9A79D1
:101C3000002A00F092801F7C002F40F0848096F8EC
:101C4000730096F872202B4B80B3B4F8E8C0B4F957
:101C5000E0000FFA8CFEC0EB0E08B8F1000FB8BF21
:101C6000C8F1000890450FDD8645C8BF52421FFAF3
:101C70008CFCC8BF92B2C3F8EC706244012783F8B1
:101C8000B073A4F8E82068E093F8B0232AB1D3F841
:101C9000DC2083F8B073C3F8D820D4F8F030B5F85E
:101CA000EA201844B5F8E830984244E0B4F9E0700E
:101CB000B4F9E8E0C7EB0E0E8EEAEE7CACEBEE7CFE
:101CC000944525DD02229EFBF2F2C3F8D4220122C4
:101CD00083F8D02283F8B02325E000BFAFF3008063
:101CE000A2EB0FE5DD1696402C000020C805002071
:101CF000A41D0020000100208FC2753CC4050020F7
:101D0000C01C0020500C00202C050020C106002023
:101D100093F8B0233AB1D3F8DC2083F8D002C3F8AB
:101D2000D82083F8B003D4F8F020B5F8E8303A446E
:101D3000B5F8EA009A4203DB8242B4BF1346034679
:101D4000A4F8E83009E0B4F8E42095F93D01D4F8AE
:101D5000F03000FB0323A4F8E43096F876305BB152
:101D6000B34BDA780AB91B7933B1B4F8E830B4F878
:101D7000A4231344A4F8E8308F0640F1B180AC4BA3
:101D8000DA791AB91A7A002A00F0AA801B7B002B94
:101D900000F0A680B4F9C40009F0FCF8A54909F0E8
:101DA0004DF980460BF0E0FD814640460BF068FDA2
:101DB00096F8D5A08046A04FB4F92201BAF1000FE1
:101DC0005CD0B7F81E31CAF100071FFA83FB1BB2C3
:101DD000C01A02F00DFFB84203DB5045A8BF5046C1
:101DE00000E03846B4F81C318344B4F920019AB2BB
:101DF0001BB21FFA8BFBC01AA4F81EB1039202F0AB
:101E0000F7FEB842039A03DB5045B4BF0746574676
:101E10001744BFB2A4F81C710FFA8BF009F0BAF89E
:101E2000824638B209F0B6F841460746504609F0F6
:101E300005F949468346384609F000F901465846F7
:101E400008F0F2FF7D4909F0ADF909F0BDFA494605
:101E5000A4F81801504609F0F1F841468146384689
:101E600009F0ECF80146484608F0E0FF734909F034
:101E700099F909F0A9FAA4F81A0131E009F08AF8F1
:101E80008346B7F9200109F085F841468246584655
:101E900009F0D4F8494603465046029309F0CEF8BB
:101EA000029B0146184608F0BFFF644909F07AF921
:101EB00009F08AFA4946A7F81801584609F0BEF811
:101EC00041468146504609F0B9F80146484608F0B7
:101ED000ADFF5A4909F066F909F076FAA7F81A0138
:101EE000574B1B699847574B1A78032A13D9B4F9F3
:101EF000E600B4F9B6130028B8BF40426FF06303A0
:101F00001B1A994204DB00F164038B42A8BF0B4605
:101F1000A4F8B63309E0012A07D86B794A49013B96
:101F2000DBB2162B00F21D8159E096F9CEB0B4F960
:101F3000B613CBF1000B01FB0BFBB4F8E830B4F89F
:101F4000B493B4F8B2A3414F4FF00008904507F1A5
:101F50001007E2D218B20392029309F01BF857F867
:101F6000101C09F06BF884460FFA89F0CDF810C008
:101F700009F010F857F8081C09F060F8DDF810C0F7
:101F80000146604608F052FF84460FFA8AF0CDF809
:101F900010C008F0FFFF57F80C1C09F04FF8DDF8EF
:101FA00010C00146604608F041FF84465846CDF80F
:101FB00010C008F0EFFF57F8041C09F03FF8DDF8F7
:101FC00010C00146604608F031FF09F0FDF92049D4
:101FD000029B21F81800039A08F10108B6E70122D4
:101FE0009A401C4B1340002B00F0BB80104B5A78DA
:101FF0001F46174B12B9B1F8EC200BE0B1F8E820FE
:10200000B4F9E800B1F8EA10904203DB8142B4BFB2
:102010000A4602461A80BA7AF2B1B4F8E220ADF864
:102020004020B4F8E420ADF84220B4F8E6201DE0EA
:10203000C106002035FA8E3C00010020000020413E
:1020400000000020A41C0020A8180020E8050020A3
:10205000A61C002099205800B4F8B223ADF8402007
:10206000B4F8B423ADF84220B4F8B6231B88ADF819
:102070004420ADF84630B24BB5F834211989511AD5
:10208000ADF848105989511AADF84A109989511A7A
:10209000ADF84C101988511AADF84E105988511AE4
:1020A000ADF850109988511AADF85210D988521ACB
:1020B000ADF85420B4F89622ADF85620B4F8942226
:1020C000ADF85820002202EB82013144B1F87C00C7
:1020D00001B21129D8BF33F811009A495052023287
:1020E000102AF0D1984B1B7803EB430E0023734565
:1020F00028D0964A4FF00A0898189A5C477808FB4F
:102100000268B8F880800DF1600948FA07F809EB19
:10211000470737F9207C90F9020018F0010F00FB07
:1021200007F00CBF4FF001084FF0FF3800FB08F03C
:1021300031F812C0642790FBF7F0604421F81200D8
:102140000333D4E7002303EB83023244C85E92F9E1
:102150007E204243642092FBF0F2CA520233102BDD
:10216000F1D1AB6898063ED5B6F87C30B6F886005B
:102170001AB2112AD8BF724B7249D8BF33F8123045
:1021800002B2112AD8BF6E480B80D8BF30F81200B7
:10219000DFF8D8C1488094F8B0106A4A074611B3F6
:1021A00096F8D010BCF9944211F0020F96F988000D
:1021B0004FF0320196F97EE0BCF996C218D0604328
:1021C000CEF1000E0CFB0EFC90FBF1F06FF0310431
:1021D00080B29CFBF4F404449CFBF1FC2344604477
:1021E0001380074457805A4B5A4A03F1100410E0F9
:1021F0000CFB0EFE60439EFBF1FE734490FBF1F17D
:1022000013800F44EEE723F8021FA34202F10A02F3
:102210000CD0B3F90200B2F97810B2F87A708842A3
:10222000F1DB39B28142A8BF0146ECE796F8D03025
:10223000590706D4484B494A93F800C01188012336
:102240000FE0474B0024DE7D043E3D4BA01903EB1D
:102250004403C0B21989013402F0B4FD042CF4D156
:10226000E8E7634508D232F9130009B28842A8BFF3
:10227000014689B20133F4E7B5F8EA00B5F8E86041
:10228000431A1FFA83F9AB68B5F8EC4003F48042B7
:1022900009922B4A03F0100B324BB2F90620B5F825
:1022A000EE705B78B5F834A1B5F8F0E0B5F83651CA
:1022B0000192B2B208930597079506921FFA84F827
:1022C0004FEA4C0C0023634552D00AB28242234DA0
:1022D00002DDEA5A4A44EA52099F204AA7B1019D09
:1022E0005545D55E07DD754503DB8542A8BF05462C
:1022F0001CE075461AE0A54204DB059FBD42A8BF5D
:102300003D4613E0254611E0ED5EB54203DB854214
:10231000A8BF054600E03546D552079F019DBD4246
:1023200005DA069DBBF1000F18BF4546D552089A45
:102330001AB90D4A9D5A094A9D520233C3E700BF9C
:10234000300700207E000020A8060020A9060020FB
:102350007C000020C01C0020A41C0020A61C002023
:10236000D0050020C1060020B80400200001002094
:10237000404B9B7D002B57D03F4D6B79013B162B7B
:1023800046D8DFE803F00C45451A48454522454547
:102390004545452245454545451A22452200374BCE
:1023A00093F8CF301BB1364B002059893AE0354BBA
:1023B00058780028F7D1014634E0314C00202189BB
:1023C00002F000FD012061892CE02D4C0020E18805
:1023D00002F0F8FC0120218902F0F4FC022061895E
:1023E00002F0F0FC0320A18902F0ECFCAB68DA07F4
:1023F0001AD50420218802F0E5FC0520618802F04E
:10240000E1FC0620A18802F0DDFC0720E18909E05B
:10241000AB689B0608D51A4C0020218802F0D2FC3C
:102420006188012002F0CEFC02F0CEF81EE0154BD0
:102430001B78002B3EF43DA802F048F8FEF739B8AF
:10244000012202E0022200E003225FFA82F900206A
:1024500009F1FF33014685F8F83305F09BFE0220B1
:1024600028214A4602F00CF8FEF798B819B0BDE8EA
:10247000F08F00BFD0050020A8180020C01C00204D
:102480007E000020C1060020634B2DE9F04FB3F918
:102490000600624B8DB0DA8C90420FDBB0F5FA6F1C
:1024A00093F8254007DA811A4C43A2F5FA6294FBAF
:1024B000F2F4643403E0C4F1640400E06424584A94
:1024C00093F82360B2F8341192F9042193F8705014
:1024D00093F87170524293F8243092B20491002123
:1024E0000692059607930A464B4BDDF810C031F96A
:1024F000038040F2E636CCEB080303F2F31EB64548
:1025000003D8002BB8BF5B4201E04FF4FA73022AF4
:10251000DFF814C12CD025B1AB42CCBFC5EB03030F
:1025200000236426DFF804A193FBF6FE6FF0630B33
:102530003AF81E900BFB0E3B0EF1010E3AF91EA06D
:102540000FFA89FECEEB0A0E0EFB0BFE9EFBF6FE8B
:10255000CE442CF801E0DDF814C003FB0CFE314B37
:102560009EFBF3F333449BB2634393FBF6F314E017
:1025700027B1BB42CCBFC7EB03030023DDF818E053
:1025800003FB0EF6ACF80460079E002BB8BF5B425D
:102590007343244E93FBF6F36433DFF88090DFF847
:1025A00090C002EB090696F801A096F80BB0767D74
:1025B00003FB0AFA03FB0BFB73434FF0640E9AFB19
:1025C000FEFA02F80CA093FBFEF30CF1030A0CF1E7
:1025D000060C02F80C30DDF810C09BFBFEFBE0455A
:1025E00002F80AB0104B05DA33F801E0CEF1000E24
:1025F00023F801E00132032A01F102017FF474AFF4
:10260000074DB5F83621904214DBB0F5FA6FA8BF3C
:102610004FF4FA600FE000BF30070020C01C00201C
:10262000A81800200CFEFFFFE2010020580C00203B
:10263000660C00201046801A4FF47A714843C2F5A8
:10264000FA62B0FBF2F24FF0640CB34C92FBFCF177
:1026500004EB4100B0F818E06FF0630000FB0122CA
:1026600004EB4101B1F91A000FFA8EF1411A4A4305
:1026700092FBFCFCE644A3F806E0A84BA84F5B7A6B
:10268000002B44D0A74BB3F90000A74BB3F900309F
:10269000C01A08F0FDF89EA3D3E9002308F05EF904
:1026A0000022A24B08F084FA08F06AFB80460BF087
:1026B000E7F8814640460BF057F98046B7F902002B
:1026C00008F068FC8246B7F9000008F063FC494650
:1026D000834608F0B3FC41460646504608F0AEFC7F
:1026E0000146304608F0A0FB08F06EFE49463880EF
:1026F000504608F0A3FC41468146584608F09EFC2F
:102700000146484608F092FB08F05EFE7880D5F856
:102710000880DFF848A218F0020F00F08380844B95
:1027200006211A88236B7C4F1A4494F834302263B4
:102730000133DBB2B3FBF1F901FB193919F0FF06E4
:1027400084F8343004965CD17A4E7B4B7078B96B48
:1027500033F810E04FF0080B91FBFBF01FFA8EFEF0
:10276000081A7044B86390FBFBF080B203920193A7
:1027700008F010FC714908F061FC714908F012FD85
:1027800081469AF8230108F005FC0146484608F006
:1027900055FC08F03FFE9AF82611B887039A019B72
:1027A00079B37079396C33F8100091FBFBF380B288
:1027B000CB1A03443B6493FBFBF39BB240F6E4412A
:1027C000594340F6FF70B1FBF0F1BAF820014FF425
:1027D0007A73091A5943BAF81E0191FBF0F14A4382
:1027E00092FBF3F37964D7E91201C01841EBE3716E
:1027F000C7E91201534A002308F02CFE049E3865F5
:102800003E63514AA38F12889A4203D395F825213B
:102810009A4203D9002384F8543003E03E4B04224B
:1028200083F8542049483C4B417B94F8542001B133
:10283000012118F4007F83F8551022D0444E454BF7
:1028400096F8C8101B8801EB810618B2B04215DD5E
:10285000324E76787EB1012684F856603C4E96F86A
:10286000C960314401EB8101884207DD2A49022019
:1028700081F8560002E0022184F856100BB984F862
:102880005630354E33689B060CD530498B7A0BB9E0
:10289000CB7A23B1214BDB7A0BB9012300E0002373
:1028A00084F8573094F856101B4B022902D14C2063
:1028B0004E211DE0012904D14D2153204C220B460D
:1028C00007E093F85710012906D1532001464E2204
:1028D0004D2306F0EFFC4EE093F85510012903D18B
:1028E000532001460246F3E7042A03D153204D2129
:1028F0000A460AE0022A03D1532001464D2204E091
:10290000012A2DD153204D214E224423E1E700BF5F
:10291000182D4454FB210940580C0020C10600200A
:10292000E2010020C4010020F60100200080664082
:10293000AE040020F4040020FC0400203333534094
:1029400000F07F45407E050004050020A80100201E
:10295000C01C00201C0100202C050020A81800200D
:10296000B04A107818B1322004F054F803E083F82C
:10297000580001F02CFDAC4B1A8812B133689F0748
:1029800002D4AA4B1B882BB1A94BDA6882F008024B
:10299000DA600FE0A74B9A7812B1A54A08211161BD
:1029A0005B7813B1A24B08225A61A34B1B780BB181
:1029B00006F0C8FFAB68180662D5A04AA04F13689E
:1029C000E26D9A1A002A5BDB03F543435033FB6543
:1029D00097F860309BB97A238DF82430994B022206
:1029E000B3F900306D20C3F1B40393FBF2F38DF81B
:1029F0002530FF2109AB06F0ABFA012325E0012BBE
:102A000026D191497923B1F900208DF824300A2389
:102A100092FBF3F25A32B42AA8BFB42222EAE2723D
:102A20008DF82520B1F902206D2092FBF3F35A3383
:102A3000B42BA8BFB42323EAE3738DF82630FF211B
:102A400009AB032206F084FA022387F8603017E00E
:102A5000022B15D164238DF8243001238DF8253005
:102A6000744B6D205B78FF21002B18BF01238DF87C
:102A70002630032209AB06F06BFA002384F860309D
:102A80006E4B1A68636ED31A002B11DB694B597BAE
:102A900061B99970664BD96881F00801D96002F577
:102AA000F423674A03F59073536601E001229A709C
:102AB0000027D4F87021624B9742DFF8A4A180F27E
:102AC000358703F168014C2000FB07115F4A116054
:102AD0009AF80010914619B103F0F4FD00F026BFFA
:102AE00093F8003113B15A4A5A4BDA60D9F80030E2
:102AF000DFF858A1186801F0C5FB002800F0138723
:102B0000DAF80030186801F0B8FBDAF8003093F812
:102B10004920C2B9B0F124014A424A4183F8492010
:102B2000002AE3D1434B5B78002BDFD1232802D16D
:102B300003F0C8FDDAE795F8F9338342D6D1464A67
:102B4000464B1A60CFE7012A05D14D2814BF002259
:102B5000022200F0E4BE022A05D13C2814BF002264
:102B6000032200F0DCBE032A0DD140284FF0000202
:102B700000F2D58683F847205A7183F8480018710F
:102B8000042200F0CCBE042A07D11A7983F846004B
:102B900050401871052200F0C2BE052AA6D193F854
:102BA000481093F847209142197907D9414019718B
:102BB000511C83F847101344987197E7814240F005
:102BC000AB8693F84630752B00F0288400F2118113
:102BD000692B00F0718300F2C280452B00F07D86E6
:102BE00040D8422B00F036860CD8402B00F0588697
:102BF000412B40F08886002001F07CFB4FF0000A5A
:102C000000F05FBE432B00F0F985442B40F07B863B
:102C1000002001F06FFB0A4B012283F8002100F035
:102C200076BE00BFA11D0020AC1D0020540C00206A
:102C3000000C0140C10600204C0C00205C0100206B
:102C4000580C0020C4010020940300204400002000
:102C50000400FA0500ED00E0EFBEADDEF04F00200D
:102C6000B41D0020662B00F094826CD8642B00F019
:102C70006182652B40F047860B2001F03BFBD84B6F
:102C8000DFF878A3B3F9000001F037FBBAF81E01B2
:102C900000B201F032FB3368C3F3C000C3F380021B
:102CA000800040EA4200C3F340021043C3F34012E5
:102CB00040EAC20003F01003184301F01EFBC94AAA
:102CC000002092F804E0D3784FEA8E0E4EEA430ECD
:102CD00053784EEA030E93794EEAC30E53794EEAC7
:102CE000431E537A4EEA831EBF4BD9794EEAC11E6A
:102CF000197A4EEA012E597A4EEA412ED1794EEADE
:102D0000812E117A927A4EEAC12E4EEA023E5A7B09
:102D10009AF81C114EEA423E9A7B4EEA823E1A7C99
:102D20004EEA024E1A794EEA021E5A7C4EEA424E92
:102D30009A7C4EEA824EDA7C1B7D4EEAC24E4EEA07
:102D4000035E03460EE2672B00F06382682B40F0BF
:102D5000DA85102001F0CEFA4FF0000AA1E26F2BC5
:102D600000F0248324D86C2B00F0D48218D86A2B6E
:102D700000F0B2826B2B40F0C685DFF880A2052000
:102D800001F0B8FABAF9220101F0B7FABAF9240150
:102D900001F0B3FA9AF8060100F0010000F05EBC01
:102DA0006D2B00F0C6826E2B00F0CE8200F0ABBD22
:102DB000722B00F0D48311D8702B00F01783712B85
:102DC00040F0A185DFF834B24FF0000A9BF81C01F7
:102DD000400000F0FE0001F08DFA5DE3732B00F07F
:102DE0000484742B40F08F854FF0000A4FF0010BE4
:102DF00076E3CE2B00F0848444D8C82B00F0948076
:102E00002BD8782B00F015820FD8762B00F0FC839E
:102E1000772B40F07885DFF8E4A14FF0000B9AF8AB
:102E20001C0101F067FA534691E3A02B00F0948453
:102E3000A42B40F06885DFF8C4A14FF0000B9AF88E
:102E40002E0180000130C0B201F054FA9AF82E0130
:102E500001F022FA534600F08DBCCB2B61D009D88B
:102E6000C92B75D0CA2B40F04E85DFF8A4A10AF11A
:102E70000A0B90E0CC2B00F0CF80CD2B00F03684F5
:102E800000F041BDD42B00F0F08116D8D12B00F01A
:102E9000E88307D8CF2B00F0E280D02B00F01D8410
:102EA00000F031BDD22B00F03081D32B40F02B85C8
:102EB00001F06EFB4D4B1880CCE0F02B00F040840D
:102EC00010D8D62B00F01481EF2B40F01C8501F0B8
:102ED0005FFBDFF838A1AAF82C0001F059FBAAF833
:102EE0002A00B7E0FA2B00F01384FE2B40F00B858C
:102EF000082001F0FFF93E4B3E4A1B684FF0000AE4
:102F0000B3FBF2F3C3EB431103EB81033A490968C6
:102F1000B1FBF2F2394902EBC303A1F82C3100F006
:102F200004BC4FF0000A47E04FF0000A01F030FB0C
:102F3000334B23F80A000AF1020ABAF1100FF5D157
:102F4000002001F0D7F92F4B01221A7000F0DFBCEE
:102F500001F013FB234BDFF8BCA0D87201F00DFB8E
:102F6000294B187001F01EFBCAF8000001F01AFB93
:102F7000CAF8040001F00CFBDFF880A0AAF80201F7
:102F800001F006FB9AF80631AAF8040143F00203A7
:102F90008AF806315EE001F0F0FA0AF1010A8AF8D7
:102FA000010001F0EAFA8AF80B0001F0E6FADA45CE
:102FB0008AF81500EFD14DE0104B93F81C21924593
:102FC00048D203F207131AF803B001F0E1FA0F4BED
:102FD0000AF1010A03EB4B03A3F84600ECE700BF3C
:102FE000AE040020C1060020A8010020F40100204A
:102FF0001400002040420F0090000020580C0020D8
:103000003007002058010020F8010020C01C0020DB
:10301000BF1C00201002002001F0AFFADFF854A41A
:103020008AF81F0001F0A9FA8AF8200001F0A5FA39
:103030008AF8230001F0A1FA8AF8240001F09DFA31
:103040008AF8250001F099FA8AF8210001F095FA32
:103050008AF82200002001F04DF900F058BC01F080
:1030600097FA6FF4AF628318DFF8D4A3C62B98BF2A
:10307000AAF8340101F08CFAAAF8E80001F088FA05
:10308000AAF8EA0001F084FAAAF8EC0001F080FA4C
:10309000DFF8E0B3ABF8CA0001F06FFA8AF8440138
:1030A00001F06BFA8AF8450101F067FA8AF84601E7
:1030B00001F063FA8AF8220101F05FFA8AF83E0112
:1030C00001F05BFA01F064FA00EB80004000ABF81D
:1030D000280001F052FA8AF8230101F04EFA8AF82A
:1030E000250101F04AFA8AF8240101F046FAB1E715
:1030F0004FF0000A01F04CFACF4B23F80A000AF116
:10310000020ABAF1100FF5D1A4E7CC4B5B78002B83
:10311000A0D101F032FACA4B022883F8F8034FF02D
:10312000000088BF0022014688BF83F8F82305F01D
:1031300031F88FE70720DFF808A301F0DBF8E7207C
:1031400001F0AAF89AF8050001F0A6F8002001F0B5
:10315000A3F89AF83C01BB4BBB4A00280CBF1046B1
:103160001846CDE38B420ED2B84A13F802C00122B2
:1031700002FA0CFC1CEA0E0F18BF9A4003F101037F
:1031800018BF1043EEE701F0C2F8AD4B93F8F80317
:1031900064E2122001F0AEF8AD4BDFF8DCA21B8830
:1031A000B3F5806F28D94FF0000B3AF90B000823D4
:1031B00090FBF3F00BF1020B01F09FF8BBF1060F4F
:1031C000F3D1DFF8B8A2BAF9000001F096F8BAF925
:1031D000020001F092F8BAF90400DFF8A4A201F0AD
:1031E0008CF8BAF9000001F088F8BAF9020001F091
:1031F00084F8BAF9040050E3BAF9000001F07DF850
:10320000BAF9020001F079F8BAF9040001F075F892
:10321000D7E7102001F06EF84FF0000A8D4B13F83D
:103220000A000AF1010A01F037F8BAF1100FF5D1DE
:103230006DE3382001F05EF8DFF838A20AF1500B98
:10324000BAF9780001F059F8BAF97A0001F055F8A6
:10325000BAF97C0001F051F80AF10A0A9AF87400F0
:1032600001F01AF8DA45EBD151E3002001F042F801
:10327000DFF800A20AF1500B01F08AF9AAF87800F1
:1032800001F086F9AAF87A0001F082F9AAF87C0028
:1032900001F073F90AF10A0A8AF87400DA45EBD1F1
:1032A00035E36D4B13F80A000AF1010A00F0F4FF50
:1032B000BAF1100FF5D12AE3102001F01BF84FF0FE
:1032C000000A664B33F90A000AF1020A01F015F808
:1032D000BAF1100FF5D11AE3102001F00BF8574B9B
:1032E000DFF8A0A1D87A00F0D7FF5D4B187800F086
:1032F000D3FFDAF8000001F00AF8DAF80400DFF88A
:1033000088A101F004F8BAF9020100F0F6FFBAF959
:103310000401BEE2DFF874A1062000F0EBFFBAF969
:10332000000000F0EAFFBAF9020000F0E6FF4D4BA2
:1033300007E0062000F0DEFF4B4B186800F0E7FFC7
:103340004A4BB3F90000A8E2DFF83CA1072000F0E7
:10335000D1FFBAF83C004FF6FF7BFF28A8BFFF2043
:10336000C0B200F099FFDAF850005845A8BF58469F
:1033700020EAE07000B200F0C0FF3D4BB3F900005E
:1033800000F0BBFF2E4BDAF8440093F822310028FE
:10339000B8BF40422BB10A2358435845A8BF5846EE
:1033A00002E05845A8BF584600B276E2DFF8C4A054
:1033B000072000F09FFF9AF81F0000F06DFF9AF8B9
:1033C000200000F069FF9AF8230000F065FF9AF8EA
:1033D000240000F061FF9AF8250000F05DFF9AF8E4
:1033E000210000F059FF9AF8220037E11E2000F07A
:1033F00081FFDFF89CA00AF10A0B0AF1010A9AF892
:10340000010000F049FF9AF80B0000F045FF9AF820
:10341000150000F041FFDA45EFD178E22F2000F0EF
:1034200069FFDFF870A01AF8010F002800F06F8222
:1034300000F032FFF7E700BFB8040020C10600200B
:10344000A81800200C0000C0040000C05F0D002080
:103450002C0000207E000020A61C00203007002049
:10346000F8010020C4010020DC010020CC03002072
:10347000BE010020C01C002074040020A80400200D
:10348000A402002010020020580C00209403002009
:10349000BF1C0020370201089BF81C319A4580F0C0
:1034A0003682C54B1AF80320C44B0AF1010A03EB1C
:1034B0004203B3F9460000F020FFEDE7824408F133
:1034C0000108BF4991F81C0180450CDBBBF1000FDE
:1034D00000F01D825FFA8AF000F00CFF4FF0000B45
:1034E0004FF00008EDE701F20711B64818F8011097
:1034F0004FF00C0E0EFB0101496B0846049109F0D8
:1035000076FF8446BBF1000FD8D159466145D6DA23
:10351000049A505C0291CDF80CC000F0BDFE0299F7
:10352000DDF80CC00131F1E7A74AA3495244127AF1
:103530001BF80100904203D1019300F0ADFE019B06
:103540000AF10C0ABAF1FC0FEED10BF1010B93F862
:103550001C21934580F0DB814FF0000AE4E7DFF89F
:1035600094A2162000F0C6FEBAF9340100F0C5FEA0
:10357000BAF9E80000F0C1FEDFF840B2BAF9EA009B
:1035800000F0BBFEBAF9EC0000F0B7FEBBF9CA00D0
:1035900000F0B3FE9AF8440100F07EFE9AF845016F
:1035A00000F07AFE9AF8460100F076FE9AF82201C1
:1035B00000F072FE9AF83E0100F06EFE002000F06E
:1035C0006BFEBBF928000A2390FBF3F000F095FE98
:1035D0009AF8230100F060FE9AF8250100F05CFEE5
:1035E0009AF8240100F058FE37E0082000F082FE2F
:1035F0004FF0010A5FFA8AF00AF1010A00F04CFE6E
:10360000BAF1090FF6D182E100F0B7FF03461220AC
:10361000019300F06FFE019B0BB96C4A02E0102B86
:1036200005D16B4AD2F800B0D2F804A002E04FF006
:10363000000AD346184600F02FFE584600F067FEF9
:10364000504600F064FE634B186800F060FE0020F6
:1036500000F053FE002000F050FE002000F01CFEA1
:1036600055E100F08AFF834600F09CFF039000F0D4
:1036700099FF019000F096FF824600F089FF00F06C
:1036800087FF00F07AFF039A019BBBF1000F0FD177
:103690004E4981E80C00504B012283F807B01A73A1
:1036A000BAF1000F3FF4D6AC4A4BC3F800A0D1E406
:1036B000BBF1100F7FF4CEAC454981E80C00BAF1A4
:1036C000000F02D0434BC3F800A04148434B0222F5
:1036D000011D1A7004F08AF9BCE43F4B5B78002BA3
:1036E0007FF4B8AC012006F0E3FCB3E43A4B5B781E
:1036F000002B7FF4AFAC3A494FF4C8730B80A9E4B8
:10370000354B5A78002A7FF4A5AC01229A73A1E4C4
:10371000314B93F801A0BAF1000F40F0F48050460D
:10372000012104F037FD504695E42E4B33F90A0091
:103730000AF1020A00F0E1FDBAF1080FF5D1E6E066
:10374000DFF878A0042000F0D5FDBAF92C0000F0D5
:10375000D4FDBAF92A00A0E00C2000F0CBFD224BEA
:10376000186800F0D4FD214B186800F0D0FD204B04
:103770001868C5E093F82E21934580F0C880DFF8E3
:1037800078A01AF80B00019300F086FD0AF11002F0
:1037900012F80B0000F080FD0AF1200212F80B0075
:1037A0000AF1300A00F078FD1AF80B0000F074FD01
:1037B0000BF1010B019BDDE75F0D0020C01C002019
:1037C000580C00203802010868020108FC010020A2
:1037D00008020020D8010020C106002004020020B9
:1037E000AC1D00207E0D0020E8F7FF1FECF7FF1F47
:1037F000F0F7FF1FA8180020870D0020002000F020
:1038000079FD00F0BAFEDFF858A10023CAF80830AD
:103810008AF8050000F0C6FEDAF808301843CAF846
:10382000080000F0AAFE8AF82F0100F0B1FEAAF805
:10383000FE0000F0ADFEAAF8000100F0A9FEAAF813
:10384000020100F0A5FEAAF81E0100F0A1FEAAF8F0
:1038500020015CE0DFF808A1102000F04BFD9AF891
:10386000050000F019FDDAF8080000F050FD9AF8A4
:103870002F0100F011FDBAF9FE0000F03EFDBAF98B
:10388000000100F03AFDBAF9020100F036FDBAF984
:103890001E0100F032FDBAF9200100F02EFD36E0E5
:1038A000082000F027FD4FF0000A2D4B534493F8F9
:1038B00027010AF1010A00F0EFFCBAF1080FF4D178
:1038C00025E000F05AFE264B53440AF1010ABAF1F2
:1038D000080F83F82701F4D119E0132000F00AFD46
:1038E0004FF0000A1F4B13F80A000AF1010A00F01A
:1038F000D3FCBAF10B0FF5D1002000F008FD002039
:1039000000F005FD03E00120002100F0D5FCD9F80E
:103910000030187900F0C0FCD9F80030002283F89C
:103920004920FFF7E3B80137FFF7C3B89AF8003032
:1039300023B133689B0600F19E82B3E2AA68084B6C
:103940001705F6D5084A1278002AF2D093F85321C9
:10395000AAB993F854315BB9044B5B780AE000BF15
:10396000A8180020561101084C0C0020C1060020A8
:10397000D24A137D003318BF0123002BD9D095F80C
:103980005231002B40F08281CD4BD86800F07AFC98
:10399000002840F07B81CB4FD4F874113A68CA4BB1
:1039A000511A7C29B84640F27181C3F8742193F80A
:1039B00078210746013283F8782107F12400C0B24C
:1039C00000F0CEFCC14B33F9170007F0E3FAC04B0F
:1039D0008246188807F0DEFA0146504607F0E2FBFF
:1039E000BC4907F02BFB07F0EFFC013700B200F0F9
:1039F000E3FC032FE1D1302000F0B2FCB64BB3F969
:103A0000000000F0D9FC00F0B9FC94F8780110F047
:103A1000030B2CD1DFF8D0A2102000F0A1FCDAF8C3
:103A20000030642793FBF7F000B200F0C5FC2120C2
:103A300000F096FCDAF8003093FBF7F007FB103744
:103A400087EAE770A0EBE77000B200F0B5FC142045
:103A500000F086FCA14BB3F9000000F0ADFC1C2087
:103A600000F07EFC584600F0A7FC00F087FC94F8BC
:103A70007831954F580740F0E380022000F070FC49
:103A8000B7F97A014FF00A0A90FBFAF000F094FCC3
:103A9000AB68990760D5BB8F4FF06E0B0BFB03FB38
:103AA00015239BFBF3FB3A2000F05AFC1FFA8BFB1B
:103AB0006422BBFBF2F90FFA89F0039200F07CFC60
:103AC0003B2000F04DFC039A02FB19B080B2053098
:103AD000DFF818B290FBFAF000B200F06DFC9BF832
:103AE0000030BA8F40F6340192FBF3F24A432A21A8
:103AF000B2FBF1F2B7F87C1191FBF3F003FB10136A
:103B00001B019BB243EA02239BB2C2F3032243EAA6
:103B10000209062000F024FC0FFA89F000F04CFCAA
:103B2000B7F87C219BF80030013292B292FBF3F19E
:103B300003FB11232820A7F87C3100F011FC786CDE
:103B400090FBFAF000B200F037FC042000F008FC13
:103B5000B7F9500000F030FC33689A066ED5DFF8F4
:103B600090A15F4FDAF800303C2183EAE37CACEBB4
:103B7000E37C5C4B13209CFBF3F207FB02CC01FBC4
:103B80000CF9029199FBF3FB0193039200F0E8FB1F
:103B9000039A02EB820202EB82020BEB820007FB2C
:103BA0000B9B00B200F008FC4FF47A791B2000F068
:103BB000D7FB9BFBF9F000B200F0FEFB232000F0E6
:103BC000CFFBDAF80020002AACBF4E20532000F0D3
:103BD000F3FBDAF80420019B82EAE27BABEBE27BA9
:103BE0009BFBF3F207FB02BB0299122001FB0BF1D6
:103BF000039291FBF3FB029100F0B2FB039A02EBFC
:103C0000820202EB82020BEB820000B200F0D4FBD6
:103C10001A2000F0A5FB029907FB0B1191FBF9F0AC
:103C200000B200F0C9FB222000F09AFBDAF8043061
:103C3000002BACBF4520572000F0BEFB00F09EFBE0
:103C400094F87831282B21D11F4B0022D8F800702E
:103C500083F878214FF47A73B7FBF3FA17203C27E7
:103C600000F07EFBBAFBF7F9B9FBF7F007FB109009
:103C7000000200B200F0A0FB182000F071FB07FB6F
:103C800019A000B200F098FB00F078FB95F85231D3
:103C9000012B7FF44EAE0A4DE86800F0F3FA0028DD
:103CA0003FF447AEE86800F0E8FA0746052000F068
:103CB000BAFB8A2F4BD08E2FEDD11BE0A80100203C
:103CC000D0050020A4180020580C00207404002007
:103CD0002C00002000007A44CC030020C401002006
:103CE000806967FF80969800AC03002028000020C0
:103CF0001002002000212E226E4809F056FB7C2382
:103D000084F8AA31E02384F8AD317D2384F8D631DC
:103D1000A38F84F8AB71DAB21B0A84F8C93184F836
:103D2000BF31142384F8C23184F8C3314FF4FA73DD
:103D3000A4F8C4314823A4F8CC31782384F8C821EE
:103D400084F8BE2184F8CE315A482E2190E03368A1
:103D50009B06A0D5584D002105F5BF702C2209F017
:103D600024FB7C2384F87E31A02384F881317D23D9
:103D700084F8A931514B84F87F711B7884F898310D
:103D80004F4BDB7A002B6ED04E494F4A0F68DFF85D
:103D900050C197FBF2F06623C0B285F8A731FB0F44
:103DA0000CFB00774FF0060E0EFB07F785F8873106
:103DB00042F21073B7FBF3F900EB800003FB1977B5
:103DC00049685FFA89F900EB800009EB800080B256
:103DD00091FBF2F2D2B285F88801000A85F88901D8
:103DE000C80F0CFB02110EFB01F185F88C0102EBF0
:103DF0008202B1FBF3F003FB101302EB8202C0B2AC
:103E000000EB820292B285F88D21120A85F88E218C
:103E100085F88F31B5F804211B0A85F890316423A9
:103E2000B2FBF3F303EBC3039B009BB285F8853130
:103E30001B0A85F88631B5F8223185F88A7185F834
:103E400091311B0A85F89231B5F802313F0A85F8A5
:103E500093311B0A85F89431B5F8243185F88B71BC
:103E600085F89A3102E0202385F8A73117482C21E4
:103E700003F04AFF0FE7164ED4F8D82133689A1A98
:103E8000002A0FDB0D4A1278042A0BD90A4A03F5DF
:103E9000123303F5F873C2F8D8310E4BDA6882F0AA
:103EA0001002DA600C4B9B680BB10C4898470DB0C0
:103EB000BDE8F08F020E0020580C0020F801002011
:103EC000C106002010020020A0860100D60D0020AF
:103ED0005C010020000C014030050020D20D0020C4
:103EE0006079FEFFAFF30080034B4FF4805208B1BE
:103EF0001A6170475A61704700080140034B4FF444
:103F0000805208B15A6170471A6170470008014039
:103F1000014B33F81000704730070020034B184462
:103F200090F82721024B33F812007047A8180020A0
:103F30006C11002003799B070AD5436A8269D1542A
:103F4000426A03690132B2FBF3F103FB11234362BE
:103F50007047037913F001030BD0026AC3699A42D8
:103F600005D09CBFC0681218D31AD8B27047002081
:103F7000704718467047037910B513F001030446E3
:103F80000ED0FFF7E6FF60B1E3696269D05CE268DA
:103F9000C0B2013A934234BF01330023E36110BD44
:103FA000184610BD426A806A131A58425841704739
:103FB000017170477047034B53F820301B6819801C
:103FC000704700BFDC060020074BA1F57A7153F85B
:103FD00020304FF47A701A689B884B4393FBF0F3C0
:103FE0009BB21380704700BFDC060020034B4FF4E8
:103FF00080521A8008B1024B187070472C000020C4
:104000007D000020064B1A78064B12B14FF4FF6278
:1040100001E04FF480521A8008B1034B18707047CA
:10402000540E00202C0000204D0000202DE9F04F00
:10403000504A514E1768738984463089A7EB03278D
:1040400085B0039187FB0001B288CB111404C2092B
:10405000F08842EA416287FB000114EB0208728893
:104060004FF000054FEAC2344FEA1022B08945EB09
:10407000030942EA01620B1287FB000114EB020AFA
:104080004FEAD05242EA41224FF0000545EB030BC4
:1040900012F5FA604FEAE15343F10001CDE9000166
:1040A000B0F5FA6F71F1000147DAA2FB024502FB9D
:1040B00003F1052605EB4105A4FB060106FB0511EE
:1040C0004D104FEA3004B8EB040869EB0509840889
:1040D0002A4844EA81748D104FF0FF31BAEB040A8C
:1040E0006BEB050BDDE9004584428D4125DA40F696
:1040F000AC5012184FF0000143EB010302FB03F137
:10410000A2FB02236FF0060003EB4103544200FBC5
:104110000344A2FB000118EB000821444FF00B04FC
:1041200049EB0109A2FB040104FB031149104FEA0A
:104130003000BAEB000A6BEB010B114B1A68A2FBC3
:104140000A0102FB0B11420D42EAC1224B15B2EBF0
:10415000080263EB0903D00B40EA4340BCF1000FB7
:1041600001D0CCF80000039808B10099016005B0B7
:10417000BDE8F08F580E00209405002024FAFFFFC0
:104180005C0E0020324B2DE9F0411C88314B0A2691
:104190005A89B3F91250A41A1A89ED025443B3F99B
:1041A0001420E413224495FBF2F22244DA615643D0
:1041B000A2F57A6202FB02F4B3F90480B3F902C0FB
:1041C000B3F90E7002FB0CFC02FB08F2B3F90C8091
:1041D0002413674304FB08F4241404EB6232023214
:1041E000DC88921002F50042B3F920506243B3F923
:1041F00000304FEAEC2404EBE72404EB8304AC40EA
:10420000154B02341B68D20BA3EBA4044CF25033C1
:104210002B41634355BF5B00B3FBF2F3B3FBF2F3F7
:104220005B001A12524340F6DE3462430B4C0836F0
:104230005C43241404EB224202F6CF62361103EBF6
:10424000221300B1036001B10E60BDE8F08100BF30
:10425000680E002058050020640E002043E3FFFF95
:1042600038B50C680546204609F0C1F821460246DB
:104270002868BDE8384009F0C3B808B503689B68F2
:10428000984708BD08B503685B68984708BD08B53E
:1042900003681B68984708BD38B5064D04462B686F
:1042A00021461868FFF7F3FF2B681A7954401C71F8
:1042B00038BD00BF4400002038B5044624200D4618
:1042C000FFF7EAFF4D20FFF7E7FF002C084C0CBF7B
:1042D0003E202120FFF7E0FF2368002228461A71C4
:1042E000FFF7DAFF236893F84600BDE83840D3E7CC
:1042F0004400002001460020DEE710B50446C0B2AD
:10430000FFF7CAFFC4F30720BDE81040C4E710B5AB
:104310000446C0B2FFF7C0FFC4F30720FFF7BCFF9D
:10432000C4F30740FFF7B8FF200EBDE81040B3E725
:10433000014B1868ABE700BFD005002010B5441E44
:1043400014F8011F21B1034B1868FFF7A0FFF7E72E
:1043500010BD00BFD00500200048EFE71112010892
:1043600038B5054C05465E21E068FFF790FFE06830
:104370002946BDE838408AE7D0050020014B5E2180
:10438000D86884E7D005002010B50A4C5E280146A5
:10439000E06805D15D21FFF77AFFE0683E2105E086
:1043A0005D2903D1FFF773FFE0683D21BDE81040B0
:1043B0006DE700BFD005002010B50446C0B2FFF77E
:1043C000E3FFC4F30720BDE81040FFF7DDBF08B5E9
:1043D000014B1B68984708BDB01D002010B5094A65
:1043E000094913688C6812689342F8D1074A10682B
:1043F00011684FF47A725043001BB0FBF1F002FBDE
:10440000030010BDA418002010E000E0DC04002030
:1044100038B50446FFF7E2FF0546FFF7DFFF401B14
:10442000A042FAD338BD10B504462CB14FF47A70CF
:10443000FFF7EEFF013CF8E710BD40F2DB146043EC
:1044400008B50E4B10221A6108225A61841E0B4BCC
:104450002046DA6882F01002DA60DA6882F0080238
:10446000DA60FFF7E0FF0120FFF7B1FF1920FFF747
:10447000DAFF0020FFF7ABFFE9E700BF000C0140C7
:104480002DE9F04106460F4690460025EBB2434524
:1044900018D20024E3B2B3420FD20B4B0120DA68EA
:1044A000013482F00802DA60FFF791FF3846FFF727
:1044B000BAFF0020FFF78BFFECE73C20FFF7B3FFCC
:1044C0000135E3E7BDE8F081000C01400A4B1A8892
:1044D0000A4B52B99A7842B15A7862B901225A709D
:1044E000074B1A88074B1A8070475B781BB902206C
:1044F000FF210122C4E77047540C0020C1060020B0
:10450000C4010020F60100202DE9F0410F880023AE
:1045100047FA03F2D2072BD58A7803F0070512F089
:10452000100F18BF91F803C002F00F0618BF46EA3B
:104530000C06AD004FF00F0C0CFA05FC06FA05F561
:10454000DC0850F82480282A28EA0C0C45EA0C05DF
:1045500040F8245005D101229A40C46824EA02029E
:1045600005E0482A04D101229A40C4682243C2606F
:104570000133102BCCD1BDE8F081044B1B685A7974
:10458000511C597113449879704700BF44000020B2
:1045900010B5FFF7F2FF0446FFF7EFFF04EB002032
:1045A00080B210BD10B5FFF7F3FF0446FFF7F0FF30
:1045B00004EB004010BD034B5A780AB100225A7038
:1045C000704700BFC106002010B50024084BE0B2C0
:1045D0001B7883420BD9074B33F81010064B1B781E
:1045E000834202D9054B1B6898470134EEE710BDA2
:1045F000A41C0020A61C0020D9060020D406002000
:104600002DE9F04F0C68836889B0D0F800A0D0F88D
:1046100004800646204603938B4609F031F907468D
:10462000204609F0A1F9DBF804408146204609F054
:1046300027F90546204609F097F9DBF808200446DB
:104640001046019209F01CF9019A8346104609F0C0
:104650008BF939460290584606F0F0FC3946049032
:10466000029806F0EBFC59460590484606F0E6FC39
:1046700002990690484606F0E1FC29460790584604
:1046800006F0DCFC0146504606F0D8FC2146834685
:10469000069806F0D3FC0146059806F0C7FB0146D4
:1046A000404606F0CBFC0146584606F0BFFB2146CB
:1046B0008346049806F0C2FC0146079806F0B4FB56
:1046C0000146039806F0BAFC0146584606F0AEFBD8
:1046D0003060029905F1004006F0B0FC01465046FA
:1046E00006F0ACFC21468346079806F0A7FC01467D
:1046F000049806F099FB0146404606F09FFC0146EF
:10470000584606F093FB21468346059806F096FC32
:104710000146069806F08AFB0146039806F08EFCD7
:104720000146584606F082FB21467060504606F06E
:1047300085FC2946044609F1004006F07FFC01464D
:10474000404606F07BFC0146204606F06FFB3946EA
:104750000446284606F072FC0146039806F06EFCFB
:104760000146204606F062FBB06009B0BDE8F08F5C
:104770002DE9F84F384E04463768384609F080F87E
:104780000546384609F0F0F876688046304609F06C
:1047900077F88346304609F0E7F8D4F804900646E7
:1047A0002946484606F04AFCA768824641463846F4
:1047B00006F044FC0146504606F036FB216882466E
:1047C000584606F03BFC41460446484606F036FC97
:1047D000314606F033FC0146204606F027FB314601
:1047E0000446384606F02AFC294606F027FC014616
:1047F000204606F01BFB0146504609F043F91749D5
:1048000006F01CFC06F056F811A3D3E9002306F0CD
:10481000CFF9134B044618680D4606F04BF80246D4
:104820000B462046294605F0E7FE00220D4B06F018
:10483000BFF906F0A5FA09F059F883B21A0444BF8B
:1048400000F5B4739BB218B2BDE8F88FAFF30080E7
:10485000182D4454FB210940880400200000E14445
:10486000B80500200000244080EAE073A3EBE07369
:104870008B4206DB002801DD401A704702D0084455
:1048800070470020704770B50546441E14F8011F9C
:1048900061B1074E304608F09DFD0028F6D0861B1A
:1048A0000448631B304480F82731EFE770BD00BF38
:1048B000AD1B0108A81800200E4B1A78462A16D105
:1048C0005A88B2F57F7F12D11A79BE2A0FD193F898
:1048D000FA230020EF2A0CD113F8012B5040064A8E
:1048E0009342F9D1D0F1010038BF00207047002079
:1048F0007047704700F80108FCFB010808B5FFF796
:10490000DBFF10B90A20FFF798FD0C4B0C49184645
:104910004FF47F7208F040FD90F8F823022A84BF1C
:10492000002280F8F82390F8F813E02202FB01013E
:10493000044801F5AC7108F02FFD08BDA81800204F
:1049400000F80108C01C00202DE9F0410278034660
:10495000202A00F10100F9D0092AF7D02D2A02D12E
:104960000346414D04E02B2A08BF03464FF07E5515
:104970001E460024334616F8012BA2F13007F9B287
:1049800009290DD83949204606F058FB0446384617
:1049900006F000FB0146204606F048FA0446E9E727
:1049A0002E2A17D1314F334616F8010B3038C2B2D8
:1049B000092A0FD806F0EEFA394606F0F3FB014655
:1049C000204606F033FA29490446384606F036FBFD
:1049D0000746E8E71A7802F0DF02452A38D15A780C
:1049E0002D2A02D10233012604E02B2A14BF013301
:1049F00002330026013B002713F8012F303AD1B2D1
:104A0000092903D80A2101FB0727F5E7B7F59A7FA3
:104A100028BF4FF49A77B8464FF07E51B8F1070F90
:104A200007D90846124906F009FBA8F10808014613
:104A3000F4E707F0070737B108460C4906F0FEFA1D
:104A4000013F0146F7E72EB1204606F0ABFB04E03C
:104A50004FF07E51204606F0F1FA0146284606F056
:104A6000EDFABDE8F08100BF000080BF00002041EA
:104A700020BCBE4C70B50646B6FBF2F4084615469F
:104A800014B12046FFF7F6FF05FB1464024B1B5DD3
:104A900000F8013B70BD00BF3F12010890F83B32A7
:104AA00010B57BB990F83A3290F83922934209D286
:104AB00001219940B0F8404201332143A0F840124F
:104AC000DBB2F3E710BD90F842321BB1D1F1010126
:104AD00038BF0021D0F834315A689B6809B113619E
:104AE000704753617047F8B5101A0C461F4606F020
:104AF00051FA0546381B06F04DFA184B079E196807
:104B000006F09CFA29460446284606F097FA214604
:104B10000746204606F092FA0146384606F086F926
:104B200009F03AF90E4906F089FA06F04DFC069BA9
:104B30002146186005F1004008F0A4FF094906F07D
:104B40007DFA094906F072F906F03EFC0028BCBF68
:104B500000F50C40A0303060F8BD00BF60000020C0
:104B60002C7D8E3FA00CB34500A00C4610B506F07E
:104B700011FA0021044606F01DFC08B1204601E0B0
:104B800004F10040054906F00DFB054906F056FA10
:104B900008F076FE034B186010BD00BF8096184BDE
:104BA00035FA8E3C6000002010B50B4CE37A8BB1D7
:104BB0000A4B1B78042B0DD9094A0A4B106852681E
:104BC00018605A60FFF7D2FF074B1A88074B1A800C
:104BD0000123237310BD00BFC1060020F80100208F
:104BE00010020020FC010020C40100202C10002035
:104BF00044F25063984203DDA0F50C40A0387047A2
:104C0000034B9842BCBF00F50C40A030704700BF7A
:104C1000B0B9FFFF70B5204C204D607906F0B6F9B1
:104C20001F4906F0BFFA2860E07B06F0AFF91C4987
:104C300006F0B8FA1B4E6860EE60A07906F0A6F99F
:104C4000194906F0AFFA194D2860207C06F09EF94C
:104C5000134906F0A7FA6860A07E06F097F9144998
:104C600006F0A0FAEE60A860E07906F08FF90E4930
:104C700006F098FA0F4D2860607C06F087F9084925
:104C800006F090FA6860E07E06F080F9084906F0C8
:104C900089FAEE60A86070BDC01C0020E80F0020FB
:104CA0000000C8420000FA4400002041F80F002034
:104CB00000007A441C1000202DE9F047304A002300
:104CC00092F82050D47F03FB03F01938684300F6B4
:104CD000C4105843604340F6C41190FBF1F02949D9
:104CE00021F813000133072BEDD192F8213092F80F
:104CF0002260254AC3F1640CB2F8E850B2F8EA9099
:104D000003EB830758425FFA8CFC7F00C6F164080E
:104D1000C5EB090980B2002284B221B2002904DC6B
:104D2000002C14BF1C46012400E0644601FB01FA7C
:104D300064430AFB06FA9AFBF4F444444C434FF0F4
:104D40000A0A94FBFAF43C4424B204FB09F44FF43D
:104D50007A7194FBF1F40D492C44545202325044C0
:104D6000182A80B2D8D1064BBDE8F0471B78012B3A
:104D700018BF074A074B08BF074A1A604AE700BF37
:104D8000C01C0020580C0020A8180020700C002027
:104D90003189000810000020958B0008084B9A8983
:104DA00098811A89D007FCD5054B9889C0B2044B6D
:104DB0001A899107FBD51A891206FCD4704700BFE7
:104DC00000380040044B1B78834204D9034B53F84E
:104DD00020301B68198070470C0700201007002046
:104DE00003280E4B09D80E4A12888A4205D20122A6
:104DF00002FA00F01A78104318701B780F2B0BD1B1
:104E0000064B00221A70074B198808B2142802DDDD
:104E10001439198070471A80704700BF380E00207F
:104E20002E0000201C010020104B10B55A8859801C
:104E3000891A9A8089B240F68C2291421C4602D986
:104E400000229A7110BDA1F2EF2292B240F2DA5321
:104E50009A4207D8A079072804D8054B23F81010E8
:104E6000FFF7BEFFA3790133A37110BD380E0020F8
:104E70006C110020AFF30080426A10B58469A15420
:104E8000416A02690131B1FBF2F402FB1412426281
:104E9000426B32B11368DB0708D4BDE8104001F063
:104EA0007BBF836CDA6842F08002DA6010BD204B71
:104EB00037B51B680446012B0EDD4FF40053ADF8E7
:104EC000043002238DF8073004231A480DEB030148
:104ED0008DF80630FFF718FB6B218022682004F064
:104EE0008FF86420FFF79FFA19210022682004F050
:104EF00087F8114D6B210322682004F081F83721D7
:104F00000222682004F07CF81A212A78682004F034
:104F100077F81B211822682004F072F868201C2101
:104F2000102204F06DF804B16C7003B030BD00BF06
:104F3000A81D0020001001404800002010B50446C4
:104F40006420FFF770FA68202321F02204F058F85B
:104F500010B90320FFF771FA0520FFF764FA064B3A
:104F600068201A78202142F00F0204F049F80CB1B1
:104F7000024B9C7010BD00BF40050020480000207F
:104F800010B504461920FFF74EFA682015210022BB
:104F900004F036F810B90320FFF74FFA0D4B162135
:104FA0001A78682042F0180204F02AF8172100222B
:104FB000682004F025F83D210122682004F020F843
:104FC00068203E21012204F01BF80CB1024BDC707A
:104FD00010BD00BF2A0000204800002037B5202364
:104FE000ADF8043004230DEB0301022405461C48F0
:104FF0008DF806308DF80740FFF786FA2A21002247
:105000001C2003F0FDFF0E2122461C2003F0F8FFB8
:105010000F2103221C2003F0F3FF2B2112221C205E
:1050200003F0EEFF2C2122461C2003F0E9FF2D2186
:1050300001221C2003F0E4FF2E2100221C2003F09B
:10504000DFFF05221C202A2103F0DAFF054B4FF475
:1050500080721A800DB1044B1D7103B030BD00BFCA
:10506000000801402C000020480000207720482143
:10507000012203F0C5BF77205821012203F0C0BFF1
:10508000064B002193F82020054B92013432197011
:105090007720F42102F0FC0203F0B2BF5805002093
:1050A000A01D0020034B00221A707720F4212E222D
:1050B00003F0A6BFA01D00201FB50123ADF80830E6
:1050C000ADF80410002301A9ADF80A30ADF80C309A
:1050D000ADF8062001F050FF05B05DF804FB454B2C
:1050E00010B54FF4127404FB003494F83C22C2B99A
:1050F000A36A616A994229D0591CA069A162C05C67
:105100002369C0B299424FEA400343F40073A4F804
:105110003E324FF00A0384F83D3228BFA2620123D9
:1051200012E094F93D327BB1B4F83E1220464B08B0
:10513000A4F83E3201F00101FFF7C5FC94F83D32BE
:10514000013B84F83D3201E084F83C3294F8383277
:10515000002B4DD194F839320133DBB2092B84F89E
:10516000393204D12046BDE81040FFF797BC0A2B26
:105170003ED194F83B322BB9B4F8403243F00103EE
:10518000A4F840322379D8071AD5B4F8403203F492
:10519000007292B20AB9D90705D4B4F84632013385
:1051A000A4F846320CE0216A6069C3F34703435414
:1051B000E168236A01398B4236BF013322622362E0
:1051C000012284F8382294F83B220023012A84F833
:1051D00039320DD194F8422284F83B32236B002AF5
:1051E0001868197B0CBF02220022BDE8104063E75B
:1051F00010BD00BFB4070020094B30B59A68B3F862
:10520000F250B3F8EC4002F4804200230549002A32
:1052100014BF2846204658520233182BF6D130BD11
:10522000A8180020B804002010B504460848FFF76D
:1052300085F8084A00231370074A1360074A137061
:10524000FFF7DAFF2046BDE8104003F067BD00BF5E
:10525000641201083410002030100020B41D00201A
:1052600010B540001C4CC0B22070617001200021BC
:10527000A170E0702273607320696360A360A17302
:1052800040B383889B0515D40388D9050DD447F214
:1052900030530288920502D5013BFAD112E08BB15E
:1052A00003889BB243F48073038083889BB243F4EA
:1052B0004073838047F23053627B12B1013BFBD1D4
:1052C00000E01BB9BDE8104003F030BE024B987BF4
:1052D00080F0010010BD00BF400E0020F0B5044674
:1052E00085B02320FFF79FF86820752101220DF17A
:1052F0000703FFF7B5FF00285FD09DF80770682F00
:105300005AD1062102AB38460A46FFF7A9FF9DF89D
:105310000B309DF80D6003F001035B0006F0010601
:1053200043EA86069DF80930254D03F001031E432C
:1053300005D0012E17D0022E0DD1002311E00DF162
:10534000070338460C210122FFF78AFF9DF807303A
:1053500013F00F0302D10520FFF76FF8042B02D1E1
:1053600001232B7500E02E75164B174ABB2C1A60D3
:10537000164A5A60164B174A1A60174A5A60174A5B
:10538000DA60174B2A7D1A75164B02D90120187066
:1053900013E0612C01D902220BE0292C01D9032250
:1053A00007E0132C01D9042203E0092C8CBF05224D
:1053B00006221A70012000E0002005B0F0BD00BFF9
:1053C000400E00204405002005400008E953000875
:1053D00030050020AF4E00083D54000818449231BB
:1053E000D0050020480000201FB504466B463B2135
:1053F00006226820FFF734FF9DF800209DF8013059
:1054000002A843EA0223ADF808309DF802209DF877
:105410000330214643EA0223ADF80A309DF8042008
:105420009DF8053043EA0223ADF80C30024B5A795F
:1054300003F064F904B010BD480000201FB5044615
:105440006B46432106226820FFF70AFF9DF80130D2
:105450009DF800209DF8021043EA022212B20423B4
:1054600092FBF3F2ADF808209DF8032002A842EA6F
:10547000012212B292FBF3F29DF80410ADF80A205B
:105480009DF8052042EA012212B292FBF3F3ADF837
:105490000C30034B21465A7803F030F904B010BDAC
:1054A000480000201FB504466B46A821062268204C
:1054B000FFF7D6FE9DF801309DF800209DF8021000
:1054C00043EA022212B2042392FBF3F2ADF8082061
:1054D0009DF8032002A842EA012212B292FBF3F2E5
:1054E0009DF80410ADF80A209DF8052042EA01223B
:1054F00012B292FBF3F3ADF80C30034B21469A78CD
:1055000003F0FCF804B010BD4800002013B50222DF
:10551000044601AB1B216820FFF7A2FE9DF8042082
:105520009DF8053043EA022303F54E534FF48C7285
:10553000103393FBF2F32333238002B010BD1FB569
:1055400004466B461D2106226820FFF789FE9DF860
:1055500001309DF800209DF8021043EA022212B2A9
:10556000042392FBF3F2ADF808209DF8032002A873
:1055700042EA012212B292FBF3F29DF80410ADF858
:105580000A209DF8052042EA012212B292FBF3F3B1
:10559000ADF80C30034B2146DA7803F0AFF804B0D5
:1055A00010BD00BF480000201FB504466B46012116
:1055B00006221C20FFF754FE9DF801309DF80020C4
:1055C0009DF8021043EA022242F38D02042392FB6B
:1055D000F3F2ADF808209DF8032002A842EA012268
:1055E00042F38D0292FBF3F29DF80410ADF80A200D
:1055F0009DF8052042EA012242F38D0292FBF3F36B
:10560000ADF80C30034B21461A7903F077F804B05B
:1056100010BD00BF4800002030B585B00622054609
:1056200003216B461E20FFF71BFE9DF801309DF8FD
:1056300000001A4C43EA002000B205F0ABFCA16860
:1056400005F0FCFC05F0C0FE9DF80330ADF8080045
:105650009DF8020043EA002000B205F09BFC21699E
:1056600005F0ECFC05F0B0FE9DF80530ADF80C003F
:105670009DF8040043EA002000B205F08BFCE168CD
:1056800005F0DCFC05F0A0FE2946ADF80A00227DFD
:1056900002A803F033F805B030BD00BF4800002079
:1056A0002DE9FF4108B1634B1875634B1B68012B53
:1056B0000DD14FF48053ADF8043002238DF807303C
:1056C00004238DF806305D480DEB030106E007DD8D
:1056D00004A94FF480435A4821F80C3DFEF714FF0B
:1056E0003220FEF7A0FE002111221E2003F088FCCC
:1056F000012160221E2003F083FC6420FEF793FE4C
:1057000002A8FFF789FF00240A2527462646022122
:1057100001221E2003F074FC3220FEF784FE02A852
:10572000FFF77AFFBDF90820BDF90A10BDF90C306A
:1057300014449142B8BF0A461E449A42B8BF134669
:1057400013F5805F0F4409DD3C4B013DDA6882F0C0
:105750001002DA60DBD14FF0010801E04FF00008E1
:105760001E200021122203F04BFC0A2502210122F7
:105770001E2003F045FC3220FEF755FE02A8FFF77D
:105780004BFFBDF90820BDF90A10BDF90C30A41A71
:105790009142B8BF0A46F61A9A42B8BF134613F5AB
:1057A000805FC1EB070707DD244B013DDA6882F01B
:1057B0001002DA60DAD101E04FF00008204605F06F
:1057C000E9FB01461F4805F0EDFC1A4D20F00040B2
:1057D000A860384605F0DEFB01461A4805F0E2FCF9
:1057E00020F00040E860304605F0D4FB0146164842
:1057F00005F0D8FC20F000402861002170221E2016
:1058000003F0FEFB012120221E2003F0F9FB1E20E5
:105810000221002203F0F4FB6420FEF704FEB8F13D
:10582000000F04D14FF07E53AB60EB602B6104B0EE
:10583000BDE8F08148000020A81D0020000C0140B8
:105840000010014000406F4601C05E4607B50021D0
:1058500001AB03227720FFF703FD9DF805009DF8BB
:105860000430000240EA03409DF80630184303B0BC
:105870005DF804FB08B5FFF7E9FF014B986108BD2F
:10588000400E002008B5FFF7E1FF014BD86108BDCD
:10589000400E0020104B13B51B78104C13B9238C0D
:1058A0000133238401ABF62103227720FFF7D8FCD4
:1058B0009DF805309DF804201B0243EA02439DF841
:1058C00006201343064AB2F92020C2F10802D34051
:1058D000636202B010BD00BFA01D0020400E00207A
:1058E000580500200B4B13B51B780B4C13B9238CB8
:1058F0000133238401ABF62102227720FFF7B0FCAD
:105900009DF804209DF8053043EA0223238502B068
:1059100010BD00BFA01D0020400E00201FB5044692
:105920006B46022106221820FFF79AFC9DF80030F2
:105930009DF801209B0803EB0223ADF808309DF889
:1059400002309DF803209B0803EB0223ADF80A30D8
:105950009DF804309DF805209B0803EB0223ADF869
:105960000C30044B02A821465A7D02F0C7FE04B059
:1059700010BD00BF480000201FB504466B46032140
:1059800006220C20FFF76CFC9DF803209DF80230E6
:1059900002A843EA0223C3EB83339B009DF8012056
:1059A000ADF808309DF80030214643EA0223C3EBEE
:1059B00083339B009DF80520ADF80A309DF8043034
:1059C00043EA0223C3EB83339B00ADF80C30054B55
:1059D0009A7D02F093FE0A2101220C2003F010FBB5
:1059E00004B010BD480000202DE9FF41344B804633
:1059F0001B78002B3CD0002425462646274608224B
:105A00000DEB020353203221FFF72AFC9DF80920F9
:105A10009DF80830013403EB02231BB29DF80B20E4
:105A20001F449DF80A30E4B203EB02231BB21E446C
:105A30009DF80D209DF80C30202C03EB02231BB2A7
:105A40001D449DF80F3003F07F0301D0002BD6D109
:105A50001C4B97FBF4F796FBF4F695FBF4F5ADF8C9
:105A60000070ADF80260ADF8045083F82A401DE0E4
:105A7000062202AB53203221FFF7F2FB9DF80920EA
:105A80009DF8083003EB0223ADF800309DF80B20A1
:105A90009DF80A3003EB0223ADF802309DF80D208B
:105AA0009DF80C3003EB0223ADF80430064B68463A
:105AB0004146DA7D02F022FE04B0BDE8F08100BF6D
:105AC00041050020400E002048000020000000009A
:105AD0002DE9F04F9B4B95B093F84431C4B2012BA4
